{
  "_format": "hh-sol-artifact-1",
  "contractName": "CCTPHookWrapper",
  "sourceName": "contracts/core/CCTPHookWrapper.sol",
  "abi": [
    {
      "inputs": [
        {
          "internalType": "address",
          "name": "_messageTransmitter",
          "type": "address"
        }
      ],
      "stateMutability": "nonpayable",
      "type": "constructor"
    },
    {
      "anonymous": false,
      "inputs": [
        {
          "indexed": true,
          "internalType": "address",
          "name": "previousOwner",
          "type": "address"
        },
        {
          "indexed": true,
          "internalType": "address",
          "name": "newOwner",
          "type": "address"
        }
      ],
      "name": "OwnershipTransferred",
      "type": "event"
    },
    {
      "inputs": [],
      "name": "messageTransmitter",
      "outputs": [
        {
          "internalType": "contract IReceiverV2",
          "name": "",
          "type": "address"
        }
      ],
      "stateMutability": "view",
      "type": "function"
    },
    {
      "inputs": [],
      "name": "owner",
      "outputs": [
        {
          "internalType": "address",
          "name": "",
          "type": "address"
        }
      ],
      "stateMutability": "view",
      "type": "function"
    },
    {
      "inputs": [
        {
          "internalType": "bytes",
          "name": "message",
          "type": "bytes"
        },
        {
          "internalType": "bytes",
          "name": "attestation",
          "type": "bytes"
        }
      ],
      "name": "relay",
      "outputs": [
        {
          "internalType": "bool",
          "name": "relaySuccess",
          "type": "bool"
        },
        {
          "internalType": "bool",
          "name": "hookSuccess",
          "type": "bool"
        },
        {
          "internalType": "bytes",
          "name": "hookReturnData",
          "type": "bytes"
        }
      ],
      "stateMutability": "nonpayable",
      "type": "function"
    },
    {
      "inputs": [],
      "name": "supportedMessageBodyVersion",
      "outputs": [
        {
          "internalType": "uint32",
          "name": "",
          "type": "uint32"
        }
      ],
      "stateMutability": "view",
      "type": "function"
    },
    {
      "inputs": [],
      "name": "supportedMessageVersion",
      "outputs": [
        {
          "internalType": "uint32",
          "name": "",
          "type": "uint32"
        }
      ],
      "stateMutability": "view",
      "type": "function"
    },
    {
      "inputs": [
        {
          "internalType": "address",
          "name": "newOwner",
          "type": "address"
        }
      ],
      "name": "transferOwnership",
      "outputs": [],
      "stateMutability": "nonpayable",
      "type": "function"
    }
  ],
  "bytecode": "0x60a060405234801561001057600080fd5b5060405162001af038038062001af08339818101604052602081101561003557600080fd5b810190808051906020019092919050505061006261005761012660201b60201c565b61012e60201b60201c565b600073ffffffffffffffffffffffffffffffffffffffff168173ffffffffffffffffffffffffffffffffffffffff1614156100e9576040517f08c379a000000000000000000000000000000000000000000000000000000000815260040180806020018281038252602781526020018062001ac96027913960400191505060405180910390fd5b8073ffffffffffffffffffffffffffffffffffffffff1660808173ffffffffffffffffffffffffffffffffffffffff1660601b81525050506101f2565b600033905090565b60008060009054906101000a900473ffffffffffffffffffffffffffffffffffffffff169050816000806101000a81548173ffffffffffffffffffffffffffffffffffffffff021916908373ffffffffffffffffffffffffffffffffffffffff1602179055508173ffffffffffffffffffffffffffffffffffffffff168173ffffffffffffffffffffffffffffffffffffffff167f8be0079c531659141344cd1fd0a4f28419497f9722a3daafe3b4186f6b6457e060405160405180910390a35050565b60805160601c6118b46200021560003980610457528061069752506118b46000f3fe608060405234801561001057600080fd5b50600436106100625760003560e01c806301358f9e14610067578063564a51581461008b5780637b04c181146101e4578063875c7ecf146102185780638da5cb5b1461023c578063f2fde38b14610270575b600080fd5b61006f6102b4565b604051808263ffffffff16815260200191505060405180910390f35b610157600480360360408110156100a157600080fd5b81019080803590602001906401000000008111156100be57600080fd5b8201836020820111156100d057600080fd5b803590602001918460018302840111640100000000831117156100f257600080fd5b90919293919293908035906020019064010000000081111561011357600080fd5b82018360208201111561012557600080fd5b8035906020019184600183028401116401000000008311171561014757600080fd5b90919293919293905050506102b9565b604051808415158152602001831515815260200180602001828103825283818151815260200191508051906020019080838360005b838110156101a757808201518184015260208101905061018c565b50505050905090810190601f1680156101d45780820380516001836020036101000a031916815260200191505b5094505050505060405180910390f35b6101ec610695565b604051808273ffffffffffffffffffffffffffffffffffffffff16815260200191505060405180910390f35b6102206106b9565b604051808263ffffffff16815260200191505060405180910390f35b6102446106be565b604051808273ffffffffffffffffffffffffffffffffffffffff16815260200191505060405180910390f35b6102b26004803603602081101561028657600080fd5b81019080803573ffffffffffffffffffffffffffffffffffffffff1690602001909291905050506106e7565b005b600181565b60008060606102c6610781565b6000610320600089898080601f016020809104026020016040519081016040528093929190818152602001838380828437600081840152601f19601f8201169050808301925050505050505061083290919063ffffffff16565b905061032b8161085d565b600163ffffffff1661033c82610977565b63ffffffff16146103b5576040517f08c379a00000000000000000000000000000000000000000000000000000000081526004018080602001828103825260178152602001807f496e76616c6964206d6573736167652076657273696f6e00000000000000000081525060200191505060405180910390fd5b60006103c0826109a0565b90506103cb816109ed565b600163ffffffff166103dc82610b07565b63ffffffff1614610455576040517f08c379a000000000000000000000000000000000000000000000000000000000815260040180806020018281038252601c8152602001807f496e76616c6964206d65737361676520626f64792076657273696f6e0000000081525060200191505060405180910390fd5b7f000000000000000000000000000000000000000000000000000000000000000073ffffffffffffffffffffffffffffffffffffffff166357ecfd288a8a8a8a6040518563ffffffff1660e01b81526004018080602001806020018381038352878782818152602001925080828437600081840152601f19601f8201169050808301925050508381038252858582818152602001925080828437600081840152601f19601f8201169050808301925050509650505050505050602060405180830381600087803b15801561052857600080fd5b505af115801561053c573d6000803e3d6000fd5b505050506040513d602081101561055257600080fd5b81019080805190602001909291905050509450846105d8576040517f08c379a00000000000000000000000000000000000000000000000000000000081526004018080602001828103825260168152602001807f52656365697665206d657373616765206661696c65640000000000000000000081525060200191505060405180910390fd5b60006105e382610b1f565b90506105f48162ffffff1916610b6c565b1561068857600061060a8262ffffff1916610baf565b6bffffffffffffffffffffffff1690506014811061068657600061063e60008462ffffff1916610bd590919063ffffffff16565b9050600061066f6106646014850360008762ffffff1916610beb9092919063ffffffff16565b62ffffff1916610c2a565b905061067b8282610c71565b809850819950505050505b505b5050509450945094915050565b7f000000000000000000000000000000000000000000000000000000000000000081565b600181565b60008060009054906101000a900473ffffffffffffffffffffffffffffffffffffffff16905090565b6106ef610781565b600073ffffffffffffffffffffffffffffffffffffffff168173ffffffffffffffffffffffffffffffffffffffff161415610775576040517f08c379a00000000000000000000000000000000000000000000000000000000081526004018080602001828103825260268152602001806117766026913960400191505060405180910390fd5b61077e81610d37565b50565b610789610dfb565b73ffffffffffffffffffffffffffffffffffffffff166107a76106be565b73ffffffffffffffffffffffffffffffffffffffff1614610830576040517f08c379a00000000000000000000000000000000000000000000000000000000081526004018080602001828103825260208152602001807f4f776e61626c653a2063616c6c6572206973206e6f7420746865206f776e657281525060200191505060405180910390fd5b565b6000808351905060006020850190506108538464ffffffffff168284610e03565b9250505092915050565b61086c8162ffffff1916610b6c565b6108de576040517f08c379a00000000000000000000000000000000000000000000000000000000081526004018080602001828103825260118152602001807f4d616c666f726d6564206d65737361676500000000000000000000000000000081525060200191505060405180910390fd5b609460ff166108f28262ffffff1916610baf565b6bffffffffffffffffffffffff161015610974576040517f08c379a000000000000000000000000000000000000000000000000000000000815260040180806020018281038252601a8152602001807f496e76616c6964206d6573736167653a20746f6f2073686f727400000000000081525060200191505060405180910390fd5b50565b6000610999600060ff1660048462ffffff1916610e729092919063ffffffff16565b9050919050565b60006109e6609460ff16609460ff166109be8562ffffff1916610baf565b036bffffffffffffffffffffffff1660008562ffffff1916610e97909392919063ffffffff16565b9050919050565b6109fc8162ffffff1916610b6c565b610a6e576040517f08c379a00000000000000000000000000000000000000000000000000000000081526004018080602001828103825260118152602001807f4d616c666f726d6564206d65737361676500000000000000000000000000000081525060200191505060405180910390fd5b60e460ff16610a828262ffffff1916610baf565b6bffffffffffffffffffffffff161015610b04576040517f08c379a000000000000000000000000000000000000000000000000000000000815260040180806020018281038252601f8152602001807f496e76616c6964206275726e206d6573736167653a20746f6f2073686f72740081525060200191505060405180910390fd5b50565b6000610b188262ffffff1916610f43565b9050919050565b6000610b6560e460ff1660e460ff16610b3d8562ffffff1916610baf565b036bffffffffffffffffffffffff1660008562ffffff1916610e97909392919063ffffffff16565b9050919050565b600064ffffffffff610b7d83610f6c565b64ffffffffff161415610b935760009050610baa565b6000610b9e83610f81565b90506040518111159150505b919050565b6000806bffffffffffffffffffffffff90506000601890508184821c1692505050919050565b6000610be383836014610e72565b905092915050565b6000610c2184610c1a85610bfe88610baf565b6bffffffffffffffffffffffff16610fab90919063ffffffff16565b8585610e97565b90509392505050565b6060600080610c3884610baf565b6bffffffffffffffffffffffff1690506040519150819250610c5d846020840161102e565b506020818301016040528082525050919050565b600060608373ffffffffffffffffffffffffffffffffffffffff16836040518082805190602001908083835b60208310610cc05780518252602082019150602081019050602083039250610c9d565b6001836020036101000a0380198251168184511680821785525050505050509050019150506000604051808303816000865af19150503d8060008114610d22576040519150601f19603f3d011682016040523d82523d6000602084013e610d27565b606091505b5080925081935050509250929050565b60008060009054906101000a900473ffffffffffffffffffffffffffffffffffffffff169050816000806101000a81548173ffffffffffffffffffffffffffffffffffffffff021916908373ffffffffffffffffffffffffffffffffffffffff1602179055508173ffffffffffffffffffffffffffffffffffffffff168173ffffffffffffffffffffffffffffffffffffffff167f8be0079c531659141344cd1fd0a4f28419497f9722a3daafe3b4186f6b6457e060405160405180910390a35050565b600033905090565b600080610e1983856111db90919063ffffffff16565b9050604051811115610e2a57600090505b6000811415610e5c577fffffffffffffffffffffffffffffffffffffffffffffffffffffffffff000000915050610e6b565b610e6785858561125e565b9150505b9392505050565b60006008826020030260ff16610e89858585611289565b60001c901c90509392505050565b600080610ea386611450565b6bffffffffffffffffffffffff169050610ebc86610f81565b610ee185610ed388856111db90919063ffffffff16565b6111db90919063ffffffff16565b1115610f10577fffffffffffffffffffffffffffffffffffffffffffffffffffffffffff000000915050610f3b565b610f2385826111db90919063ffffffff16565b9050610f378364ffffffffff168286610e03565b9150505b949350505050565b6000610f65600060ff1660048462ffffff1916610e729092919063ffffffff16565b9050919050565b60008060d860ff16905082811c915050919050565b6000610f8c82610baf565b610f9583611450565b016bffffffffffffffffffffffff169050919050565b600082821115611023576040517f08c379a000000000000000000000000000000000000000000000000000000000815260040180806020018281038252601d8152602001807f556e646572666c6f7720647572696e67207375627472616374696f6e2e00000081525060200191505060405180910390fd5b818303905092915050565b600061103983611479565b61108e576040517f08c379a00000000000000000000000000000000000000000000000000000000081526004018080602001828103825260288152602001806117f76028913960400191505060405180910390fd5b61109783610b6c565b6110ec576040517f08c379a000000000000000000000000000000000000000000000000000000000815260040180806020018281038252602b81526020018061181f602b913960400191505060405180910390fd5b60006110f784610baf565b6bffffffffffffffffffffffff169050600061111285611450565b6bffffffffffffffffffffffff1690506000806040519150858211156111385760206060fd5b8386858560045afa9050806111b5576040517f08c379a000000000000000000000000000000000000000000000000000000000815260040180806020018281038252600c8152602001807f6964656e74697479204f4f47000000000000000000000000000000000000000081525060200191505060405180910390fd5b6111cf6111c188610f6c565b64ffffffffff16878661125e565b94505050505092915050565b6000818301905082811015611258576040517f08c379a00000000000000000000000000000000000000000000000000000000081526004018080602001828103825260198152602001807f4f766572666c6f7720647572696e67206164646974696f6e2e0000000000000081525060200191505060405180910390fd5b92915050565b60008060609050600060189050858317821b9250848317821b9250838317811b925050509392505050565b6000808260ff1614156112a1576000801b9050611449565b6112aa84610baf565b6bffffffffffffffffffffffff166112ce8360ff16856111db90919063ffffffff16565b11156113b05761130f6112e085611450565b6bffffffffffffffffffffffff166112f786610baf565b6bffffffffffffffffffffffff16858560ff1661148c565b6040517f08c379a00000000000000000000000000000000000000000000000000000000081526004018080602001828103825283818151815260200191508051906020019080838360005b8381101561137557808201518184015260208101905061135a565b50505050905090810190601f1680156113a25780820380516001836020036101000a031916815260200191505b509250505060405180910390fd5b60208260ff16111561140d576040517f08c379a000000000000000000000000000000000000000000000000000000000815260040180806020018281038252603a8152602001806117bd603a913960400191505060405180910390fd5b6000600883029050600061142086611450565b6bffffffffffffffffffffffff169050600061143b836115c6565b905080868301511693505050505b9392505050565b6000806bffffffffffffffffffffffff90506000607860ff1690508184821c1692505050919050565b6000611484826115f5565b159050919050565b606060006114998661162d565b91505060006114a78661162d565b91505060006114b58661162d565b91505060006114c38661162d565b91505083838383604051602001808061184a603591396035018565ffffffffffff1660d01b8152600601807f2077697468206c656e6774682030780000000000000000000000000000000000815250600f018465ffffffffffff1660d01b81526006018061179c602191396021018365ffffffffffff1660d01b8152600601807f2077697468206c656e6774682030780000000000000000000000000000000000815250600f018265ffffffffffff1660d01b8152600601807f2e00000000000000000000000000000000000000000000000000000000000000815250600101945050505050604051602081830303815290604052945050505050949350505050565b60007f8000000000000000000000000000000000000000000000000000000000000000600183031d9050919050565b60007fffffffffffffffffffffffffffffffffffffffffffffffffffffffffff00000062ffffff19168262ffffff1916149050919050565b6000806000601f90505b600f8160ff1611156116815760006008820260ff1685901c905061165a816116d9565b61ffff168417935060108260ff161461167557601084901b93505b50600181039050611637565b506000600f90505b60ff8160ff1610156116d35760006008820260ff1685901c90506116ac816116d9565b61ffff168317925060008260ff16146116c757601083901b92505b50600181039050611689565b50915091565b60006116eb60048360ff16901c611712565b60ff168117905060088161ffff16901b905061170682611712565b60ff1681179050919050565b600080600f831690506040518060400160405280601081526020017f30313233343536373839616263646566000000000000000000000000000000008152508160ff168151811061175f57fe5b602001015160f81c60f81b60f81c91505091905056fe4f776e61626c653a206e6577206f776e657220697320746865207a65726f20616464726573732e20417474656d7074656420746f20696e646578206174206f666673657420307854797065644d656d566965772f696e646578202d20417474656d7074656420746f20696e646578206d6f7265207468616e20333220627974657354797065644d656d566965772f636f7079546f202d204e756c6c20706f696e74657220646572656654797065644d656d566965772f636f7079546f202d20496e76616c696420706f696e74657220646572656654797065644d656d566965772f696e646578202d204f76657272616e2074686520766965772e20536c696365206973206174203078a264697066735822122073243174cfa2f12b07f92046617043a0afddbca1f7a53b0979826b7d67ead8ca64736f6c634300070600334d657373616765207472616e736d697474657220697320746865207a65726f2061646472657373",
  "linkReferences": {},
  "deployedLinkReferences": {}
}