{
  "_format": "hh-sol-artifact-1",
  "contractName": "CCTPHookWrapperV2",
  "sourceName": "contracts/core/CCTPHookWrapperV2.sol",
  "abi": [
    {
      "inputs": [
        {
          "internalType": "address",
          "name": "_messageTransmitter",
          "type": "address"
        }
      ],
      "stateMutability": "nonpayable",
      "type": "constructor"
    },
    {
      "anonymous": false,
      "inputs": [
        {
          "indexed": true,
          "internalType": "address",
          "name": "previousOwner",
          "type": "address"
        },
        {
          "indexed": true,
          "internalType": "address",
          "name": "newOwner",
          "type": "address"
        }
      ],
      "name": "OwnershipTransferred",
      "type": "event"
    },
    {
      "inputs": [],
      "name": "messageTransmitter",
      "outputs": [
        {
          "internalType": "contract IReceiverV2",
          "name": "",
          "type": "address"
        }
      ],
      "stateMutability": "view",
      "type": "function"
    },
    {
      "inputs": [],
      "name": "owner",
      "outputs": [
        {
          "internalType": "address",
          "name": "",
          "type": "address"
        }
      ],
      "stateMutability": "view",
      "type": "function"
    },
    {
      "inputs": [
        {
          "internalType": "bytes",
          "name": "message",
          "type": "bytes"
        },
        {
          "internalType": "bytes",
          "name": "attestation",
          "type": "bytes"
        }
      ],
      "name": "relay",
      "outputs": [
        {
          "internalType": "bool",
          "name": "relaySuccess",
          "type": "bool"
        },
        {
          "internalType": "bool",
          "name": "hookSuccess",
          "type": "bool"
        },
        {
          "internalType": "bytes",
          "name": "hookReturnData",
          "type": "bytes"
        }
      ],
      "stateMutability": "nonpayable",
      "type": "function"
    },
    {
      "inputs": [],
      "name": "supportedMessageBodyVersion",
      "outputs": [
        {
          "internalType": "uint32",
          "name": "",
          "type": "uint32"
        }
      ],
      "stateMutability": "view",
      "type": "function"
    },
    {
      "inputs": [],
      "name": "supportedMessageVersion",
      "outputs": [
        {
          "internalType": "uint32",
          "name": "",
          "type": "uint32"
        }
      ],
      "stateMutability": "view",
      "type": "function"
    },
    {
      "inputs": [
        {
          "internalType": "address",
          "name": "newOwner",
          "type": "address"
        }
      ],
      "name": "transferOwnership",
      "outputs": [],
      "stateMutability": "nonpayable",
      "type": "function"
    },
    {
      "inputs": [
        {
          "internalType": "address",
          "name": "tokenContract",
          "type": "address"
        },
        {
          "internalType": "address",
          "name": "to",
          "type": "address"
        },
        {
          "internalType": "uint256",
          "name": "amount",
          "type": "uint256"
        }
      ],
      "name": "withdrawTokens",
      "outputs": [],
      "stateMutability": "nonpayable",
      "type": "function"
    }
  ],
  "bytecode": "0x60a06040523480156200001157600080fd5b50604051620025dd380380620025dd833981810160405260208110156200003757600080fd5b8101908080519060200190929190505050620000686200005c6200019c60201b60201c565b620001a460201b60201c565b600073ffffffffffffffffffffffffffffffffffffffff168173ffffffffffffffffffffffffffffffffffffffff1614156040518060600160405280603a8152602001620025a3603a9139906200015d576040517f08c379a00000000000000000000000000000000000000000000000000000000081526004018080602001828103825283818151815260200191508051906020019080838360005b838110156200012157808201518184015260208101905062000104565b50505050905090810190601f1680156200014f5780820380516001836020036101000a031916815260200191505b509250505060405180910390fd5b508073ffffffffffffffffffffffffffffffffffffffff1660808173ffffffffffffffffffffffffffffffffffffffff1660601b815250505062000268565b600033905090565b60008060009054906101000a900473ffffffffffffffffffffffffffffffffffffffff169050816000806101000a81548173ffffffffffffffffffffffffffffffffffffffff021916908373ffffffffffffffffffffffffffffffffffffffff1602179055508173ffffffffffffffffffffffffffffffffffffffff168173ffffffffffffffffffffffffffffffffffffffff167f8be0079c531659141344cd1fd0a4f28419497f9722a3daafe3b4186f6b6457e060405160405180910390a35050565b60805160601c6123186200028b6000398061057c5280610f2452506123186000f3fe608060405234801561001057600080fd5b506004361061007d5760003560e01c80637b04c1811161005b5780637b04c1811461026d578063875c7ecf146102a15780638da5cb5b146102c5578063f2fde38b146102f95761007d565b806301358f9e14610082578063564a5158146100a65780635e35359e146101ff575b600080fd5b61008a61033d565b604051808263ffffffff16815260200191505060405180910390f35b610172600480360360408110156100bc57600080fd5b81019080803590602001906401000000008111156100d957600080fd5b8201836020820111156100eb57600080fd5b8035906020019184600183028401116401000000008311171561010d57600080fd5b90919293919293908035906020019064010000000081111561012e57600080fd5b82018360208201111561014057600080fd5b8035906020019184600183028401116401000000008311171561016257600080fd5b9091929391929390505050610342565b604051808415158152602001831515815260200180602001828103825283818151815260200191508051906020019080838360005b838110156101c25780820151818401526020810190506101a7565b50505050905090810190601f1680156101ef5780820380516001836020036101000a031916815260200191505b5094505050505060405180910390f35b61026b6004803603606081101561021557600080fd5b81019080803573ffffffffffffffffffffffffffffffffffffffff169060200190929190803573ffffffffffffffffffffffffffffffffffffffff16906020019092919080359060200190929190505050610998565b005b610275610f22565b604051808273ffffffffffffffffffffffffffffffffffffffff16815260200191505060405180910390f35b6102a9610f46565b604051808263ffffffff16815260200191505060405180910390f35b6102cd610f4b565b604051808273ffffffffffffffffffffffffffffffffffffffff16815260200191505060405180910390f35b61033b6004803603602081101561030f57600080fd5b81019080803573ffffffffffffffffffffffffffffffffffffffff169060200190929190505050610f74565b005b600181565b600080606061034f61100e565b60006103a9600089898080601f016020809104026020016040519081016040528093929190818152602001838380828437600081840152601f19601f820116905080830192505050505050506110bf90919063ffffffff16565b90506103b4816110ea565b600163ffffffff166103c582611204565b63ffffffff16146040518060600160405280602a8152602001612184602a91399061048b576040517f08c379a00000000000000000000000000000000000000000000000000000000081526004018080602001828103825283818151815260200191508051906020019080838360005b83811015610450578082015181840152602081019050610435565b50505050905090810190601f16801561047d5780820380516001836020036101000a031916815260200191505b509250505060405180910390fd5b5060006104978261122d565b90506104a28161127a565b600163ffffffff166104b382611394565b63ffffffff16146040518060600160405280602f8152602001612085602f913990610579576040517f08c379a00000000000000000000000000000000000000000000000000000000081526004018080602001828103825283818151815260200191508051906020019080838360005b8381101561053e578082015181840152602081019050610523565b50505050905090810190601f16801561056b5780820380516001836020036101000a031916815260200191505b509250505060405180910390fd5b507f000000000000000000000000000000000000000000000000000000000000000073ffffffffffffffffffffffffffffffffffffffff166357ecfd288a8a8a8a6040518563ffffffff1660e01b81526004018080602001806020018381038352878782818152602001925080828437600081840152601f19601f8201169050808301925050508381038252858582818152602001925080828437600081840152601f19601f8201169050808301925050509650505050505050602060405180830381600087803b15801561064d57600080fd5b505af1158015610661573d6000803e3d6000fd5b505050506040513d602081101561067757600080fd5b81019080805190602001909291905050509450846040518060600160405280602981526020016121ae602991399061074a576040517f08c379a00000000000000000000000000000000000000000000000000000000081526004018080602001828103825283818151815260200191508051906020019080838360005b8381101561070f5780820151818401526020810190506106f4565b50505050905090810190601f16801561073c5780820380516001836020036101000a031916815260200191505b509250505060405180910390fd5b506000610756826113ac565b90506107678162ffffff19166113f9565b1561098a57600061077d8262ffffff191661143c565b6bffffffffffffffffffffffff169050601481106109845760006107b160008462ffffff191661146290919063ffffffff16565b905060006107e26107d76014850360008762ffffff19166114789092919063ffffffff16565b62ffffff19166114b7565b905060006107ef866114fe565b60001c905060006107ff87611516565b90508173ffffffffffffffffffffffffffffffffffffffff1663a9059cbb85836040518363ffffffff1660e01b8152600401808373ffffffffffffffffffffffffffffffffffffffff16815260200182815260200192505050602060405180830381600087803b15801561087257600080fd5b505af1158015610886573d6000803e3d6000fd5b505050506040513d602081101561089c57600080fd5b81019080805190602001909291905050506040518060600160405280602881526020016120da602891399061096c576040517f08c379a00000000000000000000000000000000000000000000000000000000081526004018080602001828103825283818151815260200191508051906020019080838360005b83811015610931578082015181840152602081019050610916565b50505050905090810190601f16801561095e5780820380516001836020036101000a031916815260200191505b509250505060405180910390fd5b50610977848461152e565b809a50819b505050505050505b5061098b565b5b5050509450945094915050565b6109a061100e565b600073ffffffffffffffffffffffffffffffffffffffff168273ffffffffffffffffffffffffffffffffffffffff1614156040518060600160405280602c81526020016122b7602c913990610a90576040517f08c379a00000000000000000000000000000000000000000000000000000000081526004018080602001828103825283818151815260200191508051906020019080838360005b83811015610a55578082015181840152602081019050610a3a565b50505050905090810190601f168015610a825780820380516001836020036101000a031916815260200191505b509250505060405180910390fd5b50600073ffffffffffffffffffffffffffffffffffffffff168373ffffffffffffffffffffffffffffffffffffffff16141560405180606001604052806028815260200161225a6028913990610b81576040517f08c379a00000000000000000000000000000000000000000000000000000000081526004018080602001828103825283818151815260200191508051906020019080838360005b83811015610b46578082015181840152602081019050610b2b565b50505050905090810190601f168015610b735780820380516001836020036101000a031916815260200191505b509250505060405180910390fd5b50600081116040518060600160405280603081526020016121d76030913990610c45576040517f08c379a00000000000000000000000000000000000000000000000000000000081526004018080602001828103825283818151815260200191508051906020019080838360005b83811015610c0a578082015181840152602081019050610bef565b50505050905090810190601f168015610c375780820380516001836020036101000a031916815260200191505b509250505060405180910390fd5b5060008373ffffffffffffffffffffffffffffffffffffffff166370a08231306040518263ffffffff1660e01b8152600401808273ffffffffffffffffffffffffffffffffffffffff16815260200191505060206040518083038186803b158015610caf57600080fd5b505afa158015610cc3573d6000803e3d6000fd5b505050506040513d6020811015610cd957600080fd5b810190808051906020019092919050505090508181101560405180606001604052806027815260200161215d6027913990610daf576040517f08c379a00000000000000000000000000000000000000000000000000000000081526004018080602001828103825283818151815260200191508051906020019080838360005b83811015610d74578082015181840152602081019050610d59565b50505050905090810190601f168015610da15780820380516001836020036101000a031916815260200191505b509250505060405180910390fd5b508373ffffffffffffffffffffffffffffffffffffffff1663a9059cbb84846040518363ffffffff1660e01b8152600401808373ffffffffffffffffffffffffffffffffffffffff16815260200182815260200192505050602060405180830381600087803b158015610e2157600080fd5b505af1158015610e35573d6000803e3d6000fd5b505050506040513d6020811015610e4b57600080fd5b81019080805190602001909291905050506040518060600160405280602881526020016120da6028913990610f1b576040517f08c379a00000000000000000000000000000000000000000000000000000000081526004018080602001828103825283818151815260200191508051906020019080838360005b83811015610ee0578082015181840152602081019050610ec5565b50505050905090810190601f168015610f0d5780820380516001836020036101000a031916815260200191505b509250505060405180910390fd5b5050505050565b7f000000000000000000000000000000000000000000000000000000000000000081565b600181565b60008060009054906101000a900473ffffffffffffffffffffffffffffffffffffffff16905090565b610f7c61100e565b600073ffffffffffffffffffffffffffffffffffffffff168173ffffffffffffffffffffffffffffffffffffffff161415611002576040517f08c379a00000000000000000000000000000000000000000000000000000000081526004018080602001828103825260268152602001806120b46026913960400191505060405180910390fd5b61100b816115f4565b50565b6110166116b8565b73ffffffffffffffffffffffffffffffffffffffff16611034610f4b565b73ffffffffffffffffffffffffffffffffffffffff16146110bd576040517f08c379a00000000000000000000000000000000000000000000000000000000081526004018080602001828103825260208152602001807f4f776e61626c653a2063616c6c6572206973206e6f7420746865206f776e657281525060200191505060405180910390fd5b565b6000808351905060006020850190506110e08464ffffffffff1682846116c0565b9250505092915050565b6110f98162ffffff19166113f9565b61116b576040517f08c379a00000000000000000000000000000000000000000000000000000000081526004018080602001828103825260118152602001807f4d616c666f726d6564206d65737361676500000000000000000000000000000081525060200191505060405180910390fd5b609460ff1661117f8262ffffff191661143c565b6bffffffffffffffffffffffff161015611201576040517f08c379a000000000000000000000000000000000000000000000000000000000815260040180806020018281038252601a8152602001807f496e76616c6964206d6573736167653a20746f6f2073686f727400000000000081525060200191505060405180910390fd5b50565b6000611226600060ff1660048462ffffff191661172f9092919063ffffffff16565b9050919050565b6000611273609460ff16609460ff1661124b8562ffffff191661143c565b036bffffffffffffffffffffffff1660008562ffffff1916611754909392919063ffffffff16565b9050919050565b6112898162ffffff19166113f9565b6112fb576040517f08c379a00000000000000000000000000000000000000000000000000000000081526004018080602001828103825260118152602001807f4d616c666f726d6564206d65737361676500000000000000000000000000000081525060200191505060405180910390fd5b60e460ff1661130f8262ffffff191661143c565b6bffffffffffffffffffffffff161015611391576040517f08c379a000000000000000000000000000000000000000000000000000000000815260040180806020018281038252601f8152602001807f496e76616c6964206275726e206d6573736167653a20746f6f2073686f72740081525060200191505060405180910390fd5b50565b60006113a58262ffffff1916611800565b9050919050565b60006113f260e460ff1660e460ff166113ca8562ffffff191661143c565b036bffffffffffffffffffffffff1660008562ffffff1916611754909392919063ffffffff16565b9050919050565b600064ffffffffff61140a83611829565b64ffffffffff1614156114205760009050611437565b600061142b8361183e565b90506040518111159150505b919050565b6000806bffffffffffffffffffffffff90506000601890508184821c1692505050919050565b60006114708383601461172f565b905092915050565b60006114ae846114a78561148b8861143c565b6bffffffffffffffffffffffff1661186890919063ffffffff16565b8585611754565b90509392505050565b60606000806114c58461143c565b6bffffffffffffffffffffffff16905060405191508192506114ea84602084016118eb565b506020818301016040528082525050919050565b600061150f8262ffffff1916611a98565b9050919050565b60006115278262ffffff1916611ac1565b9050919050565b600060608373ffffffffffffffffffffffffffffffffffffffff16836040518082805190602001908083835b6020831061157d578051825260208201915060208101905060208303925061155a565b6001836020036101000a0380198251168184511680821785525050505050509050019150506000604051808303816000865af19150503d80600081146115df576040519150601f19603f3d011682016040523d82523d6000602084013e6115e4565b606091505b5080925081935050509250929050565b60008060009054906101000a900473ffffffffffffffffffffffffffffffffffffffff169050816000806101000a81548173ffffffffffffffffffffffffffffffffffffffff021916908373ffffffffffffffffffffffffffffffffffffffff1602179055508173ffffffffffffffffffffffffffffffffffffffff168173ffffffffffffffffffffffffffffffffffffffff167f8be0079c531659141344cd1fd0a4f28419497f9722a3daafe3b4186f6b6457e060405160405180910390a35050565b600033905090565b6000806116d68385611aea90919063ffffffff16565b90506040518111156116e757600090505b6000811415611719577fffffffffffffffffffffffffffffffffffffffffffffffffffffffffff000000915050611728565b611724858585611b6d565b9150505b9392505050565b60006008826020030260ff16611746858585611b98565b60001c901c90509392505050565b60008061176086611d5f565b6bffffffffffffffffffffffff1690506117798661183e565b61179e856117908885611aea90919063ffffffff16565b611aea90919063ffffffff16565b11156117cd577fffffffffffffffffffffffffffffffffffffffffffffffffffffffffff0000009150506117f8565b6117e08582611aea90919063ffffffff16565b90506117f48364ffffffffff1682866116c0565b9150505b949350505050565b6000611822600060ff1660048462ffffff191661172f9092919063ffffffff16565b9050919050565b60008060d860ff16905082811c915050919050565b60006118498261143c565b61185283611d5f565b016bffffffffffffffffffffffff169050919050565b6000828211156118e0576040517f08c379a000000000000000000000000000000000000000000000000000000000815260040180806020018281038252601d8152602001807f556e646572666c6f7720647572696e67207375627472616374696f6e2e00000081525060200191505060405180910390fd5b818303905092915050565b60006118f683611d88565b61194b576040517f08c379a00000000000000000000000000000000000000000000000000000000081526004018080602001828103825260288152602001806122076028913960400191505060405180910390fd5b611954836113f9565b6119a9576040517f08c379a000000000000000000000000000000000000000000000000000000000815260040180806020018281038252602b81526020018061222f602b913960400191505060405180910390fd5b60006119b48461143c565b6bffffffffffffffffffffffff16905060006119cf85611d5f565b6bffffffffffffffffffffffff1690506000806040519150858211156119f55760206060fd5b8386858560045afa905080611a72576040517f08c379a000000000000000000000000000000000000000000000000000000000815260040180806020018281038252600c8152602001807f6964656e74697479204f4f47000000000000000000000000000000000000000081525060200191505060405180910390fd5b611a8c611a7e88611829565b64ffffffffff168786611b6d565b94505050505092915050565b6000611aba600460ff1660208462ffffff1916611b989092919063ffffffff16565b9050919050565b6000611ae3604460ff1660208462ffffff191661172f9092919063ffffffff16565b9050919050565b6000818301905082811015611b67576040517f08c379a00000000000000000000000000000000000000000000000000000000081526004018080602001828103825260198152602001807f4f766572666c6f7720647572696e67206164646974696f6e2e0000000000000081525060200191505060405180910390fd5b92915050565b60008060609050600060189050858317821b9250848317821b9250838317811b925050509392505050565b6000808260ff161415611bb0576000801b9050611d58565b611bb98461143c565b6bffffffffffffffffffffffff16611bdd8360ff1685611aea90919063ffffffff16565b1115611cbf57611c1e611bef85611d5f565b6bffffffffffffffffffffffff16611c068661143c565b6bffffffffffffffffffffffff16858560ff16611d9b565b6040517f08c379a00000000000000000000000000000000000000000000000000000000081526004018080602001828103825283818151815260200191508051906020019080838360005b83811015611c84578082015181840152602081019050611c69565b50505050905090810190601f168015611cb15780820380516001836020036101000a031916815260200191505b509250505060405180910390fd5b60208260ff161115611d1c576040517f08c379a000000000000000000000000000000000000000000000000000000000815260040180806020018281038252603a815260200180612123603a913960400191505060405180910390fd5b60006008830290506000611d2f86611d5f565b6bffffffffffffffffffffffff1690506000611d4a83611ed5565b905080868301511693505050505b9392505050565b6000806bffffffffffffffffffffffff90506000607860ff1690508184821c1692505050919050565b6000611d9382611f04565b159050919050565b60606000611da886611f3c565b9150506000611db686611f3c565b9150506000611dc486611f3c565b9150506000611dd286611f3c565b915050838383836040516020018080612282603591396035018565ffffffffffff1660d01b8152600601807f2077697468206c656e6774682030780000000000000000000000000000000000815250600f018465ffffffffffff1660d01b815260060180612102602191396021018365ffffffffffff1660d01b8152600601807f2077697468206c656e6774682030780000000000000000000000000000000000815250600f018265ffffffffffff1660d01b8152600601807f2e00000000000000000000000000000000000000000000000000000000000000815250600101945050505050604051602081830303815290604052945050505050949350505050565b60007f8000000000000000000000000000000000000000000000000000000000000000600183031d9050919050565b60007fffffffffffffffffffffffffffffffffffffffffffffffffffffffffff00000062ffffff19168262ffffff1916149050919050565b6000806000601f90505b600f8160ff161115611f905760006008820260ff1685901c9050611f6981611fe8565b61ffff168417935060108260ff1614611f8457601084901b93505b50600181039050611f46565b506000600f90505b60ff8160ff161015611fe25760006008820260ff1685901c9050611fbb81611fe8565b61ffff168317925060008260ff1614611fd657601083901b92505b50600181039050611f98565b50915091565b6000611ffa60048360ff16901c612021565b60ff168117905060088161ffff16901b905061201582612021565b60ff1681179050919050565b600080600f831690506040518060400160405280601081526020017f30313233343536373839616263646566000000000000000000000000000000008152508160ff168151811061206e57fe5b602001015160f81c60f81b60f81c91505091905056fe43435450486f6f6b5772617070657256323a20496e76616c6964206d65737361676520626f64792076657273696f6e4f776e61626c653a206e6577206f776e657220697320746865207a65726f206164647265737343435450486f6f6b5772617070657256323a20546f6b656e207472616e73666572206661696c65642e20417474656d7074656420746f20696e646578206174206f666673657420307854797065644d656d566965772f696e646578202d20417474656d7074656420746f20696e646578206d6f7265207468616e20333220627974657343435450486f6f6b5772617070657256323a20496e73756666696369656e742062616c616e636543435450486f6f6b5772617070657256323a20496e76616c6964206d6573736167652076657273696f6e43435450486f6f6b5772617070657256323a2052656365697665206d657373616765206661696c656443435450486f6f6b5772617070657256323a20416d6f756e74206d7573742062652067726561746572207468616e203054797065644d656d566965772f636f7079546f202d204e756c6c20706f696e74657220646572656654797065644d656d566965772f636f7079546f202d20496e76616c696420706f696e74657220646572656643435450486f6f6b5772617070657256323a20496e76616c696420746f6b656e206164647265737354797065644d656d566965772f696e646578202d204f76657272616e2074686520766965772e20536c69636520697320617420307843435450486f6f6b5772617070657256323a20496e76616c696420726563697069656e742061646472657373a2646970667358221220682a259d6eeac4173153e3cc09295623bfa24b16fdae0c1c2f84192b56d3f4d064736f6c6343000706003343435450486f6f6b5772617070657256323a204d657373616765207472616e736d697474657220697320746865207a65726f2061646472657373",
  "linkReferences": {},
  "deployedLinkReferences": {}
}