{
  "_format": "hh-sol-artifact-1",
  "contractName": "CCTPHookWrapperV2",
  "sourceName": "contracts/core/CCTPHookWrapperV2.sol",
  "abi": [
    {
      "inputs": [
        {
          "internalType": "address",
          "name": "_messageTransmitter",
          "type": "address"
        }
      ],
      "stateMutability": "nonpayable",
      "type": "constructor"
    },
    {
      "anonymous": false,
      "inputs": [
        {
          "indexed": true,
          "internalType": "address",
          "name": "employee",
          "type": "address"
        },
        {
          "indexed": false,
          "internalType": "address",
          "name": "token",
          "type": "address"
        },
        {
          "indexed": false,
          "internalType": "uint256",
          "name": "amount",
          "type": "uint256"
        },
        {
          "indexed": false,
          "internalType": "uint32",
          "name": "destinationDomain",
          "type": "uint32"
        }
      ],
      "name": "MessageReceived",
      "type": "event"
    },
    {
      "anonymous": false,
      "inputs": [
        {
          "indexed": true,
          "internalType": "address",
          "name": "previousOwner",
          "type": "address"
        },
        {
          "indexed": true,
          "internalType": "address",
          "name": "newOwner",
          "type": "address"
        }
      ],
      "name": "OwnershipTransferred",
      "type": "event"
    },
    {
      "inputs": [],
      "name": "messageTransmitter",
      "outputs": [
        {
          "internalType": "contract IReceiverV2",
          "name": "",
          "type": "address"
        }
      ],
      "stateMutability": "view",
      "type": "function"
    },
    {
      "inputs": [],
      "name": "owner",
      "outputs": [
        {
          "internalType": "address",
          "name": "",
          "type": "address"
        }
      ],
      "stateMutability": "view",
      "type": "function"
    },
    {
      "inputs": [
        {
          "internalType": "bytes",
          "name": "message",
          "type": "bytes"
        },
        {
          "internalType": "bytes",
          "name": "attestation",
          "type": "bytes"
        }
      ],
      "name": "relay",
      "outputs": [
        {
          "internalType": "bool",
          "name": "relaySuccess",
          "type": "bool"
        },
        {
          "internalType": "bool",
          "name": "hookSuccess",
          "type": "bool"
        },
        {
          "internalType": "bytes",
          "name": "hookReturnData",
          "type": "bytes"
        }
      ],
      "stateMutability": "nonpayable",
      "type": "function"
    },
    {
      "inputs": [],
      "name": "supportedMessageBodyVersion",
      "outputs": [
        {
          "internalType": "uint32",
          "name": "",
          "type": "uint32"
        }
      ],
      "stateMutability": "view",
      "type": "function"
    },
    {
      "inputs": [],
      "name": "supportedMessageVersion",
      "outputs": [
        {
          "internalType": "uint32",
          "name": "",
          "type": "uint32"
        }
      ],
      "stateMutability": "view",
      "type": "function"
    },
    {
      "inputs": [
        {
          "internalType": "address",
          "name": "newOwner",
          "type": "address"
        }
      ],
      "name": "transferOwnership",
      "outputs": [],
      "stateMutability": "nonpayable",
      "type": "function"
    },
    {
      "inputs": [
        {
          "internalType": "address",
          "name": "tokenContract",
          "type": "address"
        },
        {
          "internalType": "address",
          "name": "to",
          "type": "address"
        },
        {
          "internalType": "uint256",
          "name": "amount",
          "type": "uint256"
        }
      ],
      "name": "withdrawTokens",
      "outputs": [],
      "stateMutability": "nonpayable",
      "type": "function"
    }
  ],
  "bytecode": "0x60a06040523480156200001157600080fd5b50604051620026e7380380620026e7833981810160405260208110156200003757600080fd5b8101908080519060200190929190505050620000686200005c6200019c60201b60201c565b620001a460201b60201c565b600073ffffffffffffffffffffffffffffffffffffffff168173ffffffffffffffffffffffffffffffffffffffff1614156040518060600160405280603a8152602001620026ad603a9139906200015d576040517f08c379a00000000000000000000000000000000000000000000000000000000081526004018080602001828103825283818151815260200191508051906020019080838360005b838110156200012157808201518184015260208101905062000104565b50505050905090810190601f1680156200014f5780820380516001836020036101000a031916815260200191505b509250505060405180910390fd5b508073ffffffffffffffffffffffffffffffffffffffff1660808173ffffffffffffffffffffffffffffffffffffffff1660601b815250505062000268565b600033905090565b60008060009054906101000a900473ffffffffffffffffffffffffffffffffffffffff169050816000806101000a81548173ffffffffffffffffffffffffffffffffffffffff021916908373ffffffffffffffffffffffffffffffffffffffff1602179055508173ffffffffffffffffffffffffffffffffffffffff168173ffffffffffffffffffffffffffffffffffffffff167f8be0079c531659141344cd1fd0a4f28419497f9722a3daafe3b4186f6b6457e060405160405180910390a35050565b60805160601c6124226200028b6000398061057c5280610fc452506124226000f3fe608060405234801561001057600080fd5b506004361061007d5760003560e01c80637b04c1811161005b5780637b04c1811461026d578063875c7ecf146102a15780638da5cb5b146102c5578063f2fde38b146102f95761007d565b806301358f9e14610082578063564a5158146100a65780635e35359e146101ff575b600080fd5b61008a61033d565b604051808263ffffffff16815260200191505060405180910390f35b610172600480360360408110156100bc57600080fd5b81019080803590602001906401000000008111156100d957600080fd5b8201836020820111156100eb57600080fd5b8035906020019184600183028401116401000000008311171561010d57600080fd5b90919293919293908035906020019064010000000081111561012e57600080fd5b82018360208201111561014057600080fd5b8035906020019184600183028401116401000000008311171561016257600080fd5b9091929391929390505050610342565b604051808415158152602001831515815260200180602001828103825283818151815260200191508051906020019080838360005b838110156101c25780820151818401526020810190506101a7565b50505050905090810190601f1680156101ef5780820380516001836020036101000a031916815260200191505b5094505050505060405180910390f35b61026b6004803603606081101561021557600080fd5b81019080803573ffffffffffffffffffffffffffffffffffffffff169060200190929190803573ffffffffffffffffffffffffffffffffffffffff16906020019092919080359060200190929190505050610a38565b005b610275610fc2565b604051808273ffffffffffffffffffffffffffffffffffffffff16815260200191505060405180910390f35b6102a9610fe6565b604051808263ffffffff16815260200191505060405180910390f35b6102cd610feb565b604051808273ffffffffffffffffffffffffffffffffffffffff16815260200191505060405180910390f35b61033b6004803603602081101561030f57600080fd5b81019080803573ffffffffffffffffffffffffffffffffffffffff169060200190929190505050611014565b005b600181565b600080606061034f6110ae565b60006103a9600089898080601f016020809104026020016040519081016040528093929190818152602001838380828437600081840152601f19601f8201169050808301925050505050505061115f90919063ffffffff16565b90506103b48161118a565b600163ffffffff166103c5826112a4565b63ffffffff16146040518060600160405280602a815260200161228e602a91399061048b576040517f08c379a00000000000000000000000000000000000000000000000000000000081526004018080602001828103825283818151815260200191508051906020019080838360005b83811015610450578082015181840152602081019050610435565b50505050905090810190601f16801561047d5780820380516001836020036101000a031916815260200191505b509250505060405180910390fd5b506000610497826112cd565b90506104a28161131a565b600163ffffffff166104b382611434565b63ffffffff16146040518060600160405280602f815260200161218f602f913990610579576040517f08c379a00000000000000000000000000000000000000000000000000000000081526004018080602001828103825283818151815260200191508051906020019080838360005b8381101561053e578082015181840152602081019050610523565b50505050905090810190601f16801561056b5780820380516001836020036101000a031916815260200191505b509250505060405180910390fd5b507f000000000000000000000000000000000000000000000000000000000000000073ffffffffffffffffffffffffffffffffffffffff166357ecfd288a8a8a8a6040518563ffffffff1660e01b81526004018080602001806020018381038352878782818152602001925080828437600081840152601f19601f8201169050808301925050508381038252858582818152602001925080828437600081840152601f19601f8201169050808301925050509650505050505050602060405180830381600087803b15801561064d57600080fd5b505af1158015610661573d6000803e3d6000fd5b505050506040513d602081101561067757600080fd5b81019080805190602001909291905050509450846040518060600160405280602981526020016122b8602991399061074a576040517f08c379a00000000000000000000000000000000000000000000000000000000081526004018080602001828103825283818151815260200191508051906020019080838360005b8381101561070f5780820151818401526020810190506106f4565b50505050905090810190601f16801561073c5780820380516001836020036101000a031916815260200191505b509250505060405180910390fd5b506107548161144c565b60001c73ffffffffffffffffffffffffffffffffffffffff167f6041979bc0aecbe261eeac58bfe921bbe6d788affab5904a002dad149bc544f261079783611464565b60001c6107a38461147c565b6107ac86611494565b604051808473ffffffffffffffffffffffffffffffffffffffff1681526020018381526020018263ffffffff168152602001935050505060405180910390a260006107f6826114bd565b90506108078162ffffff191661150a565b15610a2a57600061081d8262ffffff191661154d565b6bffffffffffffffffffffffff16905060148110610a2457600061085160008462ffffff191661157390919063ffffffff16565b905060006108826108776014850360008762ffffff19166115899092919063ffffffff16565b62ffffff19166115c8565b9050600061088f86611464565b60001c9050600061089f8761147c565b90508173ffffffffffffffffffffffffffffffffffffffff1663a9059cbb85836040518363ffffffff1660e01b8152600401808373ffffffffffffffffffffffffffffffffffffffff16815260200182815260200192505050602060405180830381600087803b15801561091257600080fd5b505af1158015610926573d6000803e3d6000fd5b505050506040513d602081101561093c57600080fd5b81019080805190602001909291905050506040518060600160405280602881526020016121e46028913990610a0c576040517f08c379a00000000000000000000000000000000000000000000000000000000081526004018080602001828103825283818151815260200191508051906020019080838360005b838110156109d15780820151818401526020810190506109b6565b50505050905090810190601f1680156109fe5780820380516001836020036101000a031916815260200191505b509250505060405180910390fd5b50610a17848461160f565b809a50819b505050505050505b50610a2b565b5b5050509450945094915050565b610a406110ae565b600073ffffffffffffffffffffffffffffffffffffffff168273ffffffffffffffffffffffffffffffffffffffff1614156040518060600160405280602c81526020016123c1602c913990610b30576040517f08c379a00000000000000000000000000000000000000000000000000000000081526004018080602001828103825283818151815260200191508051906020019080838360005b83811015610af5578082015181840152602081019050610ada565b50505050905090810190601f168015610b225780820380516001836020036101000a031916815260200191505b509250505060405180910390fd5b50600073ffffffffffffffffffffffffffffffffffffffff168373ffffffffffffffffffffffffffffffffffffffff1614156040518060600160405280602881526020016123646028913990610c21576040517f08c379a00000000000000000000000000000000000000000000000000000000081526004018080602001828103825283818151815260200191508051906020019080838360005b83811015610be6578082015181840152602081019050610bcb565b50505050905090810190601f168015610c135780820380516001836020036101000a031916815260200191505b509250505060405180910390fd5b50600081116040518060600160405280603081526020016122e16030913990610ce5576040517f08c379a00000000000000000000000000000000000000000000000000000000081526004018080602001828103825283818151815260200191508051906020019080838360005b83811015610caa578082015181840152602081019050610c8f565b50505050905090810190601f168015610cd75780820380516001836020036101000a031916815260200191505b509250505060405180910390fd5b5060008373ffffffffffffffffffffffffffffffffffffffff166370a08231306040518263ffffffff1660e01b8152600401808273ffffffffffffffffffffffffffffffffffffffff16815260200191505060206040518083038186803b158015610d4f57600080fd5b505afa158015610d63573d6000803e3d6000fd5b505050506040513d6020811015610d7957600080fd5b81019080805190602001909291905050509050818110156040518060600160405280602781526020016122676027913990610e4f576040517f08c379a00000000000000000000000000000000000000000000000000000000081526004018080602001828103825283818151815260200191508051906020019080838360005b83811015610e14578082015181840152602081019050610df9565b50505050905090810190601f168015610e415780820380516001836020036101000a031916815260200191505b509250505060405180910390fd5b508373ffffffffffffffffffffffffffffffffffffffff1663a9059cbb84846040518363ffffffff1660e01b8152600401808373ffffffffffffffffffffffffffffffffffffffff16815260200182815260200192505050602060405180830381600087803b158015610ec157600080fd5b505af1158015610ed5573d6000803e3d6000fd5b505050506040513d6020811015610eeb57600080fd5b81019080805190602001909291905050506040518060600160405280602881526020016121e46028913990610fbb576040517f08c379a00000000000000000000000000000000000000000000000000000000081526004018080602001828103825283818151815260200191508051906020019080838360005b83811015610f80578082015181840152602081019050610f65565b50505050905090810190601f168015610fad5780820380516001836020036101000a031916815260200191505b509250505060405180910390fd5b5050505050565b7f000000000000000000000000000000000000000000000000000000000000000081565b600181565b60008060009054906101000a900473ffffffffffffffffffffffffffffffffffffffff16905090565b61101c6110ae565b600073ffffffffffffffffffffffffffffffffffffffff168173ffffffffffffffffffffffffffffffffffffffff1614156110a2576040517f08c379a00000000000000000000000000000000000000000000000000000000081526004018080602001828103825260268152602001806121be6026913960400191505060405180910390fd5b6110ab816116d5565b50565b6110b6611799565b73ffffffffffffffffffffffffffffffffffffffff166110d4610feb565b73ffffffffffffffffffffffffffffffffffffffff161461115d576040517f08c379a00000000000000000000000000000000000000000000000000000000081526004018080602001828103825260208152602001807f4f776e61626c653a2063616c6c6572206973206e6f7420746865206f776e657281525060200191505060405180910390fd5b565b6000808351905060006020850190506111808464ffffffffff1682846117a1565b9250505092915050565b6111998162ffffff191661150a565b61120b576040517f08c379a00000000000000000000000000000000000000000000000000000000081526004018080602001828103825260118152602001807f4d616c666f726d6564206d65737361676500000000000000000000000000000081525060200191505060405180910390fd5b609460ff1661121f8262ffffff191661154d565b6bffffffffffffffffffffffff1610156112a1576040517f08c379a000000000000000000000000000000000000000000000000000000000815260040180806020018281038252601a8152602001807f496e76616c6964206d6573736167653a20746f6f2073686f727400000000000081525060200191505060405180910390fd5b50565b60006112c6600060ff1660048462ffffff19166118109092919063ffffffff16565b9050919050565b6000611313609460ff16609460ff166112eb8562ffffff191661154d565b036bffffffffffffffffffffffff1660008562ffffff1916611835909392919063ffffffff16565b9050919050565b6113298162ffffff191661150a565b61139b576040517f08c379a00000000000000000000000000000000000000000000000000000000081526004018080602001828103825260118152602001807f4d616c666f726d6564206d65737361676500000000000000000000000000000081525060200191505060405180910390fd5b60e460ff166113af8262ffffff191661154d565b6bffffffffffffffffffffffff161015611431576040517f08c379a000000000000000000000000000000000000000000000000000000000815260040180806020018281038252601f8152602001807f496e76616c6964206275726e206d6573736167653a20746f6f2073686f72740081525060200191505060405180910390fd5b50565b60006114458262ffffff19166118e1565b9050919050565b600061145d8262ffffff191661190a565b9050919050565b60006114758262ffffff1916611933565b9050919050565b600061148d8262ffffff191661195c565b9050919050565b60006114b6600860ff1660048462ffffff19166118109092919063ffffffff16565b9050919050565b600061150360e460ff1660e460ff166114db8562ffffff191661154d565b036bffffffffffffffffffffffff1660008562ffffff1916611835909392919063ffffffff16565b9050919050565b600064ffffffffff61151b83611985565b64ffffffffff1614156115315760009050611548565b600061153c8361199a565b90506040518111159150505b919050565b6000806bffffffffffffffffffffffff90506000601890508184821c1692505050919050565b600061158183836014611810565b905092915050565b60006115bf846115b88561159c8861154d565b6bffffffffffffffffffffffff166119c490919063ffffffff16565b8585611835565b90509392505050565b60606000806115d68461154d565b6bffffffffffffffffffffffff16905060405191508192506115fb8460208401611a47565b506020818301016040528082525050919050565b600060608373ffffffffffffffffffffffffffffffffffffffff16836040518082805190602001908083835b6020831061165e578051825260208201915060208101905060208303925061163b565b6001836020036101000a0380198251168184511680821785525050505050509050019150506000604051808303816000865af19150503d80600081146116c0576040519150601f19603f3d011682016040523d82523d6000602084013e6116c5565b606091505b5080925081935050509250929050565b60008060009054906101000a900473ffffffffffffffffffffffffffffffffffffffff169050816000806101000a81548173ffffffffffffffffffffffffffffffffffffffff021916908373ffffffffffffffffffffffffffffffffffffffff1602179055508173ffffffffffffffffffffffffffffffffffffffff168173ffffffffffffffffffffffffffffffffffffffff167f8be0079c531659141344cd1fd0a4f28419497f9722a3daafe3b4186f6b6457e060405160405180910390a35050565b600033905090565b6000806117b78385611bf490919063ffffffff16565b90506040518111156117c857600090505b60008114156117fa577fffffffffffffffffffffffffffffffffffffffffffffffffffffffffff000000915050611809565b611805858585611c77565b9150505b9392505050565b60006008826020030260ff16611827858585611ca2565b60001c901c90509392505050565b60008061184186611e69565b6bffffffffffffffffffffffff16905061185a8661199a565b61187f856118718885611bf490919063ffffffff16565b611bf490919063ffffffff16565b11156118ae577fffffffffffffffffffffffffffffffffffffffffffffffffffffffffff0000009150506118d9565b6118c18582611bf490919063ffffffff16565b90506118d58364ffffffffff1682866117a1565b9150505b949350505050565b6000611903600060ff1660048462ffffff19166118109092919063ffffffff16565b9050919050565b600061192c602460ff1660208462ffffff1916611ca29092919063ffffffff16565b9050919050565b6000611955600460ff1660208462ffffff1916611ca29092919063ffffffff16565b9050919050565b600061197e604460ff1660208462ffffff19166118109092919063ffffffff16565b9050919050565b60008060d860ff16905082811c915050919050565b60006119a58261154d565b6119ae83611e69565b016bffffffffffffffffffffffff169050919050565b600082821115611a3c576040517f08c379a000000000000000000000000000000000000000000000000000000000815260040180806020018281038252601d8152602001807f556e646572666c6f7720647572696e67207375627472616374696f6e2e00000081525060200191505060405180910390fd5b818303905092915050565b6000611a5283611e92565b611aa7576040517f08c379a00000000000000000000000000000000000000000000000000000000081526004018080602001828103825260288152602001806123116028913960400191505060405180910390fd5b611ab08361150a565b611b05576040517f08c379a000000000000000000000000000000000000000000000000000000000815260040180806020018281038252602b815260200180612339602b913960400191505060405180910390fd5b6000611b108461154d565b6bffffffffffffffffffffffff1690506000611b2b85611e69565b6bffffffffffffffffffffffff169050600080604051915085821115611b515760206060fd5b8386858560045afa905080611bce576040517f08c379a000000000000000000000000000000000000000000000000000000000815260040180806020018281038252600c8152602001807f6964656e74697479204f4f47000000000000000000000000000000000000000081525060200191505060405180910390fd5b611be8611bda88611985565b64ffffffffff168786611c77565b94505050505092915050565b6000818301905082811015611c71576040517f08c379a00000000000000000000000000000000000000000000000000000000081526004018080602001828103825260198152602001807f4f766572666c6f7720647572696e67206164646974696f6e2e0000000000000081525060200191505060405180910390fd5b92915050565b60008060609050600060189050858317821b9250848317821b9250838317811b925050509392505050565b6000808260ff161415611cba576000801b9050611e62565b611cc38461154d565b6bffffffffffffffffffffffff16611ce78360ff1685611bf490919063ffffffff16565b1115611dc957611d28611cf985611e69565b6bffffffffffffffffffffffff16611d108661154d565b6bffffffffffffffffffffffff16858560ff16611ea5565b6040517f08c379a00000000000000000000000000000000000000000000000000000000081526004018080602001828103825283818151815260200191508051906020019080838360005b83811015611d8e578082015181840152602081019050611d73565b50505050905090810190601f168015611dbb5780820380516001836020036101000a031916815260200191505b509250505060405180910390fd5b60208260ff161115611e26576040517f08c379a000000000000000000000000000000000000000000000000000000000815260040180806020018281038252603a81526020018061222d603a913960400191505060405180910390fd5b60006008830290506000611e3986611e69565b6bffffffffffffffffffffffff1690506000611e5483611fdf565b905080868301511693505050505b9392505050565b6000806bffffffffffffffffffffffff90506000607860ff1690508184821c1692505050919050565b6000611e9d8261200e565b159050919050565b60606000611eb286612046565b9150506000611ec086612046565b9150506000611ece86612046565b9150506000611edc86612046565b91505083838383604051602001808061238c603591396035018565ffffffffffff1660d01b8152600601807f2077697468206c656e6774682030780000000000000000000000000000000000815250600f018465ffffffffffff1660d01b81526006018061220c602191396021018365ffffffffffff1660d01b8152600601807f2077697468206c656e6774682030780000000000000000000000000000000000815250600f018265ffffffffffff1660d01b8152600601807f2e00000000000000000000000000000000000000000000000000000000000000815250600101945050505050604051602081830303815290604052945050505050949350505050565b60007f8000000000000000000000000000000000000000000000000000000000000000600183031d9050919050565b60007fffffffffffffffffffffffffffffffffffffffffffffffffffffffffff00000062ffffff19168262ffffff1916149050919050565b6000806000601f90505b600f8160ff16111561209a5760006008820260ff1685901c9050612073816120f2565b61ffff168417935060108260ff161461208e57601084901b93505b50600181039050612050565b506000600f90505b60ff8160ff1610156120ec5760006008820260ff1685901c90506120c5816120f2565b61ffff168317925060008260ff16146120e057601083901b92505b506001810390506120a2565b50915091565b600061210460048360ff16901c61212b565b60ff168117905060088161ffff16901b905061211f8261212b565b60ff1681179050919050565b600080600f831690506040518060400160405280601081526020017f30313233343536373839616263646566000000000000000000000000000000008152508160ff168151811061217857fe5b602001015160f81c60f81b60f81c91505091905056fe43435450486f6f6b5772617070657256323a20496e76616c6964206d65737361676520626f64792076657273696f6e4f776e61626c653a206e6577206f776e657220697320746865207a65726f206164647265737343435450486f6f6b5772617070657256323a20546f6b656e207472616e73666572206661696c65642e20417474656d7074656420746f20696e646578206174206f666673657420307854797065644d656d566965772f696e646578202d20417474656d7074656420746f20696e646578206d6f7265207468616e20333220627974657343435450486f6f6b5772617070657256323a20496e73756666696369656e742062616c616e636543435450486f6f6b5772617070657256323a20496e76616c6964206d6573736167652076657273696f6e43435450486f6f6b5772617070657256323a2052656365697665206d657373616765206661696c656443435450486f6f6b5772617070657256323a20416d6f756e74206d7573742062652067726561746572207468616e203054797065644d656d566965772f636f7079546f202d204e756c6c20706f696e74657220646572656654797065644d656d566965772f636f7079546f202d20496e76616c696420706f696e74657220646572656643435450486f6f6b5772617070657256323a20496e76616c696420746f6b656e206164647265737354797065644d656d566965772f696e646578202d204f76657272616e2074686520766965772e20536c69636520697320617420307843435450486f6f6b5772617070657256323a20496e76616c696420726563697069656e742061646472657373a2646970667358221220f29a88cb4643fc826ce1e88624edeb837cc9c2030c9f2a4aa27d53cc223470c564736f6c6343000706003343435450486f6f6b5772617070657256323a204d657373616765207472616e736d697474657220697320746865207a65726f2061646472657373",
  "linkReferences": {},
  "deployedLinkReferences": {}
}