{
  "contracts/lib/memview/TypedMemView.sol": {
    "TypedMemView": {
      "abi": [
        {
          "inputs": [],
          "name": "NULL",
          "outputs": [
            {
              "internalType": "bytes29",
              "name": "",
              "type": "bytes29"
            }
          ],
          "stateMutability": "view",
          "type": "function"
        }
      ],
      "devdoc": {
        "kind": "dev",
        "methods": {},
        "version": 1
      },
      "evm": {
        "bytecode": {
          "linkReferences": {},
          "object": "60b4610024600b82828239805160001a607314601757fe5b30600052607381538281f3fe730000000000000000000000000000000000000000301460806040526004361060335760003560e01c8063f26be3fc146038575b600080fd5b603e605a565b604051808262ffffff1916815260200191505060405180910390f35b7fffffffffffffffffffffffffffffffffffffffffffffffffffffffffff0000008156fea264697066735822122025ad823b0a7fa15f091f10c9d6a75fe5980742f96b6f1e0b9eb711698590e44d64736f6c63430007060033",
          "opcodes": "PUSH1 0xB4 PUSH2 0x24 PUSH1 0xB DUP3 DUP3 DUP3 CODECOPY DUP1 MLOAD PUSH1 0x0 BYTE PUSH1 0x73 EQ PUSH1 0x17 JUMPI INVALID JUMPDEST ADDRESS PUSH1 0x0 MSTORE PUSH1 0x73 DUP2 MSTORE8 DUP3 DUP2 RETURN INVALID PUSH20 0x0 ADDRESS EQ PUSH1 0x80 PUSH1 0x40 MSTORE PUSH1 0x4 CALLDATASIZE LT PUSH1 0x33 JUMPI PUSH1 0x0 CALLDATALOAD PUSH1 0xE0 SHR DUP1 PUSH4 0xF26BE3FC EQ PUSH1 0x38 JUMPI JUMPDEST PUSH1 0x0 DUP1 REVERT JUMPDEST PUSH1 0x3E PUSH1 0x5A JUMP JUMPDEST PUSH1 0x40 MLOAD DUP1 DUP3 PUSH3 0xFFFFFF NOT AND DUP2 MSTORE PUSH1 0x20 ADD SWAP2 POP POP PUSH1 0x40 MLOAD DUP1 SWAP2 SUB SWAP1 RETURN JUMPDEST PUSH32 0xFFFFFFFFFFFFFFFFFFFFFFFFFFFFFFFFFFFFFFFFFFFFFFFFFFFFFFFFFF000000 DUP2 JUMP INVALID LOG2 PUSH5 0x6970667358 0x22 SLT KECCAK256 0x25 0xAD DUP3 EXTCODESIZE EXP PUSH32 0xA15F091F10C9D6A75FE5980742F96B6F1E0B9EB711698590E44D64736F6C6343 STOP SMOD MOD STOP CALLER "
        },
        "methodIdentifiers": {
          "NULL()": "f26be3fc"
        }
      },
      "storageLayout": {
        "storage": [],
        "types": null
      },
      "userdoc": {
        "kind": "user",
        "methods": {},
        "version": 1
      }
    }
  }
}