{
  "contracts/core/CCTPHookWrapper.sol": {
    "CCTPHookWrapper": {
      "abi": [
        {
          "inputs": [
            {
              "internalType": "address",
              "name": "_messageTransmitter",
              "type": "address"
            }
          ],
          "stateMutability": "nonpayable",
          "type": "constructor"
        },
        {
          "anonymous": false,
          "inputs": [
            {
              "indexed": true,
              "internalType": "address",
              "name": "employee",
              "type": "address"
            },
            {
              "indexed": false,
              "internalType": "address",
              "name": "token",
              "type": "address"
            },
            {
              "indexed": false,
              "internalType": "uint256",
              "name": "amount",
              "type": "uint256"
            },
            {
              "indexed": false,
              "internalType": "uint32",
              "name": "destinationDomain",
              "type": "uint32"
            }
          ],
          "name": "MessageReceived",
          "type": "event"
        },
        {
          "anonymous": false,
          "inputs": [
            {
              "indexed": true,
              "internalType": "address",
              "name": "previousOwner",
              "type": "address"
            },
            {
              "indexed": true,
              "internalType": "address",
              "name": "newOwner",
              "type": "address"
            }
          ],
          "name": "OwnershipTransferred",
          "type": "event"
        },
        {
          "inputs": [],
          "name": "messageTransmitter",
          "outputs": [
            {
              "internalType": "contract IReceiverV2",
              "name": "",
              "type": "address"
            }
          ],
          "stateMutability": "view",
          "type": "function"
        },
        {
          "inputs": [],
          "name": "owner",
          "outputs": [
            {
              "internalType": "address",
              "name": "",
              "type": "address"
            }
          ],
          "stateMutability": "view",
          "type": "function"
        },
        {
          "inputs": [
            {
              "internalType": "bytes",
              "name": "message",
              "type": "bytes"
            },
            {
              "internalType": "bytes",
              "name": "attestation",
              "type": "bytes"
            }
          ],
          "name": "relay",
          "outputs": [
            {
              "internalType": "bool",
              "name": "relaySuccess",
              "type": "bool"
            },
            {
              "internalType": "bool",
              "name": "hookSuccess",
              "type": "bool"
            },
            {
              "internalType": "bytes",
              "name": "hookReturnData",
              "type": "bytes"
            }
          ],
          "stateMutability": "nonpayable",
          "type": "function"
        },
        {
          "inputs": [],
          "name": "supportedMessageBodyVersion",
          "outputs": [
            {
              "internalType": "uint32",
              "name": "",
              "type": "uint32"
            }
          ],
          "stateMutability": "view",
          "type": "function"
        },
        {
          "inputs": [],
          "name": "supportedMessageVersion",
          "outputs": [
            {
              "internalType": "uint32",
              "name": "",
              "type": "uint32"
            }
          ],
          "stateMutability": "view",
          "type": "function"
        },
        {
          "inputs": [
            {
              "internalType": "address",
              "name": "newOwner",
              "type": "address"
            }
          ],
          "name": "transferOwnership",
          "outputs": [],
          "stateMutability": "nonpayable",
          "type": "function"
        }
      ],
      "devdoc": {
        "details": "Intended to only work with CCTP v2 message formats and interfaces.",
        "kind": "dev",
        "methods": {
          "constructor": {
            "params": {
              "_messageTransmitter": "The address of the local message transmitter"
            }
          },
          "owner()": {
            "details": "Returns the address of the current owner."
          },
          "relay(bytes,bytes)": {
            "details": "The hook data contained in the Burn Message is expected to follow this format: Field                 Bytes      Type       Index target                20         address    0 hookCallData          dynamic    bytes      20 The hook handler will call the target address with the hookCallData, even if hookCallData is zero-length. Additional data about the burn message is not passed in this call.Reverts if not called by the Owner. Due to the lack of atomicity with the hook call, permissionless relay of messages containing hooks via an implementation like this contract should be carefully considered, as a malicious caller could use a low gas attack to consume the message's nonce without executing the hook. WARNING: this implementation does NOT enforce atomicity in the hook call. This is to prevent a failed hook call from preventing relay of a message if this contract is set as the destinationCaller.Reverts if the receiveMessage() call to the local message transmitter reverts, or returns false.",
            "params": {
              "attestation": "The attestation corresponding to the message, as bytes",
              "message": "The message to relay, as bytes"
            },
            "returns": {
              "hookReturnData": "The data returned from the call to the hook target. This will be empty if there was no hook in the message.",
              "hookSuccess": "True if the call to the hook target succeeded. False if the hook call failed, or if no hook was present.",
              "relaySuccess": "True if the call to the local message transmitter succeeded."
            }
          },
          "transferOwnership(address)": {
            "details": "Transfers ownership of the contract to a new account (`newOwner`). Can only be called by the current owner."
          }
        },
        "title": "CCTPHookWrapper",
        "version": 1
      },
      "evm": {
        "bytecode": {
          "linkReferences": {},
          "object": "60a060405234801561001057600080fd5b5060405162001c7c38038062001c7c8339818101604052602081101561003557600080fd5b810190808051906020019092919050505061006261005761012660201b60201c565b61012e60201b60201c565b600073ffffffffffffffffffffffffffffffffffffffff168173ffffffffffffffffffffffffffffffffffffffff1614156100e9576040517f08c379a000000000000000000000000000000000000000000000000000000000815260040180806020018281038252602781526020018062001c556027913960400191505060405180910390fd5b8073ffffffffffffffffffffffffffffffffffffffff1660808173ffffffffffffffffffffffffffffffffffffffff1660601b81525050506101f2565b600033905090565b60008060009054906101000a900473ffffffffffffffffffffffffffffffffffffffff169050816000806101000a81548173ffffffffffffffffffffffffffffffffffffffff021916908373ffffffffffffffffffffffffffffffffffffffff1602179055508173ffffffffffffffffffffffffffffffffffffffff168173ffffffffffffffffffffffffffffffffffffffff167f8be0079c531659141344cd1fd0a4f28419497f9722a3daafe3b4186f6b6457e060405160405180910390a35050565b60805160601c611a40620002156000398061045752806107375250611a406000f3fe608060405234801561001057600080fd5b50600436106100625760003560e01c806301358f9e14610067578063564a51581461008b5780637b04c181146101e4578063875c7ecf146102185780638da5cb5b1461023c578063f2fde38b14610270575b600080fd5b61006f6102b4565b604051808263ffffffff16815260200191505060405180910390f35b610157600480360360408110156100a157600080fd5b81019080803590602001906401000000008111156100be57600080fd5b8201836020820111156100d057600080fd5b803590602001918460018302840111640100000000831117156100f257600080fd5b90919293919293908035906020019064010000000081111561011357600080fd5b82018360208201111561012557600080fd5b8035906020019184600183028401116401000000008311171561014757600080fd5b90919293919293905050506102b9565b604051808415158152602001831515815260200180602001828103825283818151815260200191508051906020019080838360005b838110156101a757808201518184015260208101905061018c565b50505050905090810190601f1680156101d45780820380516001836020036101000a031916815260200191505b5094505050505060405180910390f35b6101ec610735565b604051808273ffffffffffffffffffffffffffffffffffffffff16815260200191505060405180910390f35b610220610759565b604051808263ffffffff16815260200191505060405180910390f35b61024461075e565b604051808273ffffffffffffffffffffffffffffffffffffffff16815260200191505060405180910390f35b6102b26004803603602081101561028657600080fd5b81019080803573ffffffffffffffffffffffffffffffffffffffff169060200190929190505050610787565b005b600181565b60008060606102c6610821565b6000610320600089898080601f016020809104026020016040519081016040528093929190818152602001838380828437600081840152601f19601f820116905080830192505050505050506108d290919063ffffffff16565b905061032b816108fd565b600163ffffffff1661033c82610a17565b63ffffffff16146103b5576040517f08c379a00000000000000000000000000000000000000000000000000000000081526004018080602001828103825260178152602001807f496e76616c6964206d6573736167652076657273696f6e00000000000000000081525060200191505060405180910390fd5b60006103c082610a40565b90506103cb81610a8d565b600163ffffffff166103dc82610ba7565b63ffffffff1614610455576040517f08c379a000000000000000000000000000000000000000000000000000000000815260040180806020018281038252601c8152602001807f496e76616c6964206d65737361676520626f64792076657273696f6e0000000081525060200191505060405180910390fd5b7f000000000000000000000000000000000000000000000000000000000000000073ffffffffffffffffffffffffffffffffffffffff166357ecfd288a8a8a8a6040518563ffffffff1660e01b81526004018080602001806020018381038352878782818152602001925080828437600081840152601f19601f8201169050808301925050508381038252858582818152602001925080828437600081840152601f19601f8201169050808301925050509650505050505050602060405180830381600087803b15801561052857600080fd5b505af115801561053c573d6000803e3d6000fd5b505050506040513d602081101561055257600080fd5b81019080805190602001909291905050509450846105d8576040517f08c379a00000000000000000000000000000000000000000000000000000000081526004018080602001828103825260168152602001807f52656365697665206d657373616765206661696c65640000000000000000000081525060200191505060405180910390fd5b6105e181610bbf565b60001c73ffffffffffffffffffffffffffffffffffffffff167f6041979bc0aecbe261eeac58bfe921bbe6d788affab5904a002dad149bc544f261062483610bd7565b60001c61063084610bef565b61063986610c07565b604051808473ffffffffffffffffffffffffffffffffffffffff1681526020018381526020018263ffffffff168152602001935050505060405180910390a2600061068382610c30565b90506106948162ffffff1916610c7d565b156107285760006106aa8262ffffff1916610cc0565b6bffffffffffffffffffffffff169050601481106107265760006106de60008462ffffff1916610ce690919063ffffffff16565b9050600061070f6107046014850360008762ffffff1916610cfc9092919063ffffffff16565b62ffffff1916610d3b565b905061071b8282610d82565b809850819950505050505b505b5050509450945094915050565b7f000000000000000000000000000000000000000000000000000000000000000081565b600181565b60008060009054906101000a900473ffffffffffffffffffffffffffffffffffffffff16905090565b61078f610821565b600073ffffffffffffffffffffffffffffffffffffffff168173ffffffffffffffffffffffffffffffffffffffff161415610815576040517f08c379a00000000000000000000000000000000000000000000000000000000081526004018080602001828103825260268152602001806119026026913960400191505060405180910390fd5b61081e81610e48565b50565b610829610f0c565b73ffffffffffffffffffffffffffffffffffffffff1661084761075e565b73ffffffffffffffffffffffffffffffffffffffff16146108d0576040517f08c379a00000000000000000000000000000000000000000000000000000000081526004018080602001828103825260208152602001807f4f776e61626c653a2063616c6c6572206973206e6f7420746865206f776e657281525060200191505060405180910390fd5b565b6000808351905060006020850190506108f38464ffffffffff168284610f14565b9250505092915050565b61090c8162ffffff1916610c7d565b61097e576040517f08c379a00000000000000000000000000000000000000000000000000000000081526004018080602001828103825260118152602001807f4d616c666f726d6564206d65737361676500000000000000000000000000000081525060200191505060405180910390fd5b609460ff166109928262ffffff1916610cc0565b6bffffffffffffffffffffffff161015610a14576040517f08c379a000000000000000000000000000000000000000000000000000000000815260040180806020018281038252601a8152602001807f496e76616c6964206d6573736167653a20746f6f2073686f727400000000000081525060200191505060405180910390fd5b50565b6000610a39600060ff1660048462ffffff1916610f839092919063ffffffff16565b9050919050565b6000610a86609460ff16609460ff16610a5e8562ffffff1916610cc0565b036bffffffffffffffffffffffff1660008562ffffff1916610fa8909392919063ffffffff16565b9050919050565b610a9c8162ffffff1916610c7d565b610b0e576040517f08c379a00000000000000000000000000000000000000000000000000000000081526004018080602001828103825260118152602001807f4d616c666f726d6564206d65737361676500000000000000000000000000000081525060200191505060405180910390fd5b60e460ff16610b228262ffffff1916610cc0565b6bffffffffffffffffffffffff161015610ba4576040517f08c379a000000000000000000000000000000000000000000000000000000000815260040180806020018281038252601f8152602001807f496e76616c6964206275726e206d6573736167653a20746f6f2073686f72740081525060200191505060405180910390fd5b50565b6000610bb88262ffffff1916611054565b9050919050565b6000610bd08262ffffff191661107d565b9050919050565b6000610be88262ffffff19166110a6565b9050919050565b6000610c008262ffffff19166110cf565b9050919050565b6000610c29600860ff1660048462ffffff1916610f839092919063ffffffff16565b9050919050565b6000610c7660e460ff1660e460ff16610c4e8562ffffff1916610cc0565b036bffffffffffffffffffffffff1660008562ffffff1916610fa8909392919063ffffffff16565b9050919050565b600064ffffffffff610c8e836110f8565b64ffffffffff161415610ca45760009050610cbb565b6000610caf8361110d565b90506040518111159150505b919050565b6000806bffffffffffffffffffffffff90506000601890508184821c1692505050919050565b6000610cf483836014610f83565b905092915050565b6000610d3284610d2b85610d0f88610cc0565b6bffffffffffffffffffffffff1661113790919063ffffffff16565b8585610fa8565b90509392505050565b6060600080610d4984610cc0565b6bffffffffffffffffffffffff1690506040519150819250610d6e84602084016111ba565b506020818301016040528082525050919050565b600060608373ffffffffffffffffffffffffffffffffffffffff16836040518082805190602001908083835b60208310610dd15780518252602082019150602081019050602083039250610dae565b6001836020036101000a0380198251168184511680821785525050505050509050019150506000604051808303816000865af19150503d8060008114610e33576040519150601f19603f3d011682016040523d82523d6000602084013e610e38565b606091505b5080925081935050509250929050565b60008060009054906101000a900473ffffffffffffffffffffffffffffffffffffffff169050816000806101000a81548173ffffffffffffffffffffffffffffffffffffffff021916908373ffffffffffffffffffffffffffffffffffffffff1602179055508173ffffffffffffffffffffffffffffffffffffffff168173ffffffffffffffffffffffffffffffffffffffff167f8be0079c531659141344cd1fd0a4f28419497f9722a3daafe3b4186f6b6457e060405160405180910390a35050565b600033905090565b600080610f2a838561136790919063ffffffff16565b9050604051811115610f3b57600090505b6000811415610f6d577fffffffffffffffffffffffffffffffffffffffffffffffffffffffffff000000915050610f7c565b610f788585856113ea565b9150505b9392505050565b60006008826020030260ff16610f9a858585611415565b60001c901c90509392505050565b600080610fb4866115dc565b6bffffffffffffffffffffffff169050610fcd8661110d565b610ff285610fe4888561136790919063ffffffff16565b61136790919063ffffffff16565b1115611021577fffffffffffffffffffffffffffffffffffffffffffffffffffffffffff00000091505061104c565b611034858261136790919063ffffffff16565b90506110488364ffffffffff168286610f14565b9150505b949350505050565b6000611076600060ff1660048462ffffff1916610f839092919063ffffffff16565b9050919050565b600061109f602460ff1660208462ffffff19166114159092919063ffffffff16565b9050919050565b60006110c8600460ff1660208462ffffff19166114159092919063ffffffff16565b9050919050565b60006110f1604460ff1660208462ffffff1916610f839092919063ffffffff16565b9050919050565b60008060d860ff16905082811c915050919050565b600061111882610cc0565b611121836115dc565b016bffffffffffffffffffffffff169050919050565b6000828211156111af576040517f08c379a000000000000000000000000000000000000000000000000000000000815260040180806020018281038252601d8152602001807f556e646572666c6f7720647572696e67207375627472616374696f6e2e00000081525060200191505060405180910390fd5b818303905092915050565b60006111c583611605565b61121a576040517f08c379a00000000000000000000000000000000000000000000000000000000081526004018080602001828103825260288152602001806119836028913960400191505060405180910390fd5b61122383610c7d565b611278576040517f08c379a000000000000000000000000000000000000000000000000000000000815260040180806020018281038252602b8152602001806119ab602b913960400191505060405180910390fd5b600061128384610cc0565b6bffffffffffffffffffffffff169050600061129e856115dc565b6bffffffffffffffffffffffff1690506000806040519150858211156112c45760206060fd5b8386858560045afa905080611341576040517f08c379a000000000000000000000000000000000000000000000000000000000815260040180806020018281038252600c8152602001807f6964656e74697479204f4f47000000000000000000000000000000000000000081525060200191505060405180910390fd5b61135b61134d886110f8565b64ffffffffff1687866113ea565b94505050505092915050565b60008183019050828110156113e4576040517f08c379a00000000000000000000000000000000000000000000000000000000081526004018080602001828103825260198152602001807f4f766572666c6f7720647572696e67206164646974696f6e2e0000000000000081525060200191505060405180910390fd5b92915050565b60008060609050600060189050858317821b9250848317821b9250838317811b925050509392505050565b6000808260ff16141561142d576000801b90506115d5565b61143684610cc0565b6bffffffffffffffffffffffff1661145a8360ff168561136790919063ffffffff16565b111561153c5761149b61146c856115dc565b6bffffffffffffffffffffffff1661148386610cc0565b6bffffffffffffffffffffffff16858560ff16611618565b6040517f08c379a00000000000000000000000000000000000000000000000000000000081526004018080602001828103825283818151815260200191508051906020019080838360005b838110156115015780820151818401526020810190506114e6565b50505050905090810190601f16801561152e5780820380516001836020036101000a031916815260200191505b509250505060405180910390fd5b60208260ff161115611599576040517f08c379a000000000000000000000000000000000000000000000000000000000815260040180806020018281038252603a815260200180611949603a913960400191505060405180910390fd5b600060088302905060006115ac866115dc565b6bffffffffffffffffffffffff16905060006115c783611752565b905080868301511693505050505b9392505050565b6000806bffffffffffffffffffffffff90506000607860ff1690508184821c1692505050919050565b600061161082611781565b159050919050565b60606000611625866117b9565b9150506000611633866117b9565b9150506000611641866117b9565b915050600061164f866117b9565b9150508383838360405160200180806119d6603591396035018565ffffffffffff1660d01b8152600601807f2077697468206c656e6774682030780000000000000000000000000000000000815250600f018465ffffffffffff1660d01b815260060180611928602191396021018365ffffffffffff1660d01b8152600601807f2077697468206c656e6774682030780000000000000000000000000000000000815250600f018265ffffffffffff1660d01b8152600601807f2e00000000000000000000000000000000000000000000000000000000000000815250600101945050505050604051602081830303815290604052945050505050949350505050565b60007f8000000000000000000000000000000000000000000000000000000000000000600183031d9050919050565b60007fffffffffffffffffffffffffffffffffffffffffffffffffffffffffff00000062ffffff19168262ffffff1916149050919050565b6000806000601f90505b600f8160ff16111561180d5760006008820260ff1685901c90506117e681611865565b61ffff168417935060108260ff161461180157601084901b93505b506001810390506117c3565b506000600f90505b60ff8160ff16101561185f5760006008820260ff1685901c905061183881611865565b61ffff168317925060008260ff161461185357601083901b92505b50600181039050611815565b50915091565b600061187760048360ff16901c61189e565b60ff168117905060088161ffff16901b90506118928261189e565b60ff1681179050919050565b600080600f831690506040518060400160405280601081526020017f30313233343536373839616263646566000000000000000000000000000000008152508160ff16815181106118eb57fe5b602001015160f81c60f81b60f81c91505091905056fe4f776e61626c653a206e6577206f776e657220697320746865207a65726f20616464726573732e20417474656d7074656420746f20696e646578206174206f666673657420307854797065644d656d566965772f696e646578202d20417474656d7074656420746f20696e646578206d6f7265207468616e20333220627974657354797065644d656d566965772f636f7079546f202d204e756c6c20706f696e74657220646572656654797065644d656d566965772f636f7079546f202d20496e76616c696420706f696e74657220646572656654797065644d656d566965772f696e646578202d204f76657272616e2074686520766965772e20536c696365206973206174203078a2646970667358221220612370a688b11c2514c8a92968671a5a041dedd5b9f1bd888b3a5e94921c18dd64736f6c634300070600334d657373616765207472616e736d697474657220697320746865207a65726f2061646472657373",
          "opcodes": "PUSH1 0xA0 PUSH1 0x40 MSTORE CALLVALUE DUP1 ISZERO PUSH2 0x10 JUMPI PUSH1 0x0 DUP1 REVERT JUMPDEST POP PUSH1 0x40 MLOAD PUSH3 0x1C7C CODESIZE SUB DUP1 PUSH3 0x1C7C DUP4 CODECOPY DUP2 DUP2 ADD PUSH1 0x40 MSTORE PUSH1 0x20 DUP2 LT ISZERO PUSH2 0x35 JUMPI PUSH1 0x0 DUP1 REVERT JUMPDEST DUP2 ADD SWAP1 DUP1 DUP1 MLOAD SWAP1 PUSH1 0x20 ADD SWAP1 SWAP3 SWAP2 SWAP1 POP POP POP PUSH2 0x62 PUSH2 0x57 PUSH2 0x126 PUSH1 0x20 SHL PUSH1 0x20 SHR JUMP JUMPDEST PUSH2 0x12E PUSH1 0x20 SHL PUSH1 0x20 SHR JUMP JUMPDEST PUSH1 0x0 PUSH20 0xFFFFFFFFFFFFFFFFFFFFFFFFFFFFFFFFFFFFFFFF AND DUP2 PUSH20 0xFFFFFFFFFFFFFFFFFFFFFFFFFFFFFFFFFFFFFFFF AND EQ ISZERO PUSH2 0xE9 JUMPI PUSH1 0x40 MLOAD PUSH32 0x8C379A000000000000000000000000000000000000000000000000000000000 DUP2 MSTORE PUSH1 0x4 ADD DUP1 DUP1 PUSH1 0x20 ADD DUP3 DUP2 SUB DUP3 MSTORE PUSH1 0x27 DUP2 MSTORE PUSH1 0x20 ADD DUP1 PUSH3 0x1C55 PUSH1 0x27 SWAP2 CODECOPY PUSH1 0x40 ADD SWAP2 POP POP PUSH1 0x40 MLOAD DUP1 SWAP2 SUB SWAP1 REVERT JUMPDEST DUP1 PUSH20 0xFFFFFFFFFFFFFFFFFFFFFFFFFFFFFFFFFFFFFFFF AND PUSH1 0x80 DUP2 PUSH20 0xFFFFFFFFFFFFFFFFFFFFFFFFFFFFFFFFFFFFFFFF AND PUSH1 0x60 SHL DUP2 MSTORE POP POP POP PUSH2 0x1F2 JUMP JUMPDEST PUSH1 0x0 CALLER SWAP1 POP SWAP1 JUMP JUMPDEST PUSH1 0x0 DUP1 PUSH1 0x0 SWAP1 SLOAD SWAP1 PUSH2 0x100 EXP SWAP1 DIV PUSH20 0xFFFFFFFFFFFFFFFFFFFFFFFFFFFFFFFFFFFFFFFF AND SWAP1 POP DUP2 PUSH1 0x0 DUP1 PUSH2 0x100 EXP DUP2 SLOAD DUP2 PUSH20 0xFFFFFFFFFFFFFFFFFFFFFFFFFFFFFFFFFFFFFFFF MUL NOT AND SWAP1 DUP4 PUSH20 0xFFFFFFFFFFFFFFFFFFFFFFFFFFFFFFFFFFFFFFFF AND MUL OR SWAP1 SSTORE POP DUP2 PUSH20 0xFFFFFFFFFFFFFFFFFFFFFFFFFFFFFFFFFFFFFFFF AND DUP2 PUSH20 0xFFFFFFFFFFFFFFFFFFFFFFFFFFFFFFFFFFFFFFFF AND PUSH32 0x8BE0079C531659141344CD1FD0A4F28419497F9722A3DAAFE3B4186F6B6457E0 PUSH1 0x40 MLOAD PUSH1 0x40 MLOAD DUP1 SWAP2 SUB SWAP1 LOG3 POP POP JUMP JUMPDEST PUSH1 0x80 MLOAD PUSH1 0x60 SHR PUSH2 0x1A40 PUSH3 0x215 PUSH1 0x0 CODECOPY DUP1 PUSH2 0x457 MSTORE DUP1 PUSH2 0x737 MSTORE POP PUSH2 0x1A40 PUSH1 0x0 RETURN INVALID PUSH1 0x80 PUSH1 0x40 MSTORE CALLVALUE DUP1 ISZERO PUSH2 0x10 JUMPI PUSH1 0x0 DUP1 REVERT JUMPDEST POP PUSH1 0x4 CALLDATASIZE LT PUSH2 0x62 JUMPI PUSH1 0x0 CALLDATALOAD PUSH1 0xE0 SHR DUP1 PUSH4 0x1358F9E EQ PUSH2 0x67 JUMPI DUP1 PUSH4 0x564A5158 EQ PUSH2 0x8B JUMPI DUP1 PUSH4 0x7B04C181 EQ PUSH2 0x1E4 JUMPI DUP1 PUSH4 0x875C7ECF EQ PUSH2 0x218 JUMPI DUP1 PUSH4 0x8DA5CB5B EQ PUSH2 0x23C JUMPI DUP1 PUSH4 0xF2FDE38B EQ PUSH2 0x270 JUMPI JUMPDEST PUSH1 0x0 DUP1 REVERT JUMPDEST PUSH2 0x6F PUSH2 0x2B4 JUMP JUMPDEST PUSH1 0x40 MLOAD DUP1 DUP3 PUSH4 0xFFFFFFFF AND DUP2 MSTORE PUSH1 0x20 ADD SWAP2 POP POP PUSH1 0x40 MLOAD DUP1 SWAP2 SUB SWAP1 RETURN JUMPDEST PUSH2 0x157 PUSH1 0x4 DUP1 CALLDATASIZE SUB PUSH1 0x40 DUP2 LT ISZERO PUSH2 0xA1 JUMPI PUSH1 0x0 DUP1 REVERT JUMPDEST DUP2 ADD SWAP1 DUP1 DUP1 CALLDATALOAD SWAP1 PUSH1 0x20 ADD SWAP1 PUSH5 0x100000000 DUP2 GT ISZERO PUSH2 0xBE JUMPI PUSH1 0x0 DUP1 REVERT JUMPDEST DUP3 ADD DUP4 PUSH1 0x20 DUP3 ADD GT ISZERO PUSH2 0xD0 JUMPI PUSH1 0x0 DUP1 REVERT JUMPDEST DUP1 CALLDATALOAD SWAP1 PUSH1 0x20 ADD SWAP2 DUP5 PUSH1 0x1 DUP4 MUL DUP5 ADD GT PUSH5 0x100000000 DUP4 GT OR ISZERO PUSH2 0xF2 JUMPI PUSH1 0x0 DUP1 REVERT JUMPDEST SWAP1 SWAP2 SWAP3 SWAP4 SWAP2 SWAP3 SWAP4 SWAP1 DUP1 CALLDATALOAD SWAP1 PUSH1 0x20 ADD SWAP1 PUSH5 0x100000000 DUP2 GT ISZERO PUSH2 0x113 JUMPI PUSH1 0x0 DUP1 REVERT JUMPDEST DUP3 ADD DUP4 PUSH1 0x20 DUP3 ADD GT ISZERO PUSH2 0x125 JUMPI PUSH1 0x0 DUP1 REVERT JUMPDEST DUP1 CALLDATALOAD SWAP1 PUSH1 0x20 ADD SWAP2 DUP5 PUSH1 0x1 DUP4 MUL DUP5 ADD GT PUSH5 0x100000000 DUP4 GT OR ISZERO PUSH2 0x147 JUMPI PUSH1 0x0 DUP1 REVERT JUMPDEST SWAP1 SWAP2 SWAP3 SWAP4 SWAP2 SWAP3 SWAP4 SWAP1 POP POP POP PUSH2 0x2B9 JUMP JUMPDEST PUSH1 0x40 MLOAD DUP1 DUP5 ISZERO ISZERO DUP2 MSTORE PUSH1 0x20 ADD DUP4 ISZERO ISZERO DUP2 MSTORE PUSH1 0x20 ADD DUP1 PUSH1 0x20 ADD DUP3 DUP2 SUB DUP3 MSTORE DUP4 DUP2 DUP2 MLOAD DUP2 MSTORE PUSH1 0x20 ADD SWAP2 POP DUP1 MLOAD SWAP1 PUSH1 0x20 ADD SWAP1 DUP1 DUP4 DUP4 PUSH1 0x0 JUMPDEST DUP4 DUP2 LT ISZERO PUSH2 0x1A7 JUMPI DUP1 DUP3 ADD MLOAD DUP2 DUP5 ADD MSTORE PUSH1 0x20 DUP2 ADD SWAP1 POP PUSH2 0x18C JUMP JUMPDEST POP POP POP POP SWAP1 POP SWAP1 DUP2 ADD SWAP1 PUSH1 0x1F AND DUP1 ISZERO PUSH2 0x1D4 JUMPI DUP1 DUP3 SUB DUP1 MLOAD PUSH1 0x1 DUP4 PUSH1 0x20 SUB PUSH2 0x100 EXP SUB NOT AND DUP2 MSTORE PUSH1 0x20 ADD SWAP2 POP JUMPDEST POP SWAP5 POP POP POP POP POP PUSH1 0x40 MLOAD DUP1 SWAP2 SUB SWAP1 RETURN JUMPDEST PUSH2 0x1EC PUSH2 0x735 JUMP JUMPDEST PUSH1 0x40 MLOAD DUP1 DUP3 PUSH20 0xFFFFFFFFFFFFFFFFFFFFFFFFFFFFFFFFFFFFFFFF AND DUP2 MSTORE PUSH1 0x20 ADD SWAP2 POP POP PUSH1 0x40 MLOAD DUP1 SWAP2 SUB SWAP1 RETURN JUMPDEST PUSH2 0x220 PUSH2 0x759 JUMP JUMPDEST PUSH1 0x40 MLOAD DUP1 DUP3 PUSH4 0xFFFFFFFF AND DUP2 MSTORE PUSH1 0x20 ADD SWAP2 POP POP PUSH1 0x40 MLOAD DUP1 SWAP2 SUB SWAP1 RETURN JUMPDEST PUSH2 0x244 PUSH2 0x75E JUMP JUMPDEST PUSH1 0x40 MLOAD DUP1 DUP3 PUSH20 0xFFFFFFFFFFFFFFFFFFFFFFFFFFFFFFFFFFFFFFFF AND DUP2 MSTORE PUSH1 0x20 ADD SWAP2 POP POP PUSH1 0x40 MLOAD DUP1 SWAP2 SUB SWAP1 RETURN JUMPDEST PUSH2 0x2B2 PUSH1 0x4 DUP1 CALLDATASIZE SUB PUSH1 0x20 DUP2 LT ISZERO PUSH2 0x286 JUMPI PUSH1 0x0 DUP1 REVERT JUMPDEST DUP2 ADD SWAP1 DUP1 DUP1 CALLDATALOAD PUSH20 0xFFFFFFFFFFFFFFFFFFFFFFFFFFFFFFFFFFFFFFFF AND SWAP1 PUSH1 0x20 ADD SWAP1 SWAP3 SWAP2 SWAP1 POP POP POP PUSH2 0x787 JUMP JUMPDEST STOP JUMPDEST PUSH1 0x1 DUP2 JUMP JUMPDEST PUSH1 0x0 DUP1 PUSH1 0x60 PUSH2 0x2C6 PUSH2 0x821 JUMP JUMPDEST PUSH1 0x0 PUSH2 0x320 PUSH1 0x0 DUP10 DUP10 DUP1 DUP1 PUSH1 0x1F ADD PUSH1 0x20 DUP1 SWAP2 DIV MUL PUSH1 0x20 ADD PUSH1 0x40 MLOAD SWAP1 DUP2 ADD PUSH1 0x40 MSTORE DUP1 SWAP4 SWAP3 SWAP2 SWAP1 DUP2 DUP2 MSTORE PUSH1 0x20 ADD DUP4 DUP4 DUP1 DUP3 DUP5 CALLDATACOPY PUSH1 0x0 DUP2 DUP5 ADD MSTORE PUSH1 0x1F NOT PUSH1 0x1F DUP3 ADD AND SWAP1 POP DUP1 DUP4 ADD SWAP3 POP POP POP POP POP POP POP PUSH2 0x8D2 SWAP1 SWAP2 SWAP1 PUSH4 0xFFFFFFFF AND JUMP JUMPDEST SWAP1 POP PUSH2 0x32B DUP2 PUSH2 0x8FD JUMP JUMPDEST PUSH1 0x1 PUSH4 0xFFFFFFFF AND PUSH2 0x33C DUP3 PUSH2 0xA17 JUMP JUMPDEST PUSH4 0xFFFFFFFF AND EQ PUSH2 0x3B5 JUMPI PUSH1 0x40 MLOAD PUSH32 0x8C379A000000000000000000000000000000000000000000000000000000000 DUP2 MSTORE PUSH1 0x4 ADD DUP1 DUP1 PUSH1 0x20 ADD DUP3 DUP2 SUB DUP3 MSTORE PUSH1 0x17 DUP2 MSTORE PUSH1 0x20 ADD DUP1 PUSH32 0x496E76616C6964206D6573736167652076657273696F6E000000000000000000 DUP2 MSTORE POP PUSH1 0x20 ADD SWAP2 POP POP PUSH1 0x40 MLOAD DUP1 SWAP2 SUB SWAP1 REVERT JUMPDEST PUSH1 0x0 PUSH2 0x3C0 DUP3 PUSH2 0xA40 JUMP JUMPDEST SWAP1 POP PUSH2 0x3CB DUP2 PUSH2 0xA8D JUMP JUMPDEST PUSH1 0x1 PUSH4 0xFFFFFFFF AND PUSH2 0x3DC DUP3 PUSH2 0xBA7 JUMP JUMPDEST PUSH4 0xFFFFFFFF AND EQ PUSH2 0x455 JUMPI PUSH1 0x40 MLOAD PUSH32 0x8C379A000000000000000000000000000000000000000000000000000000000 DUP2 MSTORE PUSH1 0x4 ADD DUP1 DUP1 PUSH1 0x20 ADD DUP3 DUP2 SUB DUP3 MSTORE PUSH1 0x1C DUP2 MSTORE PUSH1 0x20 ADD DUP1 PUSH32 0x496E76616C6964206D65737361676520626F64792076657273696F6E00000000 DUP2 MSTORE POP PUSH1 0x20 ADD SWAP2 POP POP PUSH1 0x40 MLOAD DUP1 SWAP2 SUB SWAP1 REVERT JUMPDEST PUSH32 0x0 PUSH20 0xFFFFFFFFFFFFFFFFFFFFFFFFFFFFFFFFFFFFFFFF AND PUSH4 0x57ECFD28 DUP11 DUP11 DUP11 DUP11 PUSH1 0x40 MLOAD DUP6 PUSH4 0xFFFFFFFF AND PUSH1 0xE0 SHL DUP2 MSTORE PUSH1 0x4 ADD DUP1 DUP1 PUSH1 0x20 ADD DUP1 PUSH1 0x20 ADD DUP4 DUP2 SUB DUP4 MSTORE DUP8 DUP8 DUP3 DUP2 DUP2 MSTORE PUSH1 0x20 ADD SWAP3 POP DUP1 DUP3 DUP5 CALLDATACOPY PUSH1 0x0 DUP2 DUP5 ADD MSTORE PUSH1 0x1F NOT PUSH1 0x1F DUP3 ADD AND SWAP1 POP DUP1 DUP4 ADD SWAP3 POP POP POP DUP4 DUP2 SUB DUP3 MSTORE DUP6 DUP6 DUP3 DUP2 DUP2 MSTORE PUSH1 0x20 ADD SWAP3 POP DUP1 DUP3 DUP5 CALLDATACOPY PUSH1 0x0 DUP2 DUP5 ADD MSTORE PUSH1 0x1F NOT PUSH1 0x1F DUP3 ADD AND SWAP1 POP DUP1 DUP4 ADD SWAP3 POP POP POP SWAP7 POP POP POP POP POP POP POP PUSH1 0x20 PUSH1 0x40 MLOAD DUP1 DUP4 SUB DUP2 PUSH1 0x0 DUP8 DUP1 EXTCODESIZE ISZERO DUP1 ISZERO PUSH2 0x528 JUMPI PUSH1 0x0 DUP1 REVERT JUMPDEST POP GAS CALL ISZERO DUP1 ISZERO PUSH2 0x53C JUMPI RETURNDATASIZE PUSH1 0x0 DUP1 RETURNDATACOPY RETURNDATASIZE PUSH1 0x0 REVERT JUMPDEST POP POP POP POP PUSH1 0x40 MLOAD RETURNDATASIZE PUSH1 0x20 DUP2 LT ISZERO PUSH2 0x552 JUMPI PUSH1 0x0 DUP1 REVERT JUMPDEST DUP2 ADD SWAP1 DUP1 DUP1 MLOAD SWAP1 PUSH1 0x20 ADD SWAP1 SWAP3 SWAP2 SWAP1 POP POP POP SWAP5 POP DUP5 PUSH2 0x5D8 JUMPI PUSH1 0x40 MLOAD PUSH32 0x8C379A000000000000000000000000000000000000000000000000000000000 DUP2 MSTORE PUSH1 0x4 ADD DUP1 DUP1 PUSH1 0x20 ADD DUP3 DUP2 SUB DUP3 MSTORE PUSH1 0x16 DUP2 MSTORE PUSH1 0x20 ADD DUP1 PUSH32 0x52656365697665206D657373616765206661696C656400000000000000000000 DUP2 MSTORE POP PUSH1 0x20 ADD SWAP2 POP POP PUSH1 0x40 MLOAD DUP1 SWAP2 SUB SWAP1 REVERT JUMPDEST PUSH2 0x5E1 DUP2 PUSH2 0xBBF JUMP JUMPDEST PUSH1 0x0 SHR PUSH20 0xFFFFFFFFFFFFFFFFFFFFFFFFFFFFFFFFFFFFFFFF AND PUSH32 0x6041979BC0AECBE261EEAC58BFE921BBE6D788AFFAB5904A002DAD149BC544F2 PUSH2 0x624 DUP4 PUSH2 0xBD7 JUMP JUMPDEST PUSH1 0x0 SHR PUSH2 0x630 DUP5 PUSH2 0xBEF JUMP JUMPDEST PUSH2 0x639 DUP7 PUSH2 0xC07 JUMP JUMPDEST PUSH1 0x40 MLOAD DUP1 DUP5 PUSH20 0xFFFFFFFFFFFFFFFFFFFFFFFFFFFFFFFFFFFFFFFF AND DUP2 MSTORE PUSH1 0x20 ADD DUP4 DUP2 MSTORE PUSH1 0x20 ADD DUP3 PUSH4 0xFFFFFFFF AND DUP2 MSTORE PUSH1 0x20 ADD SWAP4 POP POP POP POP PUSH1 0x40 MLOAD DUP1 SWAP2 SUB SWAP1 LOG2 PUSH1 0x0 PUSH2 0x683 DUP3 PUSH2 0xC30 JUMP JUMPDEST SWAP1 POP PUSH2 0x694 DUP2 PUSH3 0xFFFFFF NOT AND PUSH2 0xC7D JUMP JUMPDEST ISZERO PUSH2 0x728 JUMPI PUSH1 0x0 PUSH2 0x6AA DUP3 PUSH3 0xFFFFFF NOT AND PUSH2 0xCC0 JUMP JUMPDEST PUSH12 0xFFFFFFFFFFFFFFFFFFFFFFFF AND SWAP1 POP PUSH1 0x14 DUP2 LT PUSH2 0x726 JUMPI PUSH1 0x0 PUSH2 0x6DE PUSH1 0x0 DUP5 PUSH3 0xFFFFFF NOT AND PUSH2 0xCE6 SWAP1 SWAP2 SWAP1 PUSH4 0xFFFFFFFF AND JUMP JUMPDEST SWAP1 POP PUSH1 0x0 PUSH2 0x70F PUSH2 0x704 PUSH1 0x14 DUP6 SUB PUSH1 0x0 DUP8 PUSH3 0xFFFFFF NOT AND PUSH2 0xCFC SWAP1 SWAP3 SWAP2 SWAP1 PUSH4 0xFFFFFFFF AND JUMP JUMPDEST PUSH3 0xFFFFFF NOT AND PUSH2 0xD3B JUMP JUMPDEST SWAP1 POP PUSH2 0x71B DUP3 DUP3 PUSH2 0xD82 JUMP JUMPDEST DUP1 SWAP9 POP DUP2 SWAP10 POP POP POP POP POP JUMPDEST POP JUMPDEST POP POP POP SWAP5 POP SWAP5 POP SWAP5 SWAP2 POP POP JUMP JUMPDEST PUSH32 0x0 DUP2 JUMP JUMPDEST PUSH1 0x1 DUP2 JUMP JUMPDEST PUSH1 0x0 DUP1 PUSH1 0x0 SWAP1 SLOAD SWAP1 PUSH2 0x100 EXP SWAP1 DIV PUSH20 0xFFFFFFFFFFFFFFFFFFFFFFFFFFFFFFFFFFFFFFFF AND SWAP1 POP SWAP1 JUMP JUMPDEST PUSH2 0x78F PUSH2 0x821 JUMP JUMPDEST PUSH1 0x0 PUSH20 0xFFFFFFFFFFFFFFFFFFFFFFFFFFFFFFFFFFFFFFFF AND DUP2 PUSH20 0xFFFFFFFFFFFFFFFFFFFFFFFFFFFFFFFFFFFFFFFF AND EQ ISZERO PUSH2 0x815 JUMPI PUSH1 0x40 MLOAD PUSH32 0x8C379A000000000000000000000000000000000000000000000000000000000 DUP2 MSTORE PUSH1 0x4 ADD DUP1 DUP1 PUSH1 0x20 ADD DUP3 DUP2 SUB DUP3 MSTORE PUSH1 0x26 DUP2 MSTORE PUSH1 0x20 ADD DUP1 PUSH2 0x1902 PUSH1 0x26 SWAP2 CODECOPY PUSH1 0x40 ADD SWAP2 POP POP PUSH1 0x40 MLOAD DUP1 SWAP2 SUB SWAP1 REVERT JUMPDEST PUSH2 0x81E DUP2 PUSH2 0xE48 JUMP JUMPDEST POP JUMP JUMPDEST PUSH2 0x829 PUSH2 0xF0C JUMP JUMPDEST PUSH20 0xFFFFFFFFFFFFFFFFFFFFFFFFFFFFFFFFFFFFFFFF AND PUSH2 0x847 PUSH2 0x75E JUMP JUMPDEST PUSH20 0xFFFFFFFFFFFFFFFFFFFFFFFFFFFFFFFFFFFFFFFF AND EQ PUSH2 0x8D0 JUMPI PUSH1 0x40 MLOAD PUSH32 0x8C379A000000000000000000000000000000000000000000000000000000000 DUP2 MSTORE PUSH1 0x4 ADD DUP1 DUP1 PUSH1 0x20 ADD DUP3 DUP2 SUB DUP3 MSTORE PUSH1 0x20 DUP2 MSTORE PUSH1 0x20 ADD DUP1 PUSH32 0x4F776E61626C653A2063616C6C6572206973206E6F7420746865206F776E6572 DUP2 MSTORE POP PUSH1 0x20 ADD SWAP2 POP POP PUSH1 0x40 MLOAD DUP1 SWAP2 SUB SWAP1 REVERT JUMPDEST JUMP JUMPDEST PUSH1 0x0 DUP1 DUP4 MLOAD SWAP1 POP PUSH1 0x0 PUSH1 0x20 DUP6 ADD SWAP1 POP PUSH2 0x8F3 DUP5 PUSH5 0xFFFFFFFFFF AND DUP3 DUP5 PUSH2 0xF14 JUMP JUMPDEST SWAP3 POP POP POP SWAP3 SWAP2 POP POP JUMP JUMPDEST PUSH2 0x90C DUP2 PUSH3 0xFFFFFF NOT AND PUSH2 0xC7D JUMP JUMPDEST PUSH2 0x97E JUMPI PUSH1 0x40 MLOAD PUSH32 0x8C379A000000000000000000000000000000000000000000000000000000000 DUP2 MSTORE PUSH1 0x4 ADD DUP1 DUP1 PUSH1 0x20 ADD DUP3 DUP2 SUB DUP3 MSTORE PUSH1 0x11 DUP2 MSTORE PUSH1 0x20 ADD DUP1 PUSH32 0x4D616C666F726D6564206D657373616765000000000000000000000000000000 DUP2 MSTORE POP PUSH1 0x20 ADD SWAP2 POP POP PUSH1 0x40 MLOAD DUP1 SWAP2 SUB SWAP1 REVERT JUMPDEST PUSH1 0x94 PUSH1 0xFF AND PUSH2 0x992 DUP3 PUSH3 0xFFFFFF NOT AND PUSH2 0xCC0 JUMP JUMPDEST PUSH12 0xFFFFFFFFFFFFFFFFFFFFFFFF AND LT ISZERO PUSH2 0xA14 JUMPI PUSH1 0x40 MLOAD PUSH32 0x8C379A000000000000000000000000000000000000000000000000000000000 DUP2 MSTORE PUSH1 0x4 ADD DUP1 DUP1 PUSH1 0x20 ADD DUP3 DUP2 SUB DUP3 MSTORE PUSH1 0x1A DUP2 MSTORE PUSH1 0x20 ADD DUP1 PUSH32 0x496E76616C6964206D6573736167653A20746F6F2073686F7274000000000000 DUP2 MSTORE POP PUSH1 0x20 ADD SWAP2 POP POP PUSH1 0x40 MLOAD DUP1 SWAP2 SUB SWAP1 REVERT JUMPDEST POP JUMP JUMPDEST PUSH1 0x0 PUSH2 0xA39 PUSH1 0x0 PUSH1 0xFF AND PUSH1 0x4 DUP5 PUSH3 0xFFFFFF NOT AND PUSH2 0xF83 SWAP1 SWAP3 SWAP2 SWAP1 PUSH4 0xFFFFFFFF AND JUMP JUMPDEST SWAP1 POP SWAP2 SWAP1 POP JUMP JUMPDEST PUSH1 0x0 PUSH2 0xA86 PUSH1 0x94 PUSH1 0xFF AND PUSH1 0x94 PUSH1 0xFF AND PUSH2 0xA5E DUP6 PUSH3 0xFFFFFF NOT AND PUSH2 0xCC0 JUMP JUMPDEST SUB PUSH12 0xFFFFFFFFFFFFFFFFFFFFFFFF AND PUSH1 0x0 DUP6 PUSH3 0xFFFFFF NOT AND PUSH2 0xFA8 SWAP1 SWAP4 SWAP3 SWAP2 SWAP1 PUSH4 0xFFFFFFFF AND JUMP JUMPDEST SWAP1 POP SWAP2 SWAP1 POP JUMP JUMPDEST PUSH2 0xA9C DUP2 PUSH3 0xFFFFFF NOT AND PUSH2 0xC7D JUMP JUMPDEST PUSH2 0xB0E JUMPI PUSH1 0x40 MLOAD PUSH32 0x8C379A000000000000000000000000000000000000000000000000000000000 DUP2 MSTORE PUSH1 0x4 ADD DUP1 DUP1 PUSH1 0x20 ADD DUP3 DUP2 SUB DUP3 MSTORE PUSH1 0x11 DUP2 MSTORE PUSH1 0x20 ADD DUP1 PUSH32 0x4D616C666F726D6564206D657373616765000000000000000000000000000000 DUP2 MSTORE POP PUSH1 0x20 ADD SWAP2 POP POP PUSH1 0x40 MLOAD DUP1 SWAP2 SUB SWAP1 REVERT JUMPDEST PUSH1 0xE4 PUSH1 0xFF AND PUSH2 0xB22 DUP3 PUSH3 0xFFFFFF NOT AND PUSH2 0xCC0 JUMP JUMPDEST PUSH12 0xFFFFFFFFFFFFFFFFFFFFFFFF AND LT ISZERO PUSH2 0xBA4 JUMPI PUSH1 0x40 MLOAD PUSH32 0x8C379A000000000000000000000000000000000000000000000000000000000 DUP2 MSTORE PUSH1 0x4 ADD DUP1 DUP1 PUSH1 0x20 ADD DUP3 DUP2 SUB DUP3 MSTORE PUSH1 0x1F DUP2 MSTORE PUSH1 0x20 ADD DUP1 PUSH32 0x496E76616C6964206275726E206D6573736167653A20746F6F2073686F727400 DUP2 MSTORE POP PUSH1 0x20 ADD SWAP2 POP POP PUSH1 0x40 MLOAD DUP1 SWAP2 SUB SWAP1 REVERT JUMPDEST POP JUMP JUMPDEST PUSH1 0x0 PUSH2 0xBB8 DUP3 PUSH3 0xFFFFFF NOT AND PUSH2 0x1054 JUMP JUMPDEST SWAP1 POP SWAP2 SWAP1 POP JUMP JUMPDEST PUSH1 0x0 PUSH2 0xBD0 DUP3 PUSH3 0xFFFFFF NOT AND PUSH2 0x107D JUMP JUMPDEST SWAP1 POP SWAP2 SWAP1 POP JUMP JUMPDEST PUSH1 0x0 PUSH2 0xBE8 DUP3 PUSH3 0xFFFFFF NOT AND PUSH2 0x10A6 JUMP JUMPDEST SWAP1 POP SWAP2 SWAP1 POP JUMP JUMPDEST PUSH1 0x0 PUSH2 0xC00 DUP3 PUSH3 0xFFFFFF NOT AND PUSH2 0x10CF JUMP JUMPDEST SWAP1 POP SWAP2 SWAP1 POP JUMP JUMPDEST PUSH1 0x0 PUSH2 0xC29 PUSH1 0x8 PUSH1 0xFF AND PUSH1 0x4 DUP5 PUSH3 0xFFFFFF NOT AND PUSH2 0xF83 SWAP1 SWAP3 SWAP2 SWAP1 PUSH4 0xFFFFFFFF AND JUMP JUMPDEST SWAP1 POP SWAP2 SWAP1 POP JUMP JUMPDEST PUSH1 0x0 PUSH2 0xC76 PUSH1 0xE4 PUSH1 0xFF AND PUSH1 0xE4 PUSH1 0xFF AND PUSH2 0xC4E DUP6 PUSH3 0xFFFFFF NOT AND PUSH2 0xCC0 JUMP JUMPDEST SUB PUSH12 0xFFFFFFFFFFFFFFFFFFFFFFFF AND PUSH1 0x0 DUP6 PUSH3 0xFFFFFF NOT AND PUSH2 0xFA8 SWAP1 SWAP4 SWAP3 SWAP2 SWAP1 PUSH4 0xFFFFFFFF AND JUMP JUMPDEST SWAP1 POP SWAP2 SWAP1 POP JUMP JUMPDEST PUSH1 0x0 PUSH5 0xFFFFFFFFFF PUSH2 0xC8E DUP4 PUSH2 0x10F8 JUMP JUMPDEST PUSH5 0xFFFFFFFFFF AND EQ ISZERO PUSH2 0xCA4 JUMPI PUSH1 0x0 SWAP1 POP PUSH2 0xCBB JUMP JUMPDEST PUSH1 0x0 PUSH2 0xCAF DUP4 PUSH2 0x110D JUMP JUMPDEST SWAP1 POP PUSH1 0x40 MLOAD DUP2 GT ISZERO SWAP2 POP POP JUMPDEST SWAP2 SWAP1 POP JUMP JUMPDEST PUSH1 0x0 DUP1 PUSH12 0xFFFFFFFFFFFFFFFFFFFFFFFF SWAP1 POP PUSH1 0x0 PUSH1 0x18 SWAP1 POP DUP2 DUP5 DUP3 SHR AND SWAP3 POP POP POP SWAP2 SWAP1 POP JUMP JUMPDEST PUSH1 0x0 PUSH2 0xCF4 DUP4 DUP4 PUSH1 0x14 PUSH2 0xF83 JUMP JUMPDEST SWAP1 POP SWAP3 SWAP2 POP POP JUMP JUMPDEST PUSH1 0x0 PUSH2 0xD32 DUP5 PUSH2 0xD2B DUP6 PUSH2 0xD0F DUP9 PUSH2 0xCC0 JUMP JUMPDEST PUSH12 0xFFFFFFFFFFFFFFFFFFFFFFFF AND PUSH2 0x1137 SWAP1 SWAP2 SWAP1 PUSH4 0xFFFFFFFF AND JUMP JUMPDEST DUP6 DUP6 PUSH2 0xFA8 JUMP JUMPDEST SWAP1 POP SWAP4 SWAP3 POP POP POP JUMP JUMPDEST PUSH1 0x60 PUSH1 0x0 DUP1 PUSH2 0xD49 DUP5 PUSH2 0xCC0 JUMP JUMPDEST PUSH12 0xFFFFFFFFFFFFFFFFFFFFFFFF AND SWAP1 POP PUSH1 0x40 MLOAD SWAP2 POP DUP2 SWAP3 POP PUSH2 0xD6E DUP5 PUSH1 0x20 DUP5 ADD PUSH2 0x11BA JUMP JUMPDEST POP PUSH1 0x20 DUP2 DUP4 ADD ADD PUSH1 0x40 MSTORE DUP1 DUP3 MSTORE POP POP SWAP2 SWAP1 POP JUMP JUMPDEST PUSH1 0x0 PUSH1 0x60 DUP4 PUSH20 0xFFFFFFFFFFFFFFFFFFFFFFFFFFFFFFFFFFFFFFFF AND DUP4 PUSH1 0x40 MLOAD DUP1 DUP3 DUP1 MLOAD SWAP1 PUSH1 0x20 ADD SWAP1 DUP1 DUP4 DUP4 JUMPDEST PUSH1 0x20 DUP4 LT PUSH2 0xDD1 JUMPI DUP1 MLOAD DUP3 MSTORE PUSH1 0x20 DUP3 ADD SWAP2 POP PUSH1 0x20 DUP2 ADD SWAP1 POP PUSH1 0x20 DUP4 SUB SWAP3 POP PUSH2 0xDAE JUMP JUMPDEST PUSH1 0x1 DUP4 PUSH1 0x20 SUB PUSH2 0x100 EXP SUB DUP1 NOT DUP3 MLOAD AND DUP2 DUP5 MLOAD AND DUP1 DUP3 OR DUP6 MSTORE POP POP POP POP POP POP SWAP1 POP ADD SWAP2 POP POP PUSH1 0x0 PUSH1 0x40 MLOAD DUP1 DUP4 SUB DUP2 PUSH1 0x0 DUP7 GAS CALL SWAP2 POP POP RETURNDATASIZE DUP1 PUSH1 0x0 DUP2 EQ PUSH2 0xE33 JUMPI PUSH1 0x40 MLOAD SWAP2 POP PUSH1 0x1F NOT PUSH1 0x3F RETURNDATASIZE ADD AND DUP3 ADD PUSH1 0x40 MSTORE RETURNDATASIZE DUP3 MSTORE RETURNDATASIZE PUSH1 0x0 PUSH1 0x20 DUP5 ADD RETURNDATACOPY PUSH2 0xE38 JUMP JUMPDEST PUSH1 0x60 SWAP2 POP JUMPDEST POP DUP1 SWAP3 POP DUP2 SWAP4 POP POP POP SWAP3 POP SWAP3 SWAP1 POP JUMP JUMPDEST PUSH1 0x0 DUP1 PUSH1 0x0 SWAP1 SLOAD SWAP1 PUSH2 0x100 EXP SWAP1 DIV PUSH20 0xFFFFFFFFFFFFFFFFFFFFFFFFFFFFFFFFFFFFFFFF AND SWAP1 POP DUP2 PUSH1 0x0 DUP1 PUSH2 0x100 EXP DUP2 SLOAD DUP2 PUSH20 0xFFFFFFFFFFFFFFFFFFFFFFFFFFFFFFFFFFFFFFFF MUL NOT AND SWAP1 DUP4 PUSH20 0xFFFFFFFFFFFFFFFFFFFFFFFFFFFFFFFFFFFFFFFF AND MUL OR SWAP1 SSTORE POP DUP2 PUSH20 0xFFFFFFFFFFFFFFFFFFFFFFFFFFFFFFFFFFFFFFFF AND DUP2 PUSH20 0xFFFFFFFFFFFFFFFFFFFFFFFFFFFFFFFFFFFFFFFF AND PUSH32 0x8BE0079C531659141344CD1FD0A4F28419497F9722A3DAAFE3B4186F6B6457E0 PUSH1 0x40 MLOAD PUSH1 0x40 MLOAD DUP1 SWAP2 SUB SWAP1 LOG3 POP POP JUMP JUMPDEST PUSH1 0x0 CALLER SWAP1 POP SWAP1 JUMP JUMPDEST PUSH1 0x0 DUP1 PUSH2 0xF2A DUP4 DUP6 PUSH2 0x1367 SWAP1 SWAP2 SWAP1 PUSH4 0xFFFFFFFF AND JUMP JUMPDEST SWAP1 POP PUSH1 0x40 MLOAD DUP2 GT ISZERO PUSH2 0xF3B JUMPI PUSH1 0x0 SWAP1 POP JUMPDEST PUSH1 0x0 DUP2 EQ ISZERO PUSH2 0xF6D JUMPI PUSH32 0xFFFFFFFFFFFFFFFFFFFFFFFFFFFFFFFFFFFFFFFFFFFFFFFFFFFFFFFFFF000000 SWAP2 POP POP PUSH2 0xF7C JUMP JUMPDEST PUSH2 0xF78 DUP6 DUP6 DUP6 PUSH2 0x13EA JUMP JUMPDEST SWAP2 POP POP JUMPDEST SWAP4 SWAP3 POP POP POP JUMP JUMPDEST PUSH1 0x0 PUSH1 0x8 DUP3 PUSH1 0x20 SUB MUL PUSH1 0xFF AND PUSH2 0xF9A DUP6 DUP6 DUP6 PUSH2 0x1415 JUMP JUMPDEST PUSH1 0x0 SHR SWAP1 SHR SWAP1 POP SWAP4 SWAP3 POP POP POP JUMP JUMPDEST PUSH1 0x0 DUP1 PUSH2 0xFB4 DUP7 PUSH2 0x15DC JUMP JUMPDEST PUSH12 0xFFFFFFFFFFFFFFFFFFFFFFFF AND SWAP1 POP PUSH2 0xFCD DUP7 PUSH2 0x110D JUMP JUMPDEST PUSH2 0xFF2 DUP6 PUSH2 0xFE4 DUP9 DUP6 PUSH2 0x1367 SWAP1 SWAP2 SWAP1 PUSH4 0xFFFFFFFF AND JUMP JUMPDEST PUSH2 0x1367 SWAP1 SWAP2 SWAP1 PUSH4 0xFFFFFFFF AND JUMP JUMPDEST GT ISZERO PUSH2 0x1021 JUMPI PUSH32 0xFFFFFFFFFFFFFFFFFFFFFFFFFFFFFFFFFFFFFFFFFFFFFFFFFFFFFFFFFF000000 SWAP2 POP POP PUSH2 0x104C JUMP JUMPDEST PUSH2 0x1034 DUP6 DUP3 PUSH2 0x1367 SWAP1 SWAP2 SWAP1 PUSH4 0xFFFFFFFF AND JUMP JUMPDEST SWAP1 POP PUSH2 0x1048 DUP4 PUSH5 0xFFFFFFFFFF AND DUP3 DUP7 PUSH2 0xF14 JUMP JUMPDEST SWAP2 POP POP JUMPDEST SWAP5 SWAP4 POP POP POP POP JUMP JUMPDEST PUSH1 0x0 PUSH2 0x1076 PUSH1 0x0 PUSH1 0xFF AND PUSH1 0x4 DUP5 PUSH3 0xFFFFFF NOT AND PUSH2 0xF83 SWAP1 SWAP3 SWAP2 SWAP1 PUSH4 0xFFFFFFFF AND JUMP JUMPDEST SWAP1 POP SWAP2 SWAP1 POP JUMP JUMPDEST PUSH1 0x0 PUSH2 0x109F PUSH1 0x24 PUSH1 0xFF AND PUSH1 0x20 DUP5 PUSH3 0xFFFFFF NOT AND PUSH2 0x1415 SWAP1 SWAP3 SWAP2 SWAP1 PUSH4 0xFFFFFFFF AND JUMP JUMPDEST SWAP1 POP SWAP2 SWAP1 POP JUMP JUMPDEST PUSH1 0x0 PUSH2 0x10C8 PUSH1 0x4 PUSH1 0xFF AND PUSH1 0x20 DUP5 PUSH3 0xFFFFFF NOT AND PUSH2 0x1415 SWAP1 SWAP3 SWAP2 SWAP1 PUSH4 0xFFFFFFFF AND JUMP JUMPDEST SWAP1 POP SWAP2 SWAP1 POP JUMP JUMPDEST PUSH1 0x0 PUSH2 0x10F1 PUSH1 0x44 PUSH1 0xFF AND PUSH1 0x20 DUP5 PUSH3 0xFFFFFF NOT AND PUSH2 0xF83 SWAP1 SWAP3 SWAP2 SWAP1 PUSH4 0xFFFFFFFF AND JUMP JUMPDEST SWAP1 POP SWAP2 SWAP1 POP JUMP JUMPDEST PUSH1 0x0 DUP1 PUSH1 0xD8 PUSH1 0xFF AND SWAP1 POP DUP3 DUP2 SHR SWAP2 POP POP SWAP2 SWAP1 POP JUMP JUMPDEST PUSH1 0x0 PUSH2 0x1118 DUP3 PUSH2 0xCC0 JUMP JUMPDEST PUSH2 0x1121 DUP4 PUSH2 0x15DC JUMP JUMPDEST ADD PUSH12 0xFFFFFFFFFFFFFFFFFFFFFFFF AND SWAP1 POP SWAP2 SWAP1 POP JUMP JUMPDEST PUSH1 0x0 DUP3 DUP3 GT ISZERO PUSH2 0x11AF JUMPI PUSH1 0x40 MLOAD PUSH32 0x8C379A000000000000000000000000000000000000000000000000000000000 DUP2 MSTORE PUSH1 0x4 ADD DUP1 DUP1 PUSH1 0x20 ADD DUP3 DUP2 SUB DUP3 MSTORE PUSH1 0x1D DUP2 MSTORE PUSH1 0x20 ADD DUP1 PUSH32 0x556E646572666C6F7720647572696E67207375627472616374696F6E2E000000 DUP2 MSTORE POP PUSH1 0x20 ADD SWAP2 POP POP PUSH1 0x40 MLOAD DUP1 SWAP2 SUB SWAP1 REVERT JUMPDEST DUP2 DUP4 SUB SWAP1 POP SWAP3 SWAP2 POP POP JUMP JUMPDEST PUSH1 0x0 PUSH2 0x11C5 DUP4 PUSH2 0x1605 JUMP JUMPDEST PUSH2 0x121A JUMPI PUSH1 0x40 MLOAD PUSH32 0x8C379A000000000000000000000000000000000000000000000000000000000 DUP2 MSTORE PUSH1 0x4 ADD DUP1 DUP1 PUSH1 0x20 ADD DUP3 DUP2 SUB DUP3 MSTORE PUSH1 0x28 DUP2 MSTORE PUSH1 0x20 ADD DUP1 PUSH2 0x1983 PUSH1 0x28 SWAP2 CODECOPY PUSH1 0x40 ADD SWAP2 POP POP PUSH1 0x40 MLOAD DUP1 SWAP2 SUB SWAP1 REVERT JUMPDEST PUSH2 0x1223 DUP4 PUSH2 0xC7D JUMP JUMPDEST PUSH2 0x1278 JUMPI PUSH1 0x40 MLOAD PUSH32 0x8C379A000000000000000000000000000000000000000000000000000000000 DUP2 MSTORE PUSH1 0x4 ADD DUP1 DUP1 PUSH1 0x20 ADD DUP3 DUP2 SUB DUP3 MSTORE PUSH1 0x2B DUP2 MSTORE PUSH1 0x20 ADD DUP1 PUSH2 0x19AB PUSH1 0x2B SWAP2 CODECOPY PUSH1 0x40 ADD SWAP2 POP POP PUSH1 0x40 MLOAD DUP1 SWAP2 SUB SWAP1 REVERT JUMPDEST PUSH1 0x0 PUSH2 0x1283 DUP5 PUSH2 0xCC0 JUMP JUMPDEST PUSH12 0xFFFFFFFFFFFFFFFFFFFFFFFF AND SWAP1 POP PUSH1 0x0 PUSH2 0x129E DUP6 PUSH2 0x15DC JUMP JUMPDEST PUSH12 0xFFFFFFFFFFFFFFFFFFFFFFFF AND SWAP1 POP PUSH1 0x0 DUP1 PUSH1 0x40 MLOAD SWAP2 POP DUP6 DUP3 GT ISZERO PUSH2 0x12C4 JUMPI PUSH1 0x20 PUSH1 0x60 REVERT JUMPDEST DUP4 DUP7 DUP6 DUP6 PUSH1 0x4 GAS STATICCALL SWAP1 POP DUP1 PUSH2 0x1341 JUMPI PUSH1 0x40 MLOAD PUSH32 0x8C379A000000000000000000000000000000000000000000000000000000000 DUP2 MSTORE PUSH1 0x4 ADD DUP1 DUP1 PUSH1 0x20 ADD DUP3 DUP2 SUB DUP3 MSTORE PUSH1 0xC DUP2 MSTORE PUSH1 0x20 ADD DUP1 PUSH32 0x6964656E74697479204F4F470000000000000000000000000000000000000000 DUP2 MSTORE POP PUSH1 0x20 ADD SWAP2 POP POP PUSH1 0x40 MLOAD DUP1 SWAP2 SUB SWAP1 REVERT JUMPDEST PUSH2 0x135B PUSH2 0x134D DUP9 PUSH2 0x10F8 JUMP JUMPDEST PUSH5 0xFFFFFFFFFF AND DUP8 DUP7 PUSH2 0x13EA JUMP JUMPDEST SWAP5 POP POP POP POP POP SWAP3 SWAP2 POP POP JUMP JUMPDEST PUSH1 0x0 DUP2 DUP4 ADD SWAP1 POP DUP3 DUP2 LT ISZERO PUSH2 0x13E4 JUMPI PUSH1 0x40 MLOAD PUSH32 0x8C379A000000000000000000000000000000000000000000000000000000000 DUP2 MSTORE PUSH1 0x4 ADD DUP1 DUP1 PUSH1 0x20 ADD DUP3 DUP2 SUB DUP3 MSTORE PUSH1 0x19 DUP2 MSTORE PUSH1 0x20 ADD DUP1 PUSH32 0x4F766572666C6F7720647572696E67206164646974696F6E2E00000000000000 DUP2 MSTORE POP PUSH1 0x20 ADD SWAP2 POP POP PUSH1 0x40 MLOAD DUP1 SWAP2 SUB SWAP1 REVERT JUMPDEST SWAP3 SWAP2 POP POP JUMP JUMPDEST PUSH1 0x0 DUP1 PUSH1 0x60 SWAP1 POP PUSH1 0x0 PUSH1 0x18 SWAP1 POP DUP6 DUP4 OR DUP3 SHL SWAP3 POP DUP5 DUP4 OR DUP3 SHL SWAP3 POP DUP4 DUP4 OR DUP2 SHL SWAP3 POP POP POP SWAP4 SWAP3 POP POP POP JUMP JUMPDEST PUSH1 0x0 DUP1 DUP3 PUSH1 0xFF AND EQ ISZERO PUSH2 0x142D JUMPI PUSH1 0x0 DUP1 SHL SWAP1 POP PUSH2 0x15D5 JUMP JUMPDEST PUSH2 0x1436 DUP5 PUSH2 0xCC0 JUMP JUMPDEST PUSH12 0xFFFFFFFFFFFFFFFFFFFFFFFF AND PUSH2 0x145A DUP4 PUSH1 0xFF AND DUP6 PUSH2 0x1367 SWAP1 SWAP2 SWAP1 PUSH4 0xFFFFFFFF AND JUMP JUMPDEST GT ISZERO PUSH2 0x153C JUMPI PUSH2 0x149B PUSH2 0x146C DUP6 PUSH2 0x15DC JUMP JUMPDEST PUSH12 0xFFFFFFFFFFFFFFFFFFFFFFFF AND PUSH2 0x1483 DUP7 PUSH2 0xCC0 JUMP JUMPDEST PUSH12 0xFFFFFFFFFFFFFFFFFFFFFFFF AND DUP6 DUP6 PUSH1 0xFF AND PUSH2 0x1618 JUMP JUMPDEST PUSH1 0x40 MLOAD PUSH32 0x8C379A000000000000000000000000000000000000000000000000000000000 DUP2 MSTORE PUSH1 0x4 ADD DUP1 DUP1 PUSH1 0x20 ADD DUP3 DUP2 SUB DUP3 MSTORE DUP4 DUP2 DUP2 MLOAD DUP2 MSTORE PUSH1 0x20 ADD SWAP2 POP DUP1 MLOAD SWAP1 PUSH1 0x20 ADD SWAP1 DUP1 DUP4 DUP4 PUSH1 0x0 JUMPDEST DUP4 DUP2 LT ISZERO PUSH2 0x1501 JUMPI DUP1 DUP3 ADD MLOAD DUP2 DUP5 ADD MSTORE PUSH1 0x20 DUP2 ADD SWAP1 POP PUSH2 0x14E6 JUMP JUMPDEST POP POP POP POP SWAP1 POP SWAP1 DUP2 ADD SWAP1 PUSH1 0x1F AND DUP1 ISZERO PUSH2 0x152E JUMPI DUP1 DUP3 SUB DUP1 MLOAD PUSH1 0x1 DUP4 PUSH1 0x20 SUB PUSH2 0x100 EXP SUB NOT AND DUP2 MSTORE PUSH1 0x20 ADD SWAP2 POP JUMPDEST POP SWAP3 POP POP POP PUSH1 0x40 MLOAD DUP1 SWAP2 SUB SWAP1 REVERT JUMPDEST PUSH1 0x20 DUP3 PUSH1 0xFF AND GT ISZERO PUSH2 0x1599 JUMPI PUSH1 0x40 MLOAD PUSH32 0x8C379A000000000000000000000000000000000000000000000000000000000 DUP2 MSTORE PUSH1 0x4 ADD DUP1 DUP1 PUSH1 0x20 ADD DUP3 DUP2 SUB DUP3 MSTORE PUSH1 0x3A DUP2 MSTORE PUSH1 0x20 ADD DUP1 PUSH2 0x1949 PUSH1 0x3A SWAP2 CODECOPY PUSH1 0x40 ADD SWAP2 POP POP PUSH1 0x40 MLOAD DUP1 SWAP2 SUB SWAP1 REVERT JUMPDEST PUSH1 0x0 PUSH1 0x8 DUP4 MUL SWAP1 POP PUSH1 0x0 PUSH2 0x15AC DUP7 PUSH2 0x15DC JUMP JUMPDEST PUSH12 0xFFFFFFFFFFFFFFFFFFFFFFFF AND SWAP1 POP PUSH1 0x0 PUSH2 0x15C7 DUP4 PUSH2 0x1752 JUMP JUMPDEST SWAP1 POP DUP1 DUP7 DUP4 ADD MLOAD AND SWAP4 POP POP POP POP JUMPDEST SWAP4 SWAP3 POP POP POP JUMP JUMPDEST PUSH1 0x0 DUP1 PUSH12 0xFFFFFFFFFFFFFFFFFFFFFFFF SWAP1 POP PUSH1 0x0 PUSH1 0x78 PUSH1 0xFF AND SWAP1 POP DUP2 DUP5 DUP3 SHR AND SWAP3 POP POP POP SWAP2 SWAP1 POP JUMP JUMPDEST PUSH1 0x0 PUSH2 0x1610 DUP3 PUSH2 0x1781 JUMP JUMPDEST ISZERO SWAP1 POP SWAP2 SWAP1 POP JUMP JUMPDEST PUSH1 0x60 PUSH1 0x0 PUSH2 0x1625 DUP7 PUSH2 0x17B9 JUMP JUMPDEST SWAP2 POP POP PUSH1 0x0 PUSH2 0x1633 DUP7 PUSH2 0x17B9 JUMP JUMPDEST SWAP2 POP POP PUSH1 0x0 PUSH2 0x1641 DUP7 PUSH2 0x17B9 JUMP JUMPDEST SWAP2 POP POP PUSH1 0x0 PUSH2 0x164F DUP7 PUSH2 0x17B9 JUMP JUMPDEST SWAP2 POP POP DUP4 DUP4 DUP4 DUP4 PUSH1 0x40 MLOAD PUSH1 0x20 ADD DUP1 DUP1 PUSH2 0x19D6 PUSH1 0x35 SWAP2 CODECOPY PUSH1 0x35 ADD DUP6 PUSH6 0xFFFFFFFFFFFF AND PUSH1 0xD0 SHL DUP2 MSTORE PUSH1 0x6 ADD DUP1 PUSH32 0x2077697468206C656E6774682030780000000000000000000000000000000000 DUP2 MSTORE POP PUSH1 0xF ADD DUP5 PUSH6 0xFFFFFFFFFFFF AND PUSH1 0xD0 SHL DUP2 MSTORE PUSH1 0x6 ADD DUP1 PUSH2 0x1928 PUSH1 0x21 SWAP2 CODECOPY PUSH1 0x21 ADD DUP4 PUSH6 0xFFFFFFFFFFFF AND PUSH1 0xD0 SHL DUP2 MSTORE PUSH1 0x6 ADD DUP1 PUSH32 0x2077697468206C656E6774682030780000000000000000000000000000000000 DUP2 MSTORE POP PUSH1 0xF ADD DUP3 PUSH6 0xFFFFFFFFFFFF AND PUSH1 0xD0 SHL DUP2 MSTORE PUSH1 0x6 ADD DUP1 PUSH32 0x2E00000000000000000000000000000000000000000000000000000000000000 DUP2 MSTORE POP PUSH1 0x1 ADD SWAP5 POP POP POP POP POP PUSH1 0x40 MLOAD PUSH1 0x20 DUP2 DUP4 SUB SUB DUP2 MSTORE SWAP1 PUSH1 0x40 MSTORE SWAP5 POP POP POP POP POP SWAP5 SWAP4 POP POP POP POP JUMP JUMPDEST PUSH1 0x0 PUSH32 0x8000000000000000000000000000000000000000000000000000000000000000 PUSH1 0x1 DUP4 SUB SAR SWAP1 POP SWAP2 SWAP1 POP JUMP JUMPDEST PUSH1 0x0 PUSH32 0xFFFFFFFFFFFFFFFFFFFFFFFFFFFFFFFFFFFFFFFFFFFFFFFFFFFFFFFFFF000000 PUSH3 0xFFFFFF NOT AND DUP3 PUSH3 0xFFFFFF NOT AND EQ SWAP1 POP SWAP2 SWAP1 POP JUMP JUMPDEST PUSH1 0x0 DUP1 PUSH1 0x0 PUSH1 0x1F SWAP1 POP JUMPDEST PUSH1 0xF DUP2 PUSH1 0xFF AND GT ISZERO PUSH2 0x180D JUMPI PUSH1 0x0 PUSH1 0x8 DUP3 MUL PUSH1 0xFF AND DUP6 SWAP1 SHR SWAP1 POP PUSH2 0x17E6 DUP2 PUSH2 0x1865 JUMP JUMPDEST PUSH2 0xFFFF AND DUP5 OR SWAP4 POP PUSH1 0x10 DUP3 PUSH1 0xFF AND EQ PUSH2 0x1801 JUMPI PUSH1 0x10 DUP5 SWAP1 SHL SWAP4 POP JUMPDEST POP PUSH1 0x1 DUP2 SUB SWAP1 POP PUSH2 0x17C3 JUMP JUMPDEST POP PUSH1 0x0 PUSH1 0xF SWAP1 POP JUMPDEST PUSH1 0xFF DUP2 PUSH1 0xFF AND LT ISZERO PUSH2 0x185F JUMPI PUSH1 0x0 PUSH1 0x8 DUP3 MUL PUSH1 0xFF AND DUP6 SWAP1 SHR SWAP1 POP PUSH2 0x1838 DUP2 PUSH2 0x1865 JUMP JUMPDEST PUSH2 0xFFFF AND DUP4 OR SWAP3 POP PUSH1 0x0 DUP3 PUSH1 0xFF AND EQ PUSH2 0x1853 JUMPI PUSH1 0x10 DUP4 SWAP1 SHL SWAP3 POP JUMPDEST POP PUSH1 0x1 DUP2 SUB SWAP1 POP PUSH2 0x1815 JUMP JUMPDEST POP SWAP2 POP SWAP2 JUMP JUMPDEST PUSH1 0x0 PUSH2 0x1877 PUSH1 0x4 DUP4 PUSH1 0xFF AND SWAP1 SHR PUSH2 0x189E JUMP JUMPDEST PUSH1 0xFF AND DUP2 OR SWAP1 POP PUSH1 0x8 DUP2 PUSH2 0xFFFF AND SWAP1 SHL SWAP1 POP PUSH2 0x1892 DUP3 PUSH2 0x189E JUMP JUMPDEST PUSH1 0xFF AND DUP2 OR SWAP1 POP SWAP2 SWAP1 POP JUMP JUMPDEST PUSH1 0x0 DUP1 PUSH1 0xF DUP4 AND SWAP1 POP PUSH1 0x40 MLOAD DUP1 PUSH1 0x40 ADD PUSH1 0x40 MSTORE DUP1 PUSH1 0x10 DUP2 MSTORE PUSH1 0x20 ADD PUSH32 0x3031323334353637383961626364656600000000000000000000000000000000 DUP2 MSTORE POP DUP2 PUSH1 0xFF AND DUP2 MLOAD DUP2 LT PUSH2 0x18EB JUMPI INVALID JUMPDEST PUSH1 0x20 ADD ADD MLOAD PUSH1 0xF8 SHR PUSH1 0xF8 SHL PUSH1 0xF8 SHR SWAP2 POP POP SWAP2 SWAP1 POP JUMP INVALID 0x4F PUSH24 0x6E61626C653A206E6577206F776E65722069732074686520 PUSH27 0x65726F20616464726573732E20417474656D7074656420746F2069 PUSH15 0x646578206174206F66667365742030 PUSH25 0x54797065644D656D566965772F696E646578202D2041747465 PUSH14 0x7074656420746F20696E64657820 PUSH14 0x6F7265207468616E203332206279 PUSH21 0x657354797065644D656D566965772F636F7079546F KECCAK256 0x2D KECCAK256 0x4E PUSH22 0x6C6C20706F696E74657220646572656654797065644D PUSH6 0x6D566965772F PUSH4 0x6F707954 PUSH16 0x202D20496E76616C696420706F696E74 PUSH6 0x722064657265 PUSH7 0x54797065644D65 PUSH14 0x566965772F696E646578202D204F PUSH23 0x657272616E2074686520766965772E20536C6963652069 PUSH20 0x206174203078A2646970667358221220612370A6 DUP9 0xB1 SHR 0x25 EQ 0xC8 0xA9 0x29 PUSH9 0x671A5A041DEDD5B9F1 0xBD DUP9 DUP12 GASPRICE 0x5E SWAP5 SWAP3 SHR XOR 0xDD PUSH5 0x736F6C6343 STOP SMOD MOD STOP CALLER 0x4D PUSH6 0x737361676520 PUSH21 0x72616E736D697474657220697320746865207A6572 PUSH16 0x20616464726573730000000000000000 "
        },
        "methodIdentifiers": {
          "messageTransmitter()": "7b04c181",
          "owner()": "8da5cb5b",
          "relay(bytes,bytes)": "564a5158",
          "supportedMessageBodyVersion()": "875c7ecf",
          "supportedMessageVersion()": "01358f9e",
          "transferOwnership(address)": "f2fde38b"
        }
      },
      "storageLayout": {
        "storage": [
          {
            "astId": 3282,
            "contract": "contracts/core/CCTPHookWrapper.sol:CCTPHookWrapper",
            "label": "_owner",
            "offset": 0,
            "slot": "0",
            "type": "t_address"
          }
        ],
        "types": {
          "t_address": {
            "encoding": "inplace",
            "label": "address",
            "numberOfBytes": "20"
          }
        }
      },
      "userdoc": {
        "kind": "user",
        "methods": {
          "relay(bytes,bytes)": {
            "notice": "Relays a burn message to a local message transmitter and executes the hook, if present."
          }
        },
        "notice": "A sample wrapper around CCTP v2 that relays a message and optionally executes the hook contained in the Burn Message.",
        "version": 1
      }
    }
  }
}