{
  "_format": "hh-sol-artifact-1",
  "contractName": "MultichainPayroll",
  "sourceName": "contracts/core/MultichainPayroll.sol",
  "abi": [
    {
      "inputs": [
        {
          "internalType": "address",
          "name": "_usdc",
          "type": "address"
        },
        {
          "internalType": "address",
          "name": "_tokenMessenger",
          "type": "address"
        }
      ],
      "stateMutability": "nonpayable",
      "type": "constructor"
    },
    {
      "anonymous": false,
      "inputs": [
        {
          "indexed": true,
          "internalType": "address",
          "name": "employee",
          "type": "address"
        },
        {
          "indexed": false,
          "internalType": "address",
          "name": "token",
          "type": "address"
        },
        {
          "indexed": false,
          "internalType": "uint256",
          "name": "amount",
          "type": "uint256"
        }
      ],
      "name": "DirectTransferExecuted",
      "type": "event"
    },
    {
      "anonymous": false,
      "inputs": [
        {
          "indexed": true,
          "internalType": "address",
          "name": "employee",
          "type": "address"
        },
        {
          "indexed": false,
          "internalType": "uint32",
          "name": "domain",
          "type": "uint32"
        },
        {
          "indexed": false,
          "internalType": "address",
          "name": "token",
          "type": "address"
        },
        {
          "indexed": false,
          "internalType": "bool",
          "name": "lending",
          "type": "bool"
        }
      ],
      "name": "EmployeeRouteSet",
      "type": "event"
    },
    {
      "anonymous": false,
      "inputs": [
        {
          "indexed": true,
          "internalType": "address",
          "name": "employee",
          "type": "address"
        },
        {
          "indexed": false,
          "internalType": "address",
          "name": "token",
          "type": "address"
        },
        {
          "indexed": false,
          "internalType": "uint256",
          "name": "amount",
          "type": "uint256"
        }
      ],
      "name": "LendingDepositExecuted",
      "type": "event"
    },
    {
      "anonymous": false,
      "inputs": [
        {
          "indexed": true,
          "internalType": "address",
          "name": "previousOwner",
          "type": "address"
        },
        {
          "indexed": true,
          "internalType": "address",
          "name": "newOwner",
          "type": "address"
        }
      ],
      "name": "OwnershipTransferred",
      "type": "event"
    },
    {
      "anonymous": false,
      "inputs": [
        {
          "indexed": true,
          "internalType": "address",
          "name": "employee",
          "type": "address"
        },
        {
          "indexed": false,
          "internalType": "address",
          "name": "token",
          "type": "address"
        },
        {
          "indexed": false,
          "internalType": "uint256",
          "name": "amount",
          "type": "uint256"
        },
        {
          "indexed": false,
          "internalType": "uint32",
          "name": "destinationDomain",
          "type": "uint32"
        },
        {
          "indexed": false,
          "internalType": "enum MultichainPayroll.PaymentType",
          "name": "paymentType",
          "type": "uint8"
        }
      ],
      "name": "PaymentReceived",
      "type": "event"
    },
    {
      "anonymous": false,
      "inputs": [
        {
          "indexed": true,
          "internalType": "address",
          "name": "employee",
          "type": "address"
        },
        {
          "indexed": false,
          "internalType": "uint256",
          "name": "amount",
          "type": "uint256"
        },
        {
          "indexed": false,
          "internalType": "uint32",
          "name": "destinationDomain",
          "type": "uint32"
        }
      ],
      "name": "PaymentSent",
      "type": "event"
    },
    {
      "anonymous": false,
      "inputs": [
        {
          "indexed": true,
          "internalType": "address",
          "name": "employee",
          "type": "address"
        },
        {
          "indexed": false,
          "internalType": "uint256",
          "name": "usdcAmount",
          "type": "uint256"
        },
        {
          "indexed": false,
          "internalType": "address",
          "name": "targetToken",
          "type": "address"
        },
        {
          "indexed": false,
          "internalType": "uint256",
          "name": "receivedAmount",
          "type": "uint256"
        }
      ],
      "name": "TokenSwapExecuted",
      "type": "event"
    },
    {
      "anonymous": false,
      "inputs": [
        {
          "indexed": true,
          "internalType": "address",
          "name": "recipient",
          "type": "address"
        },
        {
          "indexed": false,
          "internalType": "uint256",
          "name": "amount",
          "type": "uint256"
        }
      ],
      "name": "USDCWithdrawn",
      "type": "event"
    },
    {
      "inputs": [],
      "name": "USDC",
      "outputs": [
        {
          "internalType": "address",
          "name": "",
          "type": "address"
        }
      ],
      "stateMutability": "view",
      "type": "function"
    },
    {
      "inputs": [
        {
          "components": [
            {
              "internalType": "address",
              "name": "employee",
              "type": "address"
            },
            {
              "internalType": "uint256",
              "name": "amount",
              "type": "uint256"
            }
          ],
          "internalType": "struct MultichainPayroll.Employee[]",
          "name": "employees",
          "type": "tuple[]"
        }
      ],
      "name": "batchPayEmployees",
      "outputs": [],
      "stateMutability": "nonpayable",
      "type": "function"
    },
    {
      "inputs": [
        {
          "internalType": "address",
          "name": "recipient",
          "type": "address"
        },
        {
          "internalType": "uint256",
          "name": "amount",
          "type": "uint256"
        }
      ],
      "name": "handleReceiveMessage",
      "outputs": [],
      "stateMutability": "nonpayable",
      "type": "function"
    },
    {
      "inputs": [],
      "name": "owner",
      "outputs": [
        {
          "internalType": "address",
          "name": "",
          "type": "address"
        }
      ],
      "stateMutability": "view",
      "type": "function"
    },
    {
      "inputs": [],
      "name": "renounceOwnership",
      "outputs": [],
      "stateMutability": "nonpayable",
      "type": "function"
    },
    {
      "inputs": [
        {
          "internalType": "address",
          "name": "",
          "type": "address"
        }
      ],
      "name": "routes",
      "outputs": [
        {
          "internalType": "uint32",
          "name": "destinationCCTPDomain",
          "type": "uint32"
        },
        {
          "internalType": "address",
          "name": "desiredERC20Token",
          "type": "address"
        },
        {
          "internalType": "bool",
          "name": "lendingEnabled",
          "type": "bool"
        }
      ],
      "stateMutability": "view",
      "type": "function"
    },
    {
      "inputs": [
        {
          "internalType": "address",
          "name": "employee",
          "type": "address"
        },
        {
          "internalType": "uint32",
          "name": "domain",
          "type": "uint32"
        },
        {
          "internalType": "address",
          "name": "token",
          "type": "address"
        },
        {
          "internalType": "bool",
          "name": "lending",
          "type": "bool"
        }
      ],
      "name": "setRouteInfo",
      "outputs": [],
      "stateMutability": "nonpayable",
      "type": "function"
    },
    {
      "inputs": [],
      "name": "tokenMessenger",
      "outputs": [
        {
          "internalType": "contract ITokenMessengerV2",
          "name": "",
          "type": "address"
        }
      ],
      "stateMutability": "view",
      "type": "function"
    },
    {
      "inputs": [
        {
          "internalType": "address",
          "name": "newOwner",
          "type": "address"
        }
      ],
      "name": "transferOwnership",
      "outputs": [],
      "stateMutability": "nonpayable",
      "type": "function"
    },
    {
      "inputs": [
        {
          "internalType": "uint256",
          "name": "amount",
          "type": "uint256"
        },
        {
          "internalType": "address",
          "name": "recipient",
          "type": "address"
        }
      ],
      "name": "withdrawUSDC",
      "outputs": [],
      "stateMutability": "nonpayable",
      "type": "function"
    }
  ],
  "bytecode": "0x60c06040523480156200001157600080fd5b506040516200226a3803806200226a83398181016040528101906200003791906200029c565b6000620000496200027d60201b60201c565b9050806000806101000a81548173ffffffffffffffffffffffffffffffffffffffff021916908373ffffffffffffffffffffffffffffffffffffffff1602179055508073ffffffffffffffffffffffffffffffffffffffff16600073ffffffffffffffffffffffffffffffffffffffff167f8be0079c531659141344cd1fd0a4f28419497f9722a3daafe3b4186f6b6457e060405160405180910390a350600073ffffffffffffffffffffffffffffffffffffffff168273ffffffffffffffffffffffffffffffffffffffff16141560405180606001604052806027815260200162002243602791399062000176576040517f08c379a00000000000000000000000000000000000000000000000000000000081526004016200016d91906200031e565b60405180910390fd5b50600073ffffffffffffffffffffffffffffffffffffffff168173ffffffffffffffffffffffffffffffffffffffff16141560405180606001604052806031815260200162002212603191399062000206576040517f08c379a0000000000000000000000000000000000000000000000000000000008152600401620001fd91906200031e565b60405180910390fd5b508173ffffffffffffffffffffffffffffffffffffffff1660808173ffffffffffffffffffffffffffffffffffffffff1660601b815250508073ffffffffffffffffffffffffffffffffffffffff1660a08173ffffffffffffffffffffffffffffffffffffffff1660601b815250505050620003f3565b600033905090565b6000815190506200029681620003d9565b92915050565b60008060408385031215620002b057600080fd5b6000620002c08582860162000285565b9250506020620002d38582860162000285565b9150509250929050565b6000620002ea8262000342565b620002f681856200034d565b93506200030881856020860162000392565b6200031381620003c8565b840191505092915050565b600060208201905081810360008301526200033a8184620002dd565b905092915050565b600081519050919050565b600082825260208201905092915050565b60006200036b8262000372565b9050919050565b600073ffffffffffffffffffffffffffffffffffffffff82169050919050565b60005b83811015620003b257808201518184015260208101905062000395565b83811115620003c2576000848401525b50505050565b6000601f19601f8301169050919050565b620003e4816200035e565b8114620003f057600080fd5b50565b60805160601c60a05160601c611dd76200043b6000398061072552806113c652806114585250806103615280610b525280610db2528061138a528061149f5250611dd76000f3fe608060405234801561001057600080fd5b506004361061009e5760003560e01c806389a302711161006657806389a302711461011f5780638da5cb5b1461013d578063a34971f71461015b578063d740965914610177578063f2fde38b146101a95761009e565b80630c1241b5146100a35780632055a637146100bf57806346117830146100db57806349843f01146100f9578063715018a614610115575b600080fd5b6100bd60048036038101906100b89190611844565b6101c5565b005b6100d960048036038101906100d491906117ad565b61045f565b005b6100e3610723565b6040516100f091906119c9565b60405180910390f35b610113600480360381019061010e919061174a565b610747565b005b61011d6109e3565b005b610127610b50565b6040516101349190611940565b60405180910390f35b610145610b74565b6040516101529190611940565b60405180910390f35b6101756004803603810190610170919061170e565b610b9d565b005b610191600480360381019061018c91906116e5565b610f96565b6040516101a093929190611af0565b60405180910390f35b6101c360048036038101906101be91906116e5565b610ffd565b005b6101cd6111ef565b73ffffffffffffffffffffffffffffffffffffffff166101eb610b74565b73ffffffffffffffffffffffffffffffffffffffff1614610274576040517f08c379a00000000000000000000000000000000000000000000000000000000081526004018080602001828103825260208152602001807f4f776e61626c653a2063616c6c6572206973206e6f7420746865206f776e657281525060200191505060405180910390fd5b600073ffffffffffffffffffffffffffffffffffffffff168173ffffffffffffffffffffffffffffffffffffffff161415604051806060016040528060228152602001611d2060229139906102ff576040517f08c379a00000000000000000000000000000000000000000000000000000000081526004016102f691906119e4565b60405180910390fd5b5060008211604051806060016040528060308152602001611d72603091399061035e576040517f08c379a000000000000000000000000000000000000000000000000000000000815260040161035591906119e4565b60405180910390fd5b507f000000000000000000000000000000000000000000000000000000000000000073ffffffffffffffffffffffffffffffffffffffff1663a9059cbb82846040518363ffffffff1660e01b81526004016103ba92919061195b565b602060405180830381600087803b1580156103d457600080fd5b505af11580156103e8573d6000803e3d6000fd5b505050506040513d601f19601f8201168201806040525081019061040c91906117f2565b508073ffffffffffffffffffffffffffffffffffffffff167f2aa7fb97600ea702b454359fc3d02ae9fa48367e7155505d38cee896e5b5aae7836040516104539190611a06565b60405180910390a25050565b6104676111ef565b73ffffffffffffffffffffffffffffffffffffffff16610485610b74565b73ffffffffffffffffffffffffffffffffffffffff161461050e576040517f08c379a00000000000000000000000000000000000000000000000000000000081526004018080602001828103825260208152602001807f4f776e61626c653a2063616c6c6572206973206e6f7420746865206f776e657281525060200191505060405180910390fd5b60005b8282905081101561071e57600083838381811061052a57fe5b905060400201803603810190610540919061181b565b905061054b816111f7565b600060016000836000015173ffffffffffffffffffffffffffffffffffffffff1673ffffffffffffffffffffffffffffffffffffffff1681526020019081526020016000206040518060600160405290816000820160009054906101000a900463ffffffff1663ffffffff1663ffffffff1681526020016000820160049054906101000a900473ffffffffffffffffffffffffffffffffffffffff1673ffffffffffffffffffffffffffffffffffffffff1673ffffffffffffffffffffffffffffffffffffffff1681526020016000820160189054906101000a900460ff161515151581525050905061064182600001516112ed565b604051806060016040528060308152602001611d42603091399061069b576040517f08c379a000000000000000000000000000000000000000000000000000000000815260040161069291906119e4565b60405180910390fd5b506106b3826000015183602001518360000151611388565b816000015173ffffffffffffffffffffffffffffffffffffffff167ff71683287bc1001960d58bc3c44fdf0a48968c40e7dd1e89664eddf3693bbf9d83602001518360000151604051610707929190611a58565b60405180910390a250508080600101915050610511565b505050565b7f000000000000000000000000000000000000000000000000000000000000000081565b61074f6111ef565b73ffffffffffffffffffffffffffffffffffffffff1661076d610b74565b73ffffffffffffffffffffffffffffffffffffffff16146107f6576040517f08c379a00000000000000000000000000000000000000000000000000000000081526004018080602001828103825260208152602001807f4f776e61626c653a2063616c6c6572206973206e6f7420746865206f776e657281525060200191505060405180910390fd5b600073ffffffffffffffffffffffffffffffffffffffff168473ffffffffffffffffffffffffffffffffffffffff161415604051806060016040528060228152602001611d206022913990610881576040517f08c379a000000000000000000000000000000000000000000000000000000000815260040161087891906119e4565b60405180910390fd5b5060405180606001604052808463ffffffff1681526020018373ffffffffffffffffffffffffffffffffffffffff168152602001821515815250600160008673ffffffffffffffffffffffffffffffffffffffff1673ffffffffffffffffffffffffffffffffffffffff16815260200190815260200160002060008201518160000160006101000a81548163ffffffff021916908363ffffffff16021790555060208201518160000160046101000a81548173ffffffffffffffffffffffffffffffffffffffff021916908373ffffffffffffffffffffffffffffffffffffffff16021790555060408201518160000160186101000a81548160ff0219169083151502179055509050508373ffffffffffffffffffffffffffffffffffffffff167fa60aa31da7f23b6c3cfe7606fad5f49495d86b0a8c134c3985b840284cbd8d888484846040516109d593929190611af0565b60405180910390a250505050565b6109eb6111ef565b73ffffffffffffffffffffffffffffffffffffffff16610a09610b74565b73ffffffffffffffffffffffffffffffffffffffff1614610a92576040517f08c379a00000000000000000000000000000000000000000000000000000000081526004018080602001828103825260208152602001807f4f776e61626c653a2063616c6c6572206973206e6f7420746865206f776e657281525060200191505060405180910390fd5b600073ffffffffffffffffffffffffffffffffffffffff1660008054906101000a900473ffffffffffffffffffffffffffffffffffffffff1673ffffffffffffffffffffffffffffffffffffffff167f8be0079c531659141344cd1fd0a4f28419497f9722a3daafe3b4186f6b6457e060405160405180910390a360008060006101000a81548173ffffffffffffffffffffffffffffffffffffffff021916908373ffffffffffffffffffffffffffffffffffffffff160217905550565b7f000000000000000000000000000000000000000000000000000000000000000081565b60008060009054906101000a900473ffffffffffffffffffffffffffffffffffffffff16905090565b600073ffffffffffffffffffffffffffffffffffffffff168273ffffffffffffffffffffffffffffffffffffffff161415604051806060016040528060228152602001611d206022913990610c28576040517f08c379a0000000000000000000000000000000000000000000000000000000008152600401610c1f91906119e4565b60405180910390fd5b5060008111604051806060016040528060308152602001611d726030913990610c87576040517f08c379a0000000000000000000000000000000000000000000000000000000008152600401610c7e91906119e4565b60405180910390fd5b506000600160008473ffffffffffffffffffffffffffffffffffffffff1673ffffffffffffffffffffffffffffffffffffffff1681526020019081526020016000206040518060600160405290816000820160009054906101000a900463ffffffff1663ffffffff1663ffffffff1681526020016000820160049054906101000a900473ffffffffffffffffffffffffffffffffffffffff1673ffffffffffffffffffffffffffffffffffffffff1673ffffffffffffffffffffffffffffffffffffffff1681526020016000820160189054906101000a900460ff16151515158152505090506000816020015190506000808073ffffffffffffffffffffffffffffffffffffffff168373ffffffffffffffffffffffffffffffffffffffff1614158015610e0157507f000000000000000000000000000000000000000000000000000000000000000073ffffffffffffffffffffffffffffffffffffffff168373ffffffffffffffffffffffffffffffffffffffff1614155b90508015610e6c57610e138584611520565b94508573ffffffffffffffffffffffffffffffffffffffff167f22939cf4a3ee95f380e4cfe7c0fbd42fd1c7427618122df3665dbf34e0016091868588604051610e5f93929190611a21565b60405180910390a2600191505b836040015115610eda57610e8183868861152b565b8573ffffffffffffffffffffffffffffffffffffffff167f4252d8e852cf9c67f19b86ae3bf4c88abeca15875b71dd57e2f4ee6a57b0a9808487604051610ec992919061195b565b60405180910390a260029150610f36565b610ee5838688611530565b8573ffffffffffffffffffffffffffffffffffffffff167fe3ade051475bed3fd2d4a21a238ed43abc7cce06f9fe24b68382a8dcc7fe1f168487604051610f2d92919061195b565b60405180910390a25b8573ffffffffffffffffffffffffffffffffffffffff167f0eb95b360b92e2136a60d877820272dd60a5c2d716a504bdbdc3b629c89a8fec8487876000015186604051610f869493929190611984565b60405180910390a2505050505050565b60016020528060005260406000206000915090508060000160009054906101000a900463ffffffff16908060000160049054906101000a900473ffffffffffffffffffffffffffffffffffffffff16908060000160189054906101000a900460ff16905083565b6110056111ef565b73ffffffffffffffffffffffffffffffffffffffff16611023610b74565b73ffffffffffffffffffffffffffffffffffffffff16146110ac576040517f08c379a00000000000000000000000000000000000000000000000000000000081526004018080602001828103825260208152602001807f4f776e61626c653a2063616c6c6572206973206e6f7420746865206f776e657281525060200191505060405180910390fd5b600073ffffffffffffffffffffffffffffffffffffffff168173ffffffffffffffffffffffffffffffffffffffff161415611132576040517f08c379a0000000000000000000000000000000000000000000000000000000008152600401808060200182810382526026815260200180611cfa6026913960400191505060405180910390fd5b8073ffffffffffffffffffffffffffffffffffffffff1660008054906101000a900473ffffffffffffffffffffffffffffffffffffffff1673ffffffffffffffffffffffffffffffffffffffff167f8be0079c531659141344cd1fd0a4f28419497f9722a3daafe3b4186f6b6457e060405160405180910390a3806000806101000a81548173ffffffffffffffffffffffffffffffffffffffff021916908373ffffffffffffffffffffffffffffffffffffffff16021790555050565b600033905090565b600073ffffffffffffffffffffffffffffffffffffffff16816000015173ffffffffffffffffffffffffffffffffffffffff161415604051806060016040528060228152602001611d206022913990611286576040517f08c379a000000000000000000000000000000000000000000000000000000000815260040161127d91906119e4565b60405180910390fd5b506000816020015111604051806060016040528060308152602001611d7260309139906112e9576040517f08c379a00000000000000000000000000000000000000000000000000000000081526004016112e091906119e4565b60405180910390fd5b5050565b60008073ffffffffffffffffffffffffffffffffffffffff16600160008473ffffffffffffffffffffffffffffffffffffffff1673ffffffffffffffffffffffffffffffffffffffff16815260200190815260200160002060000160049054906101000a900473ffffffffffffffffffffffffffffffffffffffff1673ffffffffffffffffffffffffffffffffffffffff1614159050919050565b7f000000000000000000000000000000000000000000000000000000000000000073ffffffffffffffffffffffffffffffffffffffff1663095ea7b37f0000000000000000000000000000000000000000000000000000000000000000846040518363ffffffff1660e01b815260040161140392919061195b565b602060405180830381600087803b15801561141d57600080fd5b505af1158015611431573d6000803e3d6000fd5b505050506040513d601f19601f8201168201806040525081019061145591906117f2565b507f000000000000000000000000000000000000000000000000000000000000000073ffffffffffffffffffffffffffffffffffffffff16638e0250ee838361149d876115c3565b7f00000000000000000000000000000000000000000000000000000000000000006000801b60006103e86040518863ffffffff1660e01b81526004016114e99796959493929190611a81565b600060405180830381600087803b15801561150357600080fd5b505af1158015611517573d6000803e3d6000fd5b50505050505050565b600082905092915050565b505050565b8273ffffffffffffffffffffffffffffffffffffffff1663a9059cbb82846040518363ffffffff1660e01b815260040161156b92919061195b565b602060405180830381600087803b15801561158557600080fd5b505af1158015611599573d6000803e3d6000fd5b505050506040513d601f19601f820116820180604052508101906115bd91906117f2565b50505050565b60008173ffffffffffffffffffffffffffffffffffffffff1660001b9050919050565b6000813590506115f581611c9d565b92915050565b60008083601f84011261160d57600080fd5b8235905067ffffffffffffffff81111561162657600080fd5b60208301915083604082028301111561163e57600080fd5b9250929050565b60008135905061165481611cb4565b92915050565b60008151905061166981611cb4565b92915050565b60006040828403121561168157600080fd5b61168b6040611b27565b9050600061169b848285016115e6565b60008301525060206116af848285016116bb565b60208301525092915050565b6000813590506116ca81611ccb565b92915050565b6000813590506116df81611ce2565b92915050565b6000602082840312156116f757600080fd5b6000611705848285016115e6565b91505092915050565b6000806040838503121561172157600080fd5b600061172f858286016115e6565b9250506020611740858286016116bb565b9150509250929050565b6000806000806080858703121561176057600080fd5b600061176e878288016115e6565b945050602061177f878288016116d0565b9350506040611790878288016115e6565b92505060606117a187828801611645565b91505092959194509250565b600080602083850312156117c057600080fd5b600083013567ffffffffffffffff8111156117da57600080fd5b6117e6858286016115fb565b92509250509250929050565b60006020828403121561180457600080fd5b60006118128482850161165a565b91505092915050565b60006040828403121561182d57600080fd5b600061183b8482850161166f565b91505092915050565b6000806040838503121561185757600080fd5b6000611865858286016116bb565b9250506020611876858286016115e6565b9150509250929050565b61188981611b74565b82525050565b61189881611b86565b82525050565b6118a781611b92565b82525050565b6118b681611be9565b82525050565b6118c581611c0d565b82525050565b6118d481611c1f565b82525050565b6118e381611c31565b82525050565b60006118f482611b58565b6118fe8185611b63565b935061190e818560208601611c43565b61191781611c78565b840191505092915050565b61192b81611bcf565b82525050565b61193a81611bd9565b82525050565b60006020820190506119556000830184611880565b92915050565b60006040820190506119706000830185611880565b61197d6020830184611922565b9392505050565b60006080820190506119996000830187611880565b6119a66020830186611922565b6119b36040830185611931565b6119c060608301846118bc565b95945050505050565b60006020820190506119de60008301846118ad565b92915050565b600060208201905081810360008301526119fe81846118e9565b905092915050565b6000602082019050611a1b6000830184611922565b92915050565b6000606082019050611a366000830186611922565b611a436020830185611880565b611a506040830184611922565b949350505050565b6000604082019050611a6d6000830185611922565b611a7a6020830184611931565b9392505050565b600060e082019050611a96600083018a611922565b611aa36020830189611931565b611ab0604083018861189e565b611abd6060830187611880565b611aca608083018661189e565b611ad760a08301856118cb565b611ae460c08301846118da565b98975050505050505050565b6000606082019050611b056000830186611931565b611b126020830185611880565b611b1f604083018461188f565b949350505050565b6000604051905081810181811067ffffffffffffffff82111715611b4e57611b4d611c76565b5b8060405250919050565b600081519050919050565b600082825260208201905092915050565b6000611b7f82611baf565b9050919050565b60008115159050919050565b6000819050919050565b6000819050611baa82611c89565b919050565b600073ffffffffffffffffffffffffffffffffffffffff82169050919050565b6000819050919050565b600063ffffffff82169050919050565b6000611bf482611bfb565b9050919050565b6000611c0682611baf565b9050919050565b6000611c1882611b9c565b9050919050565b6000611c2a82611bcf565b9050919050565b6000611c3c82611bd9565b9050919050565b60005b83811015611c61578082015181840152602081019050611c46565b83811115611c70576000848401525b50505050565bfe5b6000601f19601f8301169050919050565b60038110611c9a57611c99611c76565b5b50565b611ca681611b74565b8114611cb157600080fd5b50565b611cbd81611b86565b8114611cc857600080fd5b50565b611cd481611bcf565b8114611cdf57600080fd5b50565b611ceb81611bd9565b8114611cf657600080fd5b5056fe4f776e61626c653a206e6577206f776e657220697320746865207a65726f20616464726573734d756c7469636861696e506179726f6c6c3a20496e76616c696420616464726573734d756c7469636861696e506179726f6c6c3a20456d706c6f79656520726f757465206e6f7420636f6e666967757265644d756c7469636861696e506179726f6c6c3a20416d6f756e74206d7573742062652067726561746572207468616e2030a2646970667358221220e2be54a33015d0510f76020ce4f1e7679a589e6f50983af178cf9b11608b3c9464736f6c634300070600334d756c7469636861696e506179726f6c6c3a20496e76616c696420546f6b656e4d657373656e67657220616464726573734d756c7469636861696e506179726f6c6c3a20496e76616c696420555344432061646472657373",
  "linkReferences": {},
  "deployedLinkReferences": {}
}