{
  "_format": "hh-sol-artifact-1",
  "contractName": "MultichainPayrollMultisig",
  "sourceName": "contracts/core/MultichainPayrollMultisig.sol",
  "abi": [
    {
      "inputs": [
        {
          "internalType": "address",
          "name": "_usdc",
          "type": "address"
        },
        {
          "internalType": "address",
          "name": "_tokenMessenger",
          "type": "address"
        }
      ],
      "stateMutability": "nonpayable",
      "type": "constructor"
    },
    {
      "anonymous": false,
      "inputs": [
        {
          "indexed": true,
          "internalType": "uint256",
          "name": "batchId",
          "type": "uint256"
        }
      ],
      "name": "ApprovalRequested",
      "type": "event"
    },
    {
      "anonymous": false,
      "inputs": [
        {
          "indexed": true,
          "internalType": "address",
          "name": "newApprover",
          "type": "address"
        }
      ],
      "name": "ApproverSet",
      "type": "event"
    },
    {
      "anonymous": false,
      "inputs": [
        {
          "indexed": true,
          "internalType": "address",
          "name": "employee",
          "type": "address"
        },
        {
          "indexed": false,
          "internalType": "address",
          "name": "token",
          "type": "address"
        },
        {
          "indexed": false,
          "internalType": "uint256",
          "name": "amount",
          "type": "uint256"
        }
      ],
      "name": "DirectTransferExecuted",
      "type": "event"
    },
    {
      "anonymous": false,
      "inputs": [
        {
          "indexed": true,
          "internalType": "address",
          "name": "employee",
          "type": "address"
        },
        {
          "indexed": false,
          "internalType": "uint32",
          "name": "domain",
          "type": "uint32"
        },
        {
          "indexed": false,
          "internalType": "address",
          "name": "token",
          "type": "address"
        },
        {
          "indexed": false,
          "internalType": "bool",
          "name": "lending",
          "type": "bool"
        }
      ],
      "name": "EmployeeRouteSet",
      "type": "event"
    },
    {
      "anonymous": false,
      "inputs": [
        {
          "indexed": true,
          "internalType": "address",
          "name": "employee",
          "type": "address"
        },
        {
          "indexed": false,
          "internalType": "address",
          "name": "token",
          "type": "address"
        },
        {
          "indexed": false,
          "internalType": "uint256",
          "name": "amount",
          "type": "uint256"
        }
      ],
      "name": "LendingDepositExecuted",
      "type": "event"
    },
    {
      "anonymous": false,
      "inputs": [
        {
          "indexed": true,
          "internalType": "address",
          "name": "previousOwner",
          "type": "address"
        },
        {
          "indexed": true,
          "internalType": "address",
          "name": "newOwner",
          "type": "address"
        }
      ],
      "name": "OwnershipTransferred",
      "type": "event"
    },
    {
      "anonymous": false,
      "inputs": [
        {
          "indexed": true,
          "internalType": "uint256",
          "name": "batchId",
          "type": "uint256"
        }
      ],
      "name": "PaymentApprovedAndExecuted",
      "type": "event"
    },
    {
      "anonymous": false,
      "inputs": [
        {
          "indexed": true,
          "internalType": "address",
          "name": "employee",
          "type": "address"
        },
        {
          "indexed": false,
          "internalType": "address",
          "name": "token",
          "type": "address"
        },
        {
          "indexed": false,
          "internalType": "uint256",
          "name": "amount",
          "type": "uint256"
        },
        {
          "indexed": false,
          "internalType": "uint32",
          "name": "destinationDomain",
          "type": "uint32"
        },
        {
          "indexed": false,
          "internalType": "enum MultichainPayrollMultisig.PaymentType",
          "name": "paymentType",
          "type": "uint8"
        }
      ],
      "name": "PaymentReceived",
      "type": "event"
    },
    {
      "anonymous": false,
      "inputs": [
        {
          "indexed": true,
          "internalType": "address",
          "name": "employee",
          "type": "address"
        },
        {
          "indexed": false,
          "internalType": "uint256",
          "name": "amount",
          "type": "uint256"
        },
        {
          "indexed": false,
          "internalType": "uint32",
          "name": "destinationDomain",
          "type": "uint32"
        }
      ],
      "name": "PaymentSent",
      "type": "event"
    },
    {
      "anonymous": false,
      "inputs": [
        {
          "indexed": true,
          "internalType": "address",
          "name": "employee",
          "type": "address"
        },
        {
          "indexed": false,
          "internalType": "uint256",
          "name": "usdcAmount",
          "type": "uint256"
        },
        {
          "indexed": false,
          "internalType": "address",
          "name": "targetToken",
          "type": "address"
        },
        {
          "indexed": false,
          "internalType": "uint256",
          "name": "receivedAmount",
          "type": "uint256"
        }
      ],
      "name": "TokenSwapExecuted",
      "type": "event"
    },
    {
      "anonymous": false,
      "inputs": [
        {
          "indexed": true,
          "internalType": "address",
          "name": "recipient",
          "type": "address"
        },
        {
          "indexed": false,
          "internalType": "uint256",
          "name": "amount",
          "type": "uint256"
        }
      ],
      "name": "USDCWithdrawn",
      "type": "event"
    },
    {
      "inputs": [],
      "name": "USDC",
      "outputs": [
        {
          "internalType": "address",
          "name": "",
          "type": "address"
        }
      ],
      "stateMutability": "view",
      "type": "function"
    },
    {
      "inputs": [],
      "name": "approvePayment",
      "outputs": [],
      "stateMutability": "nonpayable",
      "type": "function"
    },
    {
      "inputs": [],
      "name": "approver",
      "outputs": [
        {
          "internalType": "address",
          "name": "",
          "type": "address"
        }
      ],
      "stateMutability": "view",
      "type": "function"
    },
    {
      "inputs": [],
      "name": "currentBatchId",
      "outputs": [
        {
          "internalType": "uint256",
          "name": "",
          "type": "uint256"
        }
      ],
      "stateMutability": "view",
      "type": "function"
    },
    {
      "inputs": [],
      "name": "getPendingPayment",
      "outputs": [
        {
          "components": [
            {
              "internalType": "address",
              "name": "employee",
              "type": "address"
            },
            {
              "internalType": "uint256",
              "name": "amount",
              "type": "uint256"
            }
          ],
          "internalType": "struct MultichainPayrollMultisig.Employee[]",
          "name": "employees",
          "type": "tuple[]"
        }
      ],
      "stateMutability": "view",
      "type": "function"
    },
    {
      "inputs": [
        {
          "internalType": "address",
          "name": "recipient",
          "type": "address"
        },
        {
          "internalType": "uint256",
          "name": "amount",
          "type": "uint256"
        }
      ],
      "name": "handleReceiveMessage",
      "outputs": [],
      "stateMutability": "nonpayable",
      "type": "function"
    },
    {
      "inputs": [],
      "name": "isApprovalPending",
      "outputs": [
        {
          "internalType": "bool",
          "name": "",
          "type": "bool"
        }
      ],
      "stateMutability": "view",
      "type": "function"
    },
    {
      "inputs": [],
      "name": "owner",
      "outputs": [
        {
          "internalType": "address",
          "name": "",
          "type": "address"
        }
      ],
      "stateMutability": "view",
      "type": "function"
    },
    {
      "inputs": [],
      "name": "renounceOwnership",
      "outputs": [],
      "stateMutability": "nonpayable",
      "type": "function"
    },
    {
      "inputs": [
        {
          "components": [
            {
              "internalType": "address",
              "name": "employee",
              "type": "address"
            },
            {
              "internalType": "uint256",
              "name": "amount",
              "type": "uint256"
            }
          ],
          "internalType": "struct MultichainPayrollMultisig.Employee[]",
          "name": "employees",
          "type": "tuple[]"
        }
      ],
      "name": "requestApproval",
      "outputs": [],
      "stateMutability": "nonpayable",
      "type": "function"
    },
    {
      "inputs": [
        {
          "internalType": "address",
          "name": "",
          "type": "address"
        }
      ],
      "name": "routes",
      "outputs": [
        {
          "internalType": "uint32",
          "name": "destinationCCTPDomain",
          "type": "uint32"
        },
        {
          "internalType": "address",
          "name": "desiredERC20Token",
          "type": "address"
        },
        {
          "internalType": "bool",
          "name": "lendingEnabled",
          "type": "bool"
        }
      ],
      "stateMutability": "view",
      "type": "function"
    },
    {
      "inputs": [
        {
          "internalType": "address",
          "name": "_newApprover",
          "type": "address"
        }
      ],
      "name": "setApprover",
      "outputs": [],
      "stateMutability": "nonpayable",
      "type": "function"
    },
    {
      "inputs": [
        {
          "internalType": "address",
          "name": "employee",
          "type": "address"
        },
        {
          "internalType": "uint32",
          "name": "domain",
          "type": "uint32"
        },
        {
          "internalType": "address",
          "name": "token",
          "type": "address"
        },
        {
          "internalType": "bool",
          "name": "lending",
          "type": "bool"
        }
      ],
      "name": "setRouteInfo",
      "outputs": [],
      "stateMutability": "nonpayable",
      "type": "function"
    },
    {
      "inputs": [],
      "name": "tokenMessenger",
      "outputs": [
        {
          "internalType": "contract ITokenMessengerV2",
          "name": "",
          "type": "address"
        }
      ],
      "stateMutability": "view",
      "type": "function"
    },
    {
      "inputs": [
        {
          "internalType": "address",
          "name": "newOwner",
          "type": "address"
        }
      ],
      "name": "transferOwnership",
      "outputs": [],
      "stateMutability": "nonpayable",
      "type": "function"
    },
    {
      "inputs": [
        {
          "internalType": "uint256",
          "name": "amount",
          "type": "uint256"
        },
        {
          "internalType": "address",
          "name": "recipient",
          "type": "address"
        }
      ],
      "name": "withdrawUSDC",
      "outputs": [],
      "stateMutability": "nonpayable",
      "type": "function"
    }
  ],
  "bytecode": "0x60c06040523480156200001157600080fd5b5060405162003b0038038062003b00833981810160405281019062000037919062000320565b6000620000496200030160201b60201c565b9050806000806101000a81548173ffffffffffffffffffffffffffffffffffffffff021916908373ffffffffffffffffffffffffffffffffffffffff1602179055508073ffffffffffffffffffffffffffffffffffffffff16600073ffffffffffffffffffffffffffffffffffffffff167f8be0079c531659141344cd1fd0a4f28419497f9722a3daafe3b4186f6b6457e060405160405180910390a350600073ffffffffffffffffffffffffffffffffffffffff168273ffffffffffffffffffffffffffffffffffffffff16141560405180606001604052806027815260200162003ad9602791399062000176576040517f08c379a00000000000000000000000000000000000000000000000000000000081526004016200016d9190620003a2565b60405180910390fd5b50600073ffffffffffffffffffffffffffffffffffffffff168173ffffffffffffffffffffffffffffffffffffffff16141560405180606001604052806031815260200162003aa8603191399062000206576040517f08c379a0000000000000000000000000000000000000000000000000000000008152600401620001fd9190620003a2565b60405180910390fd5b508173ffffffffffffffffffffffffffffffffffffffff1660808173ffffffffffffffffffffffffffffffffffffffff1660601b815250508073ffffffffffffffffffffffffffffffffffffffff1660a08173ffffffffffffffffffffffffffffffffffffffff1660601b8152505033600360016101000a81548173ffffffffffffffffffffffffffffffffffffffff021916908373ffffffffffffffffffffffffffffffffffffffff1602179055503373ffffffffffffffffffffffffffffffffffffffff167fa03757d836cb0b61c0fbba2147f5d51d6071ff3dd5bf6963beb55563d64878e160405160405180910390a2505062000477565b600033905090565b6000815190506200031a816200045d565b92915050565b600080604083850312156200033457600080fd5b6000620003448582860162000309565b9250506020620003578582860162000309565b9150509250929050565b60006200036e82620003c6565b6200037a8185620003d1565b93506200038c81856020860162000416565b62000397816200044c565b840191505092915050565b60006020820190508181036000830152620003be818462000361565b905092915050565b600081519050919050565b600082825260208201905092915050565b6000620003ef82620003f6565b9050919050565b600073ffffffffffffffffffffffffffffffffffffffff82169050919050565b60005b838110156200043657808201518184015260208101905062000419565b8381111562000446576000848401525b50505050565b6000601f19601f8301169050919050565b6200046881620003e2565b81146200047457600080fd5b50565b60805160601c60a05160601c6135d5620004d36000398061091252806124a552806125375250806104d452806105be5280610e7d528061131c52806113485280611adb5280611d925280612469528061257e52506135d56000f3fe608060405234801561001057600080fd5b50600436106101005760003560e01c8063715018a611610097578063a34971f711610066578063a34971f71461023f578063d74096591461025b578063e43d44811461028d578063f2fde38b146102a957610100565b8063715018a6146101ef57806389a30271146101f95780638da5cb5b1461021757806396fd34091461023557610100565b806346117830116100d3578063461178301461017957806349843f0114610197578063574739df146101b3578063681199f1146101d157610100565b80630a763da1146101055780630c1241b514610123578063141a8dd81461013f5780633156560e1461015d575b600080fd5b61010d6102c5565b60405161011a9190612f21565b60405180910390f35b61013d60048036038101906101389190612929565b6102cb565b005b6101476106bc565b6040516101549190612d35565b60405180910390f35b610177600480360381019061017291906127a1565b6106e2565b005b610181610910565b60405161018e9190612e24565b60405180910390f35b6101b160048036038101906101ac9190612806565b610934565b005b6101bb610c3c565b6040516101c89190612e09565b60405180910390f35b6101d9610c4f565b6040516101e69190612de7565b60405180910390f35b6101f7610d0e565b005b610201610e7b565b60405161020e9190612d35565b60405180910390f35b61021f610e9f565b60405161022c9190612d35565b60405180910390f35b61023d610ec8565b005b610259600480360381019061025491906127ca565b611107565b005b610275600480360381019061027091906127a1565b61152c565b6040516102849392919061300b565b60405180910390f35b6102a760048036038101906102a29190612869565b611593565b005b6102c360048036038101906102be91906127a1565b6118a7565b005b60045481565b6102d3611a99565b73ffffffffffffffffffffffffffffffffffffffff166102f1610e9f565b73ffffffffffffffffffffffffffffffffffffffff161461037a576040517f08c379a00000000000000000000000000000000000000000000000000000000081526004018080602001828103825260208152602001807f4f776e61626c653a2063616c6c6572206973206e6f7420746865206f776e657281525060200191505060405180910390fd5b600360009054906101000a900460ff16156040518060800160405280604181526020016134ad60419139906103e5576040517f08c379a00000000000000000000000000000000000000000000000000000000081526004016103dc9190612e3f565b60405180910390fd5b50600073ffffffffffffffffffffffffffffffffffffffff168173ffffffffffffffffffffffffffffffffffffffff1614156040518060600160405280602281526020016134ee6022913990610471576040517f08c379a00000000000000000000000000000000000000000000000000000000081526004016104689190612e3f565b60405180910390fd5b506000821160405180606001604052806030815260200161354060309139906104d0576040517f08c379a00000000000000000000000000000000000000000000000000000000081526004016104c79190612e3f565b60405180910390fd5b50817f000000000000000000000000000000000000000000000000000000000000000073ffffffffffffffffffffffffffffffffffffffff166370a08231306040518263ffffffff1660e01b815260040161052b9190612d35565b60206040518083038186803b15801561054357600080fd5b505afa158015610557573d6000803e3d6000fd5b505050506040513d601f19601f8201168201806040525081019061057b9190612900565b10156105bc576040517f08c379a00000000000000000000000000000000000000000000000000000000081526004016105b390612e81565b60405180910390fd5b7f000000000000000000000000000000000000000000000000000000000000000073ffffffffffffffffffffffffffffffffffffffff1663a9059cbb82846040518363ffffffff1660e01b8152600401610617929190612d79565b602060405180830381600087803b15801561063157600080fd5b505af1158015610645573d6000803e3d6000fd5b505050506040513d601f19601f8201168201806040525081019061066991906128ae565b508073ffffffffffffffffffffffffffffffffffffffff167f2aa7fb97600ea702b454359fc3d02ae9fa48367e7155505d38cee896e5b5aae7836040516106b09190612f21565b60405180910390a25050565b600360019054906101000a900473ffffffffffffffffffffffffffffffffffffffff1681565b6106ea611a99565b73ffffffffffffffffffffffffffffffffffffffff16610708610e9f565b73ffffffffffffffffffffffffffffffffffffffff1614610791576040517f08c379a00000000000000000000000000000000000000000000000000000000081526004018080602001828103825260208152602001807f4f776e61626c653a2063616c6c6572206973206e6f7420746865206f776e657281525060200191505060405180910390fd5b600360009054906101000a900460ff16156040518060800160405280604181526020016134ad60419139906107fc576040517f08c379a00000000000000000000000000000000000000000000000000000000081526004016107f39190612e3f565b60405180910390fd5b50600073ffffffffffffffffffffffffffffffffffffffff168173ffffffffffffffffffffffffffffffffffffffff1614156040518060600160405280602281526020016134ee6022913990610888576040517f08c379a000000000000000000000000000000000000000000000000000000000815260040161087f9190612e3f565b60405180910390fd5b5080600360016101000a81548173ffffffffffffffffffffffffffffffffffffffff021916908373ffffffffffffffffffffffffffffffffffffffff1602179055508073ffffffffffffffffffffffffffffffffffffffff167fa03757d836cb0b61c0fbba2147f5d51d6071ff3dd5bf6963beb55563d64878e160405160405180910390a250565b7f000000000000000000000000000000000000000000000000000000000000000081565b61093c611a99565b73ffffffffffffffffffffffffffffffffffffffff1661095a610e9f565b73ffffffffffffffffffffffffffffffffffffffff16146109e3576040517f08c379a00000000000000000000000000000000000000000000000000000000081526004018080602001828103825260208152602001807f4f776e61626c653a2063616c6c6572206973206e6f7420746865206f776e657281525060200191505060405180910390fd5b600360009054906101000a900460ff16156040518060800160405280604181526020016134ad6041913990610a4e576040517f08c379a0000000000000000000000000000000000000000000000000000000008152600401610a459190612e3f565b60405180910390fd5b50600073ffffffffffffffffffffffffffffffffffffffff168473ffffffffffffffffffffffffffffffffffffffff1614156040518060600160405280602281526020016134ee6022913990610ada576040517f08c379a0000000000000000000000000000000000000000000000000000000008152600401610ad19190612e3f565b60405180910390fd5b5060405180606001604052808463ffffffff1681526020018373ffffffffffffffffffffffffffffffffffffffff168152602001821515815250600160008673ffffffffffffffffffffffffffffffffffffffff1673ffffffffffffffffffffffffffffffffffffffff16815260200190815260200160002060008201518160000160006101000a81548163ffffffff021916908363ffffffff16021790555060208201518160000160046101000a81548173ffffffffffffffffffffffffffffffffffffffff021916908373ffffffffffffffffffffffffffffffffffffffff16021790555060408201518160000160186101000a81548160ff0219169083151502179055509050508373ffffffffffffffffffffffffffffffffffffffff167fa60aa31da7f23b6c3cfe7606fad5f49495d86b0a8c134c3985b840284cbd8d88848484604051610c2e9392919061300b565b60405180910390a250505050565b600360009054906101000a900460ff1681565b60606002805480602002602001604051908101604052809291908181526020016000905b82821015610d0557838290600052602060002090600202016040518060400160405290816000820160009054906101000a900473ffffffffffffffffffffffffffffffffffffffff1673ffffffffffffffffffffffffffffffffffffffff1673ffffffffffffffffffffffffffffffffffffffff16815260200160018201548152505081526020019060010190610c73565b50505050905090565b610d16611a99565b73ffffffffffffffffffffffffffffffffffffffff16610d34610e9f565b73ffffffffffffffffffffffffffffffffffffffff1614610dbd576040517f08c379a00000000000000000000000000000000000000000000000000000000081526004018080602001828103825260208152602001807f4f776e61626c653a2063616c6c6572206973206e6f7420746865206f776e657281525060200191505060405180910390fd5b600073ffffffffffffffffffffffffffffffffffffffff1660008054906101000a900473ffffffffffffffffffffffffffffffffffffffff1673ffffffffffffffffffffffffffffffffffffffff167f8be0079c531659141344cd1fd0a4f28419497f9722a3daafe3b4186f6b6457e060405160405180910390a360008060006101000a81548173ffffffffffffffffffffffffffffffffffffffff021916908373ffffffffffffffffffffffffffffffffffffffff160217905550565b7f000000000000000000000000000000000000000000000000000000000000000081565b60008060009054906101000a900473ffffffffffffffffffffffffffffffffffffffff16905090565b600360019054906101000a900473ffffffffffffffffffffffffffffffffffffffff1673ffffffffffffffffffffffffffffffffffffffff163373ffffffffffffffffffffffffffffffffffffffff16146040518060600160405280602d815260200161344d602d913990610f73576040517f08c379a0000000000000000000000000000000000000000000000000000000008152600401610f6a9190612e3f565b60405180910390fd5b50600360009054906101000a900460ff166040518060600160405280602e815260200161341f602e913990610fde576040517f08c379a0000000000000000000000000000000000000000000000000000000008152600401610fd59190612e3f565b60405180910390fd5b5061109f6002805480602002602001604051908101604052809291908181526020016000905b8282101561109657838290600052602060002090600202016040518060400160405290816000820160009054906101000a900473ffffffffffffffffffffffffffffffffffffffff1673ffffffffffffffffffffffffffffffffffffffff1673ffffffffffffffffffffffffffffffffffffffff16815260200160018201548152505081526020019060010190611004565b50505050611aa1565b600260006110ad9190612623565b6000600360006101000a81548160ff021916908315150217905550600060045490506000600481905550807f0b021cd51a4bf0c2642f05e57c1f7f4a7bf220a98072ccfd57d24406ca186f3c60405160405180910390a250565b600073ffffffffffffffffffffffffffffffffffffffff168273ffffffffffffffffffffffffffffffffffffffff1614156040518060600160405280602281526020016134ee6022913990611192576040517f08c379a00000000000000000000000000000000000000000000000000000000081526004016111899190612e3f565b60405180910390fd5b506000811160405180606001604052806030815260200161354060309139906111f1576040517f08c379a00000000000000000000000000000000000000000000000000000000081526004016111e89190612e3f565b60405180910390fd5b506000600160008473ffffffffffffffffffffffffffffffffffffffff1673ffffffffffffffffffffffffffffffffffffffff1681526020019081526020016000206040518060600160405290816000820160009054906101000a900463ffffffff1663ffffffff1663ffffffff1681526020016000820160049054906101000a900473ffffffffffffffffffffffffffffffffffffffff1673ffffffffffffffffffffffffffffffffffffffff1673ffffffffffffffffffffffffffffffffffffffff1681526020016000820160189054906101000a900460ff161515151581525050905060008073ffffffffffffffffffffffffffffffffffffffff16826020015173ffffffffffffffffffffffffffffffffffffffff161461131a57816020015161133c565b7f00000000000000000000000000000000000000000000000000000000000000005b905060008084905060007f000000000000000000000000000000000000000000000000000000000000000073ffffffffffffffffffffffffffffffffffffffff168473ffffffffffffffffffffffffffffffffffffffff16141590508015611401576113a88685611d57565b91508673ffffffffffffffffffffffffffffffffffffffff167f22939cf4a3ee95f380e4cfe7c0fbd42fd1c7427618122df3665dbf34e00160918786856040516113f493929190612f3c565b60405180910390a2600192505b84604001511561146f57611416848389611e2f565b8673ffffffffffffffffffffffffffffffffffffffff167f4252d8e852cf9c67f19b86ae3bf4c88abeca15875b71dd57e2f4ee6a57b0a980858460405161145e929190612d79565b60405180910390a2600292506114cb565b61147a848389611ff3565b8673ffffffffffffffffffffffffffffffffffffffff167fe3ade051475bed3fd2d4a21a238ed43abc7cce06f9fe24b68382a8dcc7fe1f1685846040516114c2929190612d79565b60405180910390a25b8673ffffffffffffffffffffffffffffffffffffffff167f0eb95b360b92e2136a60d877820272dd60a5c2d716a504bdbdc3b629c89a8fec858488600001518760405161151b9493929190612da2565b60405180910390a250505050505050565b60016020528060005260406000206000915090508060000160009054906101000a900463ffffffff16908060000160049054906101000a900473ffffffffffffffffffffffffffffffffffffffff16908060000160189054906101000a900460ff16905083565b61159b611a99565b73ffffffffffffffffffffffffffffffffffffffff166115b9610e9f565b73ffffffffffffffffffffffffffffffffffffffff1614611642576040517f08c379a00000000000000000000000000000000000000000000000000000000081526004018080602001828103825260208152602001807f4f776e61626c653a2063616c6c6572206973206e6f7420746865206f776e657281525060200191505060405180910390fd5b600360009054906101000a900460ff161560405180606001604052806033815260200161347a60339139906116ad576040517f08c379a00000000000000000000000000000000000000000000000000000000081526004016116a49190612e3f565b60405180910390fd5b5060008282905011604051806060016040528060308152602001613570603091399061170f576040517f08c379a00000000000000000000000000000000000000000000000000000000081526004016117069190612e3f565b60405180910390fd5b5060005b828290508110156117dc5761174883838381811061172d57fe5b90506040020180360381019061174391906128d7565b61230c565b61177483838381811061175757fe5b905060400201600001602081019061176f91906127a1565b612402565b60405180606001604052806030815260200161351060309139906117ce576040517f08c379a00000000000000000000000000000000000000000000000000000000081526004016117c59190612e3f565b60405180910390fd5b508080600101915050611713565b50600260006117eb9190612623565b60005b8282905081101561185157600283838381811061180757fe5b90506040020190806001815401808255809150506001900390600052602060002090600202016000909190919091508181611842919061331f565b505080806001019150506117ee565b506001600360006101000a81548160ff021916908315150217905550426004819055506004547f10f0e2cb8a7855e318345be352110b5bb24a235c64bc02db16cc0bfe6505d46b60405160405180910390a25050565b6118af611a99565b73ffffffffffffffffffffffffffffffffffffffff166118cd610e9f565b73ffffffffffffffffffffffffffffffffffffffff1614611956576040517f08c379a00000000000000000000000000000000000000000000000000000000081526004018080602001828103825260208152602001807f4f776e61626c653a2063616c6c6572206973206e6f7420746865206f776e657281525060200191505060405180910390fd5b600073ffffffffffffffffffffffffffffffffffffffff168173ffffffffffffffffffffffffffffffffffffffff1614156119dc576040517f08c379a00000000000000000000000000000000000000000000000000000000081526004018080602001828103825260268152602001806133f96026913960400191505060405180910390fd5b8073ffffffffffffffffffffffffffffffffffffffff1660008054906101000a900473ffffffffffffffffffffffffffffffffffffffff1673ffffffffffffffffffffffffffffffffffffffff167f8be0079c531659141344cd1fd0a4f28419497f9722a3daafe3b4186f6b6457e060405160405180910390a3806000806101000a81548173ffffffffffffffffffffffffffffffffffffffff021916908373ffffffffffffffffffffffffffffffffffffffff16021790555050565b600033905090565b6000805b8251811015611ad757828181518110611aba57fe5b602002602001015160200151820191508080600101915050611aa5565b50807f000000000000000000000000000000000000000000000000000000000000000073ffffffffffffffffffffffffffffffffffffffff166370a08231306040518263ffffffff1660e01b8152600401611b329190612d35565b60206040518083038186803b158015611b4a57600080fd5b505afa158015611b5e573d6000803e3d6000fd5b505050506040513d601f19601f82011682018060405250810190611b829190612900565b1015611bc3576040517f08c379a0000000000000000000000000000000000000000000000000000000008152600401611bba90612ec1565b60405180910390fd5b60005b8251811015611d52576000838281518110611bdd57fe5b60200260200101519050600060016000836000015173ffffffffffffffffffffffffffffffffffffffff1673ffffffffffffffffffffffffffffffffffffffff1681526020019081526020016000206040518060600160405290816000820160009054906101000a900463ffffffff1663ffffffff1663ffffffff1681526020016000820160049054906101000a900473ffffffffffffffffffffffffffffffffffffffff1673ffffffffffffffffffffffffffffffffffffffff1673ffffffffffffffffffffffffffffffffffffffff1681526020016000820160189054906101000a900460ff1615151515815250509050611ce7826000015183602001518360000151612467565b816000015173ffffffffffffffffffffffffffffffffffffffff167ff71683287bc1001960d58bc3c44fdf0a48968c40e7dd1e89664eddf3693bbf9d83602001518360000151604051611d3b929190612f73565b60405180910390a250508080600101915050611bc6565b505050565b60008073ffffffffffffffffffffffffffffffffffffffff168273ffffffffffffffffffffffffffffffffffffffff1614158015611de157507f000000000000000000000000000000000000000000000000000000000000000073ffffffffffffffffffffffffffffffffffffffff168273ffffffffffffffffffffffffffffffffffffffff1614155b611e20576040517f08c379a0000000000000000000000000000000000000000000000000000000008152600401611e1790612f01565b60405180910390fd5b60008390508091505092915050565b600073ffffffffffffffffffffffffffffffffffffffff168373ffffffffffffffffffffffffffffffffffffffff1614156040518060600160405280602281526020016134ee6022913990611eba576040517f08c379a0000000000000000000000000000000000000000000000000000000008152600401611eb19190612e3f565b60405180910390fd5b50600082116040518060600160405280603081526020016135406030913990611f19576040517f08c379a0000000000000000000000000000000000000000000000000000000008152600401611f109190612e3f565b60405180910390fd5b5060008373ffffffffffffffffffffffffffffffffffffffff1663a9059cbb61dead856040518363ffffffff1660e01b8152600401611f59929190612d50565b602060405180830381600087803b158015611f7357600080fd5b505af1158015611f87573d6000803e3d6000fd5b505050506040513d601f19601f82011682018060405250810190611fab91906128ae565b905080611fed576040517f08c379a0000000000000000000000000000000000000000000000000000000008152600401611fe490612e61565b60405180910390fd5b50505050565b600073ffffffffffffffffffffffffffffffffffffffff168373ffffffffffffffffffffffffffffffffffffffff1614156040518060600160405280602281526020016134ee602291399061207e576040517f08c379a00000000000000000000000000000000000000000000000000000000081526004016120759190612e3f565b60405180910390fd5b50600073ffffffffffffffffffffffffffffffffffffffff168173ffffffffffffffffffffffffffffffffffffffff1614156040518060600160405280602281526020016134ee602291399061210a576040517f08c379a00000000000000000000000000000000000000000000000000000000081526004016121019190612e3f565b60405180910390fd5b50600082116040518060600160405280603081526020016135406030913990612169576040517f08c379a00000000000000000000000000000000000000000000000000000000081526004016121609190612e3f565b60405180910390fd5b50818373ffffffffffffffffffffffffffffffffffffffff166370a08231306040518263ffffffff1660e01b81526004016121a49190612d35565b60206040518083038186803b1580156121bc57600080fd5b505afa1580156121d0573d6000803e3d6000fd5b505050506040513d601f19601f820116820180604052508101906121f49190612900565b1015612235576040517f08c379a000000000000000000000000000000000000000000000000000000000815260040161222c90612ee1565b60405180910390fd5b60008373ffffffffffffffffffffffffffffffffffffffff1663a9059cbb83856040518363ffffffff1660e01b8152600401612272929190612d79565b602060405180830381600087803b15801561228c57600080fd5b505af11580156122a0573d6000803e3d6000fd5b505050506040513d601f19601f820116820180604052508101906122c491906128ae565b905080612306576040517f08c379a00000000000000000000000000000000000000000000000000000000081526004016122fd90612ea1565b60405180910390fd5b50505050565b600073ffffffffffffffffffffffffffffffffffffffff16816000015173ffffffffffffffffffffffffffffffffffffffff1614156040518060600160405280602281526020016134ee602291399061239b576040517f08c379a00000000000000000000000000000000000000000000000000000000081526004016123929190612e3f565b60405180910390fd5b50600081602001511160405180606001604052806030815260200161354060309139906123fe576040517f08c379a00000000000000000000000000000000000000000000000000000000081526004016123f59190612e3f565b60405180910390fd5b5050565b600080600160008473ffffffffffffffffffffffffffffffffffffffff1673ffffffffffffffffffffffffffffffffffffffff16815260200190815260200160002060000160009054906101000a900463ffffffff1663ffffffff1614159050919050565b7f000000000000000000000000000000000000000000000000000000000000000073ffffffffffffffffffffffffffffffffffffffff1663095ea7b37f0000000000000000000000000000000000000000000000000000000000000000846040518363ffffffff1660e01b81526004016124e2929190612d79565b602060405180830381600087803b1580156124fc57600080fd5b505af1158015612510573d6000803e3d6000fd5b505050506040513d601f19601f8201168201806040525081019061253491906128ae565b507f000000000000000000000000000000000000000000000000000000000000000073ffffffffffffffffffffffffffffffffffffffff16638e0250ee838361257c87612600565b7f00000000000000000000000000000000000000000000000000000000000000006000801b6101f46103e86040518863ffffffff1660e01b81526004016125c99796959493929190612f9c565b600060405180830381600087803b1580156125e357600080fd5b505af11580156125f7573d6000803e3d6000fd5b50505050505050565b60008173ffffffffffffffffffffffffffffffffffffffff1660001b9050919050565b50805460008255600202906000526020600020908101906126449190612647565b50565b5b8082111561268957600080820160006101000a81549073ffffffffffffffffffffffffffffffffffffffff0219169055600182016000905550600201612648565b5090565b60008135905061269c8161339c565b92915050565b60008083601f8401126126b457600080fd5b8235905067ffffffffffffffff8111156126cd57600080fd5b6020830191508360408202830111156126e557600080fd5b9250929050565b6000813590506126fb816133b3565b92915050565b600081519050612710816133b3565b92915050565b60006040828403121561272857600080fd5b6127326040613042565b905060006127428482850161268d565b600083015250602061275684828501612762565b60208301525092915050565b600081359050612771816133ca565b92915050565b600081519050612786816133ca565b92915050565b60008135905061279b816133e1565b92915050565b6000602082840312156127b357600080fd5b60006127c18482850161268d565b91505092915050565b600080604083850312156127dd57600080fd5b60006127eb8582860161268d565b92505060206127fc85828601612762565b9150509250929050565b6000806000806080858703121561281c57600080fd5b600061282a8782880161268d565b945050602061283b8782880161278c565b935050604061284c8782880161268d565b925050606061285d878288016126ec565b91505092959194509250565b6000806020838503121561287c57600080fd5b600083013567ffffffffffffffff81111561289657600080fd5b6128a2858286016126a2565b92509250509250929050565b6000602082840312156128c057600080fd5b60006128ce84828501612701565b91505092915050565b6000604082840312156128e957600080fd5b60006128f784828501612716565b91505092915050565b60006020828403121561291257600080fd5b600061292084828501612777565b91505092915050565b6000806040838503121561293c57600080fd5b600061294a85828601612762565b925050602061295b8582860161268d565b9150509250929050565b60006129718383612cd9565b60408301905092915050565b6129868161313d565b82525050565b612995816130c8565b82525050565b6129a4816130c8565b82525050565b60006129b582613083565b6129bf81856130a6565b93506129ca83613073565b8060005b838110156129fb5781516129e28882612965565b97506129ed83613099565b9250506001810190506129ce565b5085935050505092915050565b612a11816130da565b82525050565b612a20816130e6565b82525050565b612a2f81613161565b82525050565b612a3e81613185565b82525050565b612a4d81613197565b82525050565b612a5c816131a9565b82525050565b6000612a6d8261308e565b612a7781856130b7565b9350612a878185602086016131f1565b612a9081613266565b840191505092915050565b6000612aa8601c836130b7565b91507f4d6f636b206465706f736974207472616e73666572206661696c6564000000006000830152602082019050919050565b6000612ae8603f836130b7565b91507f4d756c7469636861696e506179726f6c6c3a20496e73756666696369656e742060008301527f636f6e74726163742062616c616e636520666f72207769746864726177616c006020830152604082019050919050565b6000612b4e6028836130b7565b91507f4d756c7469636861696e506179726f6c6c3a20546f6b656e207472616e73666560008301527f72206661696c65640000000000000000000000000000000000000000000000006020830152604082019050919050565b6000612bb46042836130b7565b91507f4d756c7469636861696e506179726f6c6c3a20496e73756666696369656e742060008301527f636f6e74726163742062616c616e636520666f72206261746368207061796d6560208301527f6e740000000000000000000000000000000000000000000000000000000000006040830152606082019050919050565b6000612c40603a836130b7565b91507f4d756c7469636861696e506179726f6c6c3a20496e73756666696369656e742060008301527f746f6b656e2062616c616e636520666f72207472616e736665720000000000006020830152604082019050919050565b6000612ca6601d836130b7565b91507f496e76616c69642074617267657420746f6b656e20666f7220737761700000006000830152602082019050919050565b604082016000820151612cef600085018261298c565b506020820151612d026020850182612d08565b50505050565b612d1181613123565b82525050565b612d2081613123565b82525050565b612d2f8161312d565b82525050565b6000602082019050612d4a600083018461299b565b92915050565b6000604082019050612d65600083018561297d565b612d726020830184612d17565b9392505050565b6000604082019050612d8e600083018561299b565b612d9b6020830184612d17565b9392505050565b6000608082019050612db7600083018761299b565b612dc46020830186612d17565b612dd16040830185612d26565b612dde6060830184612a35565b95945050505050565b60006020820190508181036000830152612e0181846129aa565b905092915050565b6000602082019050612e1e6000830184612a08565b92915050565b6000602082019050612e396000830184612a26565b92915050565b60006020820190508181036000830152612e598184612a62565b905092915050565b60006020820190508181036000830152612e7a81612a9b565b9050919050565b60006020820190508181036000830152612e9a81612adb565b9050919050565b60006020820190508181036000830152612eba81612b41565b9050919050565b60006020820190508181036000830152612eda81612ba7565b9050919050565b60006020820190508181036000830152612efa81612c33565b9050919050565b60006020820190508181036000830152612f1a81612c99565b9050919050565b6000602082019050612f366000830184612d17565b92915050565b6000606082019050612f516000830186612d17565b612f5e602083018561299b565b612f6b6040830184612d17565b949350505050565b6000604082019050612f886000830185612d17565b612f956020830184612d26565b9392505050565b600060e082019050612fb1600083018a612d17565b612fbe6020830189612d26565b612fcb6040830188612a17565b612fd8606083018761299b565b612fe56080830186612a17565b612ff260a0830185612a53565b612fff60c0830184612a44565b98975050505050505050565b60006060820190506130206000830186612d26565b61302d602083018561299b565b61303a6040830184612a08565b949350505050565b6000604051905081810181811067ffffffffffffffff8211171561306957613068613224565b5b8060405250919050565b6000819050602082019050919050565b600081519050919050565b600081519050919050565b6000602082019050919050565b600082825260208201905092915050565b600082825260208201905092915050565b60006130d382613103565b9050919050565b60008115159050919050565b6000819050919050565b60008190506130fe82613388565b919050565b600073ffffffffffffffffffffffffffffffffffffffff82169050919050565b6000819050919050565b600063ffffffff82169050919050565b6000613148826131bb565b9050919050565b600061315a826131bb565b9050919050565b600061316c82613173565b9050919050565b600061317e82613103565b9050919050565b6000613190826130f0565b9050919050565b60006131a28261312d565b9050919050565b60006131b482613123565b9050919050565b60006131c6826131cd565b9050919050565b60006131d882613103565b9050919050565b60006131ea82613123565b9050919050565b60005b8381101561320f5780820151818401526020810190506131f4565b8381111561321e576000848401525b50505050565bfe5b6000819050919050565b6000819050919050565b600081356132478161339c565b80915050919050565b6000813561325d816133ca565b80915050919050565b6000601f19601f8301169050919050565b60008160001b9050919050565b600073ffffffffffffffffffffffffffffffffffffffff6132a484613277565b9350801983169250808416831791505092915050565b60007fffffffffffffffffffffffffffffffffffffffffffffffffffffffffffffffff6132e684613277565b9350801983169250808416831791505092915050565b6133058261314f565b61331861331182613226565b8354613284565b8255505050565b6000810160008301806133318161323a565b905061333d81846132fc565b50505060018101602083018061335281613250565b905061335e8184613365565b5050505050565b61336e826131df565b61338161337a82613230565b83546132ba565b8255505050565b6003811061339957613398613224565b5b50565b6133a5816130c8565b81146133b057600080fd5b50565b6133bc816130da565b81146133c757600080fd5b50565b6133d381613123565b81146133de57600080fd5b50565b6133ea8161312d565b81146133f557600080fd5b5056fe4f776e61626c653a206e6577206f776e657220697320746865207a65726f20616464726573734d756c7469636861696e506179726f6c6c3a204e6f207061796d656e7420617070726f76616c2070656e64696e674d756c7469636861696e506179726f6c6c3a2043616c6c6572206973206e6f742074686520617070726f7665724d756c7469636861696e506179726f6c6c3a205061796d656e7420617070726f76616c20616c72656164792070656e64696e674d756c7469636861696e506179726f6c6c3a2043616e6e6f74206d6f646966792073657474696e677320647572696e6720617070726f76616c2070726f636573734d756c7469636861696e506179726f6c6c3a20496e76616c696420616464726573734d756c7469636861696e506179726f6c6c3a20456d706c6f79656520726f757465206e6f7420636f6e666967757265644d756c7469636861696e506179726f6c6c3a20416d6f756e74206d7573742062652067726561746572207468616e20304d756c7469636861696e506179726f6c6c3a20456d706c6f796565206c6973742063616e6e6f7420626520656d707479a264697066735822122055b838b09166da5bc1a320186667995dea8147d56a587116c433d6e96d4cddde64736f6c634300070600334d756c7469636861696e506179726f6c6c3a20496e76616c696420546f6b656e4d657373656e67657220616464726573734d756c7469636861696e506179726f6c6c3a20496e76616c696420555344432061646472657373",
  "linkReferences": {},
  "deployedLinkReferences": {}
}