{
  "_format": "hh-sol-artifact-1",
  "contractName": "MultichainPayrollWithHook",
  "sourceName": "contracts/core/MultichainPayrollWithHook.sol",
  "abi": [
    {
      "inputs": [
        {
          "internalType": "address",
          "name": "_usdc",
          "type": "address"
        },
        {
          "internalType": "address",
          "name": "_tokenMessenger",
          "type": "address"
        },
        {
          "internalType": "address",
          "name": "_hookWrapper",
          "type": "address"
        },
        {
          "internalType": "address",
          "name": "_targetMultichainPayroll",
          "type": "address"
        }
      ],
      "stateMutability": "nonpayable",
      "type": "constructor"
    },
    {
      "anonymous": false,
      "inputs": [
        {
          "indexed": true,
          "internalType": "address",
          "name": "employee",
          "type": "address"
        },
        {
          "indexed": false,
          "internalType": "address",
          "name": "token",
          "type": "address"
        },
        {
          "indexed": false,
          "internalType": "uint256",
          "name": "amount",
          "type": "uint256"
        }
      ],
      "name": "DirectTransferExecuted",
      "type": "event"
    },
    {
      "anonymous": false,
      "inputs": [
        {
          "indexed": true,
          "internalType": "address",
          "name": "employee",
          "type": "address"
        },
        {
          "indexed": false,
          "internalType": "uint32",
          "name": "domain",
          "type": "uint32"
        },
        {
          "indexed": false,
          "internalType": "address",
          "name": "token",
          "type": "address"
        },
        {
          "indexed": false,
          "internalType": "bool",
          "name": "lending",
          "type": "bool"
        }
      ],
      "name": "EmployeeRouteSet",
      "type": "event"
    },
    {
      "anonymous": false,
      "inputs": [
        {
          "indexed": true,
          "internalType": "address",
          "name": "employee",
          "type": "address"
        },
        {
          "indexed": false,
          "internalType": "address",
          "name": "token",
          "type": "address"
        },
        {
          "indexed": false,
          "internalType": "uint256",
          "name": "amount",
          "type": "uint256"
        }
      ],
      "name": "LendingDepositExecuted",
      "type": "event"
    },
    {
      "anonymous": false,
      "inputs": [
        {
          "indexed": true,
          "internalType": "address",
          "name": "previousOwner",
          "type": "address"
        },
        {
          "indexed": true,
          "internalType": "address",
          "name": "newOwner",
          "type": "address"
        }
      ],
      "name": "OwnershipTransferred",
      "type": "event"
    },
    {
      "anonymous": false,
      "inputs": [
        {
          "indexed": true,
          "internalType": "address",
          "name": "employee",
          "type": "address"
        },
        {
          "indexed": false,
          "internalType": "address",
          "name": "token",
          "type": "address"
        },
        {
          "indexed": false,
          "internalType": "uint256",
          "name": "amount",
          "type": "uint256"
        },
        {
          "indexed": false,
          "internalType": "uint32",
          "name": "destinationDomain",
          "type": "uint32"
        },
        {
          "indexed": false,
          "internalType": "enum MultichainPayrollWithHook.PaymentType",
          "name": "paymentType",
          "type": "uint8"
        }
      ],
      "name": "PaymentReceived",
      "type": "event"
    },
    {
      "anonymous": false,
      "inputs": [
        {
          "indexed": true,
          "internalType": "address",
          "name": "employee",
          "type": "address"
        },
        {
          "indexed": false,
          "internalType": "uint256",
          "name": "amount",
          "type": "uint256"
        },
        {
          "indexed": false,
          "internalType": "uint32",
          "name": "destinationDomain",
          "type": "uint32"
        }
      ],
      "name": "PaymentSent",
      "type": "event"
    },
    {
      "anonymous": false,
      "inputs": [
        {
          "indexed": true,
          "internalType": "address",
          "name": "employee",
          "type": "address"
        },
        {
          "indexed": false,
          "internalType": "uint256",
          "name": "usdcAmount",
          "type": "uint256"
        },
        {
          "indexed": false,
          "internalType": "address",
          "name": "targetToken",
          "type": "address"
        },
        {
          "indexed": false,
          "internalType": "uint256",
          "name": "receivedAmount",
          "type": "uint256"
        }
      ],
      "name": "TokenSwapExecuted",
      "type": "event"
    },
    {
      "anonymous": false,
      "inputs": [
        {
          "indexed": true,
          "internalType": "address",
          "name": "recipient",
          "type": "address"
        },
        {
          "indexed": false,
          "internalType": "uint256",
          "name": "amount",
          "type": "uint256"
        }
      ],
      "name": "USDCWithdrawn",
      "type": "event"
    },
    {
      "inputs": [],
      "name": "USDC",
      "outputs": [
        {
          "internalType": "address",
          "name": "",
          "type": "address"
        }
      ],
      "stateMutability": "view",
      "type": "function"
    },
    {
      "inputs": [
        {
          "components": [
            {
              "internalType": "address",
              "name": "employee",
              "type": "address"
            },
            {
              "internalType": "uint256",
              "name": "amount",
              "type": "uint256"
            }
          ],
          "internalType": "struct MultichainPayrollWithHook.Employee[]",
          "name": "employees",
          "type": "tuple[]"
        }
      ],
      "name": "batchPayEmployees",
      "outputs": [],
      "stateMutability": "nonpayable",
      "type": "function"
    },
    {
      "inputs": [
        {
          "internalType": "address",
          "name": "recipient",
          "type": "address"
        },
        {
          "internalType": "uint256",
          "name": "amount",
          "type": "uint256"
        }
      ],
      "name": "directTransfer",
      "outputs": [],
      "stateMutability": "nonpayable",
      "type": "function"
    },
    {
      "inputs": [
        {
          "internalType": "address",
          "name": "recipient",
          "type": "address"
        },
        {
          "internalType": "uint256",
          "name": "amount",
          "type": "uint256"
        }
      ],
      "name": "handleReceiveMessage",
      "outputs": [],
      "stateMutability": "nonpayable",
      "type": "function"
    },
    {
      "inputs": [],
      "name": "hookWrapper",
      "outputs": [
        {
          "internalType": "address",
          "name": "",
          "type": "address"
        }
      ],
      "stateMutability": "view",
      "type": "function"
    },
    {
      "inputs": [],
      "name": "owner",
      "outputs": [
        {
          "internalType": "address",
          "name": "",
          "type": "address"
        }
      ],
      "stateMutability": "view",
      "type": "function"
    },
    {
      "inputs": [],
      "name": "renounceOwnership",
      "outputs": [],
      "stateMutability": "nonpayable",
      "type": "function"
    },
    {
      "inputs": [
        {
          "internalType": "address",
          "name": "",
          "type": "address"
        }
      ],
      "name": "routes",
      "outputs": [
        {
          "internalType": "uint32",
          "name": "destinationCCTPDomain",
          "type": "uint32"
        },
        {
          "internalType": "address",
          "name": "desiredERC20Token",
          "type": "address"
        },
        {
          "internalType": "bool",
          "name": "lendingEnabled",
          "type": "bool"
        }
      ],
      "stateMutability": "view",
      "type": "function"
    },
    {
      "inputs": [
        {
          "internalType": "address",
          "name": "employee",
          "type": "address"
        },
        {
          "internalType": "uint32",
          "name": "domain",
          "type": "uint32"
        },
        {
          "internalType": "address",
          "name": "token",
          "type": "address"
        },
        {
          "internalType": "bool",
          "name": "lending",
          "type": "bool"
        }
      ],
      "name": "setRouteInfo",
      "outputs": [],
      "stateMutability": "nonpayable",
      "type": "function"
    },
    {
      "inputs": [],
      "name": "targetMultichainPayroll",
      "outputs": [
        {
          "internalType": "address",
          "name": "",
          "type": "address"
        }
      ],
      "stateMutability": "view",
      "type": "function"
    },
    {
      "inputs": [],
      "name": "tokenMessenger",
      "outputs": [
        {
          "internalType": "contract ITokenMessengerV2",
          "name": "",
          "type": "address"
        }
      ],
      "stateMutability": "view",
      "type": "function"
    },
    {
      "inputs": [
        {
          "internalType": "address",
          "name": "newOwner",
          "type": "address"
        }
      ],
      "name": "transferOwnership",
      "outputs": [],
      "stateMutability": "nonpayable",
      "type": "function"
    },
    {
      "inputs": [
        {
          "internalType": "uint256",
          "name": "amount",
          "type": "uint256"
        },
        {
          "internalType": "address",
          "name": "recipient",
          "type": "address"
        }
      ],
      "name": "withdrawUSDC",
      "outputs": [],
      "stateMutability": "nonpayable",
      "type": "function"
    }
  ],
  "bytecode": "0x6101006040523480156200001257600080fd5b5060405162002a0338038062002a0383398181016040528101906200003891906200042d565b60006200004a6200040e60201b60201c565b9050806000806101000a81548173ffffffffffffffffffffffffffffffffffffffff021916908373ffffffffffffffffffffffffffffffffffffffff1602179055508073ffffffffffffffffffffffffffffffffffffffff16600073ffffffffffffffffffffffffffffffffffffffff167f8be0079c531659141344cd1fd0a4f28419497f9722a3daafe3b4186f6b6457e060405160405180910390a350600073ffffffffffffffffffffffffffffffffffffffff168473ffffffffffffffffffffffffffffffffffffffff1614156040518060600160405280602f8152602001620029d4602f91399062000177576040517f08c379a00000000000000000000000000000000000000000000000000000000081526004016200016e9190620004da565b60405180910390fd5b50600073ffffffffffffffffffffffffffffffffffffffff168373ffffffffffffffffffffffffffffffffffffffff1614156040518060600160405280603981526020016200299b603991399062000207576040517f08c379a0000000000000000000000000000000000000000000000000000000008152600401620001fe9190620004da565b60405180910390fd5b50600073ffffffffffffffffffffffffffffffffffffffff168273ffffffffffffffffffffffffffffffffffffffff16141560405180606001604052806036815260200162002965603691399062000297576040517f08c379a00000000000000000000000000000000000000000000000000000000081526004016200028e9190620004da565b60405180910390fd5b50600073ffffffffffffffffffffffffffffffffffffffff168173ffffffffffffffffffffffffffffffffffffffff1614156040518060600160405280603c815260200162002929603c91399062000327576040517f08c379a00000000000000000000000000000000000000000000000000000000081526004016200031e9190620004da565b60405180910390fd5b508373ffffffffffffffffffffffffffffffffffffffff1660808173ffffffffffffffffffffffffffffffffffffffff1660601b815250508273ffffffffffffffffffffffffffffffffffffffff1660a08173ffffffffffffffffffffffffffffffffffffffff1660601b815250508173ffffffffffffffffffffffffffffffffffffffff1660c08173ffffffffffffffffffffffffffffffffffffffff1660601b815250508073ffffffffffffffffffffffffffffffffffffffff1660e08173ffffffffffffffffffffffffffffffffffffffff1660601b8152505050505050620005af565b600033905090565b600081519050620004278162000595565b92915050565b600080600080608085870312156200044457600080fd5b6000620004548782880162000416565b9450506020620004678782880162000416565b93505060406200047a8782880162000416565b92505060606200048d8782880162000416565b91505092959194509250565b6000620004a682620004fe565b620004b2818562000509565b9350620004c48185602086016200054e565b620004cf8162000584565b840191505092915050565b60006020820190508181036000830152620004f6818462000499565b905092915050565b600081519050919050565b600082825260208201905092915050565b600062000527826200052e565b9050919050565b600073ffffffffffffffffffffffffffffffffffffffff82169050919050565b60005b838110156200056e57808201518184015260208101905062000551565b838111156200057e576000848401525b50505050565b6000601f19601f8301169050919050565b620005a0816200051a565b8114620005ac57600080fd5b50565b60805160601c60a05160601c60c05160601c60e05160601c61230162000628600039806107ae52806117a7525080610a9252806118015250806107d2528061169752806118295250806103ea5280610ba45280610c045280610c745280610e235280611083528061165b528061187052506123016000f3fe608060405234801561001057600080fd5b50600436106100cf5760003560e01c80636c61d60f1161008c5780638da5cb5b116100665780638da5cb5b146101c6578063a34971f7146101e4578063d740965914610200578063f2fde38b14610232576100cf565b80636c61d60f14610182578063715018a61461019e57806389a30271146101a8576100cf565b80630c1241b5146100d45780632055a637146100f0578063460cb6a61461010c578063461178301461012a57806349843f01146101485780635a316f7a14610164575b600080fd5b6100ee60048036038101906100e99190611c16565b61024e565b005b61010a60048036038101906101059190611b7f565b6104e8565b005b6101146107ac565b6040516101219190611dac565b60405180910390f35b6101326107d0565b60405161013f9190611e7a565b60405180910390f35b610162600480360381019061015d9190611b1c565b6107f4565b005b61016c610a90565b6040516101799190611dac565b60405180910390f35b61019c60048036038101906101979190611ae0565b610ab4565b005b6101a6610cb4565b005b6101b0610e21565b6040516101bd9190611dac565b60405180910390f35b6101ce610e45565b6040516101db9190611dac565b60405180910390f35b6101fe60048036038101906101f99190611ae0565b610e6e565b005b61021a60048036038101906102159190611ab7565b611267565b60405161022993929190611fb7565b60405180910390f35b61024c60048036038101906102479190611ab7565b6112ce565b005b6102566114c0565b73ffffffffffffffffffffffffffffffffffffffff16610274610e45565b73ffffffffffffffffffffffffffffffffffffffff16146102fd576040517f08c379a00000000000000000000000000000000000000000000000000000000081526004018080602001828103825260208152602001807f4f776e61626c653a2063616c6c6572206973206e6f7420746865206f776e657281525060200191505060405180910390fd5b600073ffffffffffffffffffffffffffffffffffffffff168173ffffffffffffffffffffffffffffffffffffffff1614156040518060600160405280602a815260200161220c602a913990610388576040517f08c379a000000000000000000000000000000000000000000000000000000000815260040161037f9190611e95565b60405180910390fd5b506000821160405180606001604052806038815260200161229460389139906103e7576040517f08c379a00000000000000000000000000000000000000000000000000000000081526004016103de9190611e95565b60405180910390fd5b507f000000000000000000000000000000000000000000000000000000000000000073ffffffffffffffffffffffffffffffffffffffff1663a9059cbb82846040518363ffffffff1660e01b8152600401610443929190611dc7565b602060405180830381600087803b15801561045d57600080fd5b505af1158015610471573d6000803e3d6000fd5b505050506040513d601f19601f820116820180604052508101906104959190611bc4565b508073ffffffffffffffffffffffffffffffffffffffff167f2aa7fb97600ea702b454359fc3d02ae9fa48367e7155505d38cee896e5b5aae7836040516104dc9190611eb7565b60405180910390a25050565b6104f06114c0565b73ffffffffffffffffffffffffffffffffffffffff1661050e610e45565b73ffffffffffffffffffffffffffffffffffffffff1614610597576040517f08c379a00000000000000000000000000000000000000000000000000000000081526004018080602001828103825260208152602001807f4f776e61626c653a2063616c6c6572206973206e6f7420746865206f776e657281525060200191505060405180910390fd5b60005b828290508110156107a75760008383838181106105b357fe5b9050604002018036038101906105c99190611bed565b90506105d4816114c8565b600060016000836000015173ffffffffffffffffffffffffffffffffffffffff1673ffffffffffffffffffffffffffffffffffffffff1681526020019081526020016000206040518060600160405290816000820160009054906101000a900463ffffffff1663ffffffff1663ffffffff1681526020016000820160049054906101000a900473ffffffffffffffffffffffffffffffffffffffff1673ffffffffffffffffffffffffffffffffffffffff1673ffffffffffffffffffffffffffffffffffffffff1681526020016000820160189054906101000a900460ff16151515158152505090506106ca82600001516115be565b60405180606001604052806038815260200161225c6038913990610724576040517f08c379a000000000000000000000000000000000000000000000000000000000815260040161071b9190611e95565b60405180910390fd5b5061073c826000015183602001518360000151611659565b816000015173ffffffffffffffffffffffffffffffffffffffff167ff71683287bc1001960d58bc3c44fdf0a48968c40e7dd1e89664eddf3693bbf9d83602001518360000151604051610790929190611f09565b60405180910390a25050808060010191505061059a565b505050565b7f000000000000000000000000000000000000000000000000000000000000000081565b7f000000000000000000000000000000000000000000000000000000000000000081565b6107fc6114c0565b73ffffffffffffffffffffffffffffffffffffffff1661081a610e45565b73ffffffffffffffffffffffffffffffffffffffff16146108a3576040517f08c379a00000000000000000000000000000000000000000000000000000000081526004018080602001828103825260208152602001807f4f776e61626c653a2063616c6c6572206973206e6f7420746865206f776e657281525060200191505060405180910390fd5b600073ffffffffffffffffffffffffffffffffffffffff168473ffffffffffffffffffffffffffffffffffffffff1614156040518060600160405280602a815260200161220c602a91399061092e576040517f08c379a00000000000000000000000000000000000000000000000000000000081526004016109259190611e95565b60405180910390fd5b5060405180606001604052808463ffffffff1681526020018373ffffffffffffffffffffffffffffffffffffffff168152602001821515815250600160008673ffffffffffffffffffffffffffffffffffffffff1673ffffffffffffffffffffffffffffffffffffffff16815260200190815260200160002060008201518160000160006101000a81548163ffffffff021916908363ffffffff16021790555060208201518160000160046101000a81548173ffffffffffffffffffffffffffffffffffffffff021916908373ffffffffffffffffffffffffffffffffffffffff16021790555060408201518160000160186101000a81548160ff0219169083151502179055509050508373ffffffffffffffffffffffffffffffffffffffff167fa60aa31da7f23b6c3cfe7606fad5f49495d86b0a8c134c3985b840284cbd8d88848484604051610a8293929190611fb7565b60405180910390a250505050565b7f000000000000000000000000000000000000000000000000000000000000000081565b600073ffffffffffffffffffffffffffffffffffffffff168273ffffffffffffffffffffffffffffffffffffffff1614156040518060600160405280602a815260200161220c602a913990610b3f576040517f08c379a0000000000000000000000000000000000000000000000000000000008152600401610b369190611e95565b60405180910390fd5b50600081116040518060600160405280603881526020016122946038913990610b9e576040517f08c379a0000000000000000000000000000000000000000000000000000000008152600401610b959190611e95565b60405180910390fd5b50610bca7f000000000000000000000000000000000000000000000000000000000000000082846118f2565b8173ffffffffffffffffffffffffffffffffffffffff167fe3ade051475bed3fd2d4a21a238ed43abc7cce06f9fe24b68382a8dcc7fe1f167f000000000000000000000000000000000000000000000000000000000000000083604051610c32929190611dc7565b60405180910390a28173ffffffffffffffffffffffffffffffffffffffff167f0eb95b360b92e2136a60d877820272dd60a5c2d716a504bdbdc3b629c89a8fec7f00000000000000000000000000000000000000000000000000000000000000008360066000604051610ca89493929190611df0565b60405180910390a25050565b610cbc6114c0565b73ffffffffffffffffffffffffffffffffffffffff16610cda610e45565b73ffffffffffffffffffffffffffffffffffffffff1614610d63576040517f08c379a00000000000000000000000000000000000000000000000000000000081526004018080602001828103825260208152602001807f4f776e61626c653a2063616c6c6572206973206e6f7420746865206f776e657281525060200191505060405180910390fd5b600073ffffffffffffffffffffffffffffffffffffffff1660008054906101000a900473ffffffffffffffffffffffffffffffffffffffff1673ffffffffffffffffffffffffffffffffffffffff167f8be0079c531659141344cd1fd0a4f28419497f9722a3daafe3b4186f6b6457e060405160405180910390a360008060006101000a81548173ffffffffffffffffffffffffffffffffffffffff021916908373ffffffffffffffffffffffffffffffffffffffff160217905550565b7f000000000000000000000000000000000000000000000000000000000000000081565b60008060009054906101000a900473ffffffffffffffffffffffffffffffffffffffff16905090565b600073ffffffffffffffffffffffffffffffffffffffff168273ffffffffffffffffffffffffffffffffffffffff1614156040518060600160405280602a815260200161220c602a913990610ef9576040517f08c379a0000000000000000000000000000000000000000000000000000000008152600401610ef09190611e95565b60405180910390fd5b50600081116040518060600160405280603881526020016122946038913990610f58576040517f08c379a0000000000000000000000000000000000000000000000000000000008152600401610f4f9190611e95565b60405180910390fd5b506000600160008473ffffffffffffffffffffffffffffffffffffffff1673ffffffffffffffffffffffffffffffffffffffff1681526020019081526020016000206040518060600160405290816000820160009054906101000a900463ffffffff1663ffffffff1663ffffffff1681526020016000820160049054906101000a900473ffffffffffffffffffffffffffffffffffffffff1673ffffffffffffffffffffffffffffffffffffffff1673ffffffffffffffffffffffffffffffffffffffff1681526020016000820160189054906101000a900460ff16151515158152505090506000816020015190506000808073ffffffffffffffffffffffffffffffffffffffff168373ffffffffffffffffffffffffffffffffffffffff16141580156110d257507f000000000000000000000000000000000000000000000000000000000000000073ffffffffffffffffffffffffffffffffffffffff168373ffffffffffffffffffffffffffffffffffffffff1614155b9050801561113d576110e48584611985565b94508573ffffffffffffffffffffffffffffffffffffffff167f22939cf4a3ee95f380e4cfe7c0fbd42fd1c7427618122df3665dbf34e001609186858860405161113093929190611ed2565b60405180910390a2600191505b8360400151156111ab57611152838688611990565b8573ffffffffffffffffffffffffffffffffffffffff167f4252d8e852cf9c67f19b86ae3bf4c88abeca15875b71dd57e2f4ee6a57b0a980848760405161119a929190611dc7565b60405180910390a260029150611207565b6111b68386886118f2565b8573ffffffffffffffffffffffffffffffffffffffff167fe3ade051475bed3fd2d4a21a238ed43abc7cce06f9fe24b68382a8dcc7fe1f1684876040516111fe929190611dc7565b60405180910390a25b8573ffffffffffffffffffffffffffffffffffffffff167f0eb95b360b92e2136a60d877820272dd60a5c2d716a504bdbdc3b629c89a8fec84878760000151866040516112579493929190611e35565b60405180910390a2505050505050565b60016020528060005260406000206000915090508060000160009054906101000a900463ffffffff16908060000160049054906101000a900473ffffffffffffffffffffffffffffffffffffffff16908060000160189054906101000a900460ff16905083565b6112d66114c0565b73ffffffffffffffffffffffffffffffffffffffff166112f4610e45565b73ffffffffffffffffffffffffffffffffffffffff161461137d576040517f08c379a00000000000000000000000000000000000000000000000000000000081526004018080602001828103825260208152602001807f4f776e61626c653a2063616c6c6572206973206e6f7420746865206f776e657281525060200191505060405180910390fd5b600073ffffffffffffffffffffffffffffffffffffffff168173ffffffffffffffffffffffffffffffffffffffff161415611403576040517f08c379a00000000000000000000000000000000000000000000000000000000081526004018080602001828103825260268152602001806122366026913960400191505060405180910390fd5b8073ffffffffffffffffffffffffffffffffffffffff1660008054906101000a900473ffffffffffffffffffffffffffffffffffffffff1673ffffffffffffffffffffffffffffffffffffffff167f8be0079c531659141344cd1fd0a4f28419497f9722a3daafe3b4186f6b6457e060405160405180910390a3806000806101000a81548173ffffffffffffffffffffffffffffffffffffffff021916908373ffffffffffffffffffffffffffffffffffffffff16021790555050565b600033905090565b600073ffffffffffffffffffffffffffffffffffffffff16816000015173ffffffffffffffffffffffffffffffffffffffff1614156040518060600160405280602a815260200161220c602a913990611557576040517f08c379a000000000000000000000000000000000000000000000000000000000815260040161154e9190611e95565b60405180910390fd5b50600081602001511160405180606001604052806038815260200161229460389139906115ba576040517f08c379a00000000000000000000000000000000000000000000000000000000081526004016115b19190611e95565b60405180910390fd5b5050565b60008073ffffffffffffffffffffffffffffffffffffffff16600160008473ffffffffffffffffffffffffffffffffffffffff1673ffffffffffffffffffffffffffffffffffffffff16815260200190815260200160002060000160049054906101000a900473ffffffffffffffffffffffffffffffffffffffff1673ffffffffffffffffffffffffffffffffffffffff1614159050919050565b7f000000000000000000000000000000000000000000000000000000000000000073ffffffffffffffffffffffffffffffffffffffff1663095ea7b37f0000000000000000000000000000000000000000000000000000000000000000846040518363ffffffff1660e01b81526004016116d4929190611dc7565b602060405180830381600087803b1580156116ee57600080fd5b505af1158015611702573d6000803e3d6000fd5b505050506040513d601f19601f820116820180604052508101906117269190611bc4565b50600063a34971f760e01b8484604051602401611744929190611dc7565b604051602081830303815290604052907bffffffffffffffffffffffffffffffffffffffffffffffffffffffff19166020820180517bffffffffffffffffffffffffffffffffffffffffffffffffffffffff8381831617835250505050905060007f000000000000000000000000000000000000000000000000000000000000000060601b826040516020016117db929190611d84565b604051602081830303815290604052905060006101f4905060006103e8905060006118257f0000000000000000000000000000000000000000000000000000000000000000611995565b90507f000000000000000000000000000000000000000000000000000000000000000073ffffffffffffffffffffffffffffffffffffffff1663779b432d888861186e8c611995565b7f00000000000000000000000000000000000000000000000000000000000000008689898c6040518963ffffffff1660e01b81526004016118b6989796959493929190611f32565b600060405180830381600087803b1580156118d057600080fd5b505af11580156118e4573d6000803e3d6000fd5b505050505050505050505050565b8273ffffffffffffffffffffffffffffffffffffffff1663a9059cbb82846040518363ffffffff1660e01b815260040161192d929190611dc7565b602060405180830381600087803b15801561194757600080fd5b505af115801561195b573d6000803e3d6000fd5b505050506040513d601f19601f8201168201806040525081019061197f9190611bc4565b50505050565b600082905092915050565b505050565b60008173ffffffffffffffffffffffffffffffffffffffff1660001b9050919050565b6000813590506119c7816121af565b92915050565b60008083601f8401126119df57600080fd5b8235905067ffffffffffffffff8111156119f857600080fd5b602083019150836040820283011115611a1057600080fd5b9250929050565b600081359050611a26816121c6565b92915050565b600081519050611a3b816121c6565b92915050565b600060408284031215611a5357600080fd5b611a5d6040611fee565b90506000611a6d848285016119b8565b6000830152506020611a8184828501611a8d565b60208301525092915050565b600081359050611a9c816121dd565b92915050565b600081359050611ab1816121f4565b92915050565b600060208284031215611ac957600080fd5b6000611ad7848285016119b8565b91505092915050565b60008060408385031215611af357600080fd5b6000611b01858286016119b8565b9250506020611b1285828601611a8d565b9150509250929050565b60008060008060808587031215611b3257600080fd5b6000611b40878288016119b8565b9450506020611b5187828801611aa2565b9350506040611b62878288016119b8565b9250506060611b7387828801611a17565b91505092959194509250565b60008060208385031215611b9257600080fd5b600083013567ffffffffffffffff811115611bac57600080fd5b611bb8858286016119cd565b92509250509250929050565b600060208284031215611bd657600080fd5b6000611be484828501611a2c565b91505092915050565b600060408284031215611bff57600080fd5b6000611c0d84828501611a41565b91505092915050565b60008060408385031215611c2957600080fd5b6000611c3785828601611a8d565b9250506020611c48858286016119b8565b9150509250929050565b611c5b81612062565b82525050565b611c6a81612074565b82525050565b611c81611c7c82612080565b61217e565b82525050565b611c90816120ac565b82525050565b6000611ca18261201f565b611cab8185612035565b9350611cbb81856020860161214b565b611cc48161218a565b840191505092915050565b6000611cda8261201f565b611ce48185612046565b9350611cf481856020860161214b565b80840191505092915050565b611d0981612103565b82525050565b611d1881612127565b82525050565b611d2781612139565b82525050565b6000611d388261202a565b611d428185612051565b9350611d5281856020860161214b565b611d5b8161218a565b840191505092915050565b611d6f816120e9565b82525050565b611d7e816120f3565b82525050565b6000611d908285611c70565b601482019150611da08284611ccf565b91508190509392505050565b6000602082019050611dc16000830184611c52565b92915050565b6000604082019050611ddc6000830185611c52565b611de96020830184611d66565b9392505050565b6000608082019050611e056000830187611c52565b611e126020830186611d66565b611e1f6040830185611d1e565b611e2c6060830184611d0f565b95945050505050565b6000608082019050611e4a6000830187611c52565b611e576020830186611d66565b611e646040830185611d75565b611e716060830184611d0f565b95945050505050565b6000602082019050611e8f6000830184611d00565b92915050565b60006020820190508181036000830152611eaf8184611d2d565b905092915050565b6000602082019050611ecc6000830184611d66565b92915050565b6000606082019050611ee76000830186611d66565b611ef46020830185611c52565b611f016040830184611d66565b949350505050565b6000604082019050611f1e6000830185611d66565b611f2b6020830184611d75565b9392505050565b600061010082019050611f48600083018b611d66565b611f55602083018a611d75565b611f626040830189611c87565b611f6f6060830188611c52565b611f7c6080830187611c87565b611f8960a0830186611d66565b611f9660c0830185611d75565b81810360e0830152611fa88184611c96565b90509998505050505050505050565b6000606082019050611fcc6000830186611d75565b611fd96020830185611c52565b611fe66040830184611c61565b949350505050565b6000604051905081810181811067ffffffffffffffff8211171561201557612014612188565b5b8060405250919050565b600081519050919050565b600081519050919050565b600082825260208201905092915050565b600081905092915050565b600082825260208201905092915050565b600061206d826120c9565b9050919050565b60008115159050919050565b60007fffffffffffffffffffffffffffffffffffffffff00000000000000000000000082169050919050565b6000819050919050565b60008190506120c48261219b565b919050565b600073ffffffffffffffffffffffffffffffffffffffff82169050919050565b6000819050919050565b600063ffffffff82169050919050565b600061210e82612115565b9050919050565b6000612120826120c9565b9050919050565b6000612132826120b6565b9050919050565b6000612144826120f3565b9050919050565b60005b8381101561216957808201518184015260208101905061214e565b83811115612178576000848401525b50505050565b6000819050919050565bfe5b6000601f19601f8301169050919050565b600381106121ac576121ab612188565b5b50565b6121b881612062565b81146121c357600080fd5b50565b6121cf81612074565b81146121da57600080fd5b50565b6121e6816120e9565b81146121f157600080fd5b50565b6121fd816120f3565b811461220857600080fd5b5056fe4d756c7469636861696e506179726f6c6c57697468486f6f6b3a20496e76616c696420616464726573734f776e61626c653a206e6577206f776e657220697320746865207a65726f20616464726573734d756c7469636861696e506179726f6c6c57697468486f6f6b3a20456d706c6f79656520726f757465206e6f7420636f6e666967757265644d756c7469636861696e506179726f6c6c57697468486f6f6b3a20416d6f756e74206d7573742062652067726561746572207468616e2030a2646970667358221220c70ba64896f3995f6ce789b1e9d2404955017c501e5645b9d63cdbf7043f98c664736f6c634300070600334d756c7469636861696e506179726f6c6c57697468486f6f6b3a20496e76616c6964204d756c7469636861696e506179726f6c6c20616464726573734d756c7469636861696e506179726f6c6c57697468486f6f6b3a20496e76616c696420486f6f6b5772617070657220616464726573734d756c7469636861696e506179726f6c6c57697468486f6f6b3a20496e76616c696420546f6b656e4d657373656e67657220616464726573734d756c7469636861696e506179726f6c6c57697468486f6f6b3a20496e76616c696420555344432061646472657373",
  "linkReferences": {},
  "deployedLinkReferences": {}
}